:03000000021A2DB4
:101A2D00787FE4F6D8FD9060007F007E07E4F0A398
:0A1A3D00DFFCDEFA758121021A8237
:0C000300000000000000000000000000F1
:0B312A00EF1FAC0670011E4C70F62277
:10002700AB07AA06EB1BAE0270011A4E600C7FAA43
:0B0037007E0512312A75D9AA80EA224A
:1014DE00907120E04480F07F057E0012312AE4FFF7
:1014EE00FE12002775A75575AC5C9071327450F0E2
:1014FE009071307403F0907136742FF090715C74AB
:10150E0003F090715BE054FCF07F18EF2466FDE46D
:10151E0034718D82F583E4F00FEFB433EE90401109
:10152E00E4935407FF90711CE054F84FF09040176D
:10153E00E493547FFF90711DE054804FF090401063
:10154E00E493FF5401C43333335480FE907123E08F
:10155E00547F4EF0EFC313543F4440FFA3E054803A
:10156E004FF0904012E493FF540FFE907146E054FA
:10157E00F04EF0EFC4540FFF90714FE054F04FF067
:10158E00904013E493543FFF907140E054C04FF0ED
:10159E00904014E493907126F0904015E49390716E
:0B15AE0028F0904016E49390712AF0A2
:0115B900220F
:1027F200E5B154CF42B153A8BFD2AF75D102789C94
:10280200E254E3F2E2441CF2E254FCF2E24401F24A
:1028120008E2547FF2E24420F278A17401F21874C3
:1028220076F2789CE2541FF2E244C0F243A84022BE
:03002100021D1DA0
:101D1D00C0E0C0F0C083C082C0D075D000C000C08C
:101D2D0001C002C003C004C005C006C007789DE213
:101D3D0030E753E24480F2122D089062EFE0FEA3EB
:101D4D00E0FFE4FCFD7BFF7AFFF9F8D31203D540E9
:101D5D000A9062EFE475F00112024F9062BDE0C38C
:101D6D0094FF5003E004F0122EAC122EC39062F1DA
:101D7D00E475F00112024F122E951230C4122C3060
:101D8D00122EF1122F48D007D006D005D004D00363
:101D9D00D002D001D000D0D0D082D083D0F0D0E00E
:011DAD003203
:102AA200E5B254FC42B253A9FED2AF75D104907183
:102AB200057409F0907104745FF0907101E0547F25
:102AC200F0E04420F0907100E0E4F0E044C1F04313
:032AD200A9012235
:030024000226941D
:10269400C0E0C0F0C083C082C0D075D000C000C00C
:1026A40001C002C003C004C005C006C00790710188
:1026B400E030E70AE04480F01224FE122390D007B1
:1026C400D006D005D004D003D002D001D000D0D0A1
:0926D400D082D083D0F0D0E032B6
:0E30A900906267EFF0123149906267E0FF22FB
:102DFE0078E2E254FCF2E24401F290718EE0440477
:0B2E0E00F075D60175D59F75D210221B
:08314900E5D430E4FB8FD7222E
:0405590041631000EA
:102D2A0078C2E2440CF2786AE24479F27591FF9033
:102D3A0071227407F0439E7043994043AA04D2AFAC
:012D4A002266
:102D8D005399E0EF24FE700E907123E054D8F0E0DB
:0D2D9D004459F04399017869E24448F2225C
:102CE500906310E024FD600E1460042404701390BA
:102CF50063107403F0227869E24401F29063107462
:032D050004F022B5
:030042000222D0C7
:1022D000C0E0C0F0C083C082C0D075D000C000C0D4
:0D22E00001C002C003C004C005C006C00755
:1022ED00786BE230E122E24402F2AF93EF75F01029
:1022FD00A4FFAEF0E594C4540FFDEF4DFF906310B5
:08230D00E024FC7003122D6CAA
:10231500D007D006D005D004D003D002D001D0001C
:0B232500D0D0D082D083D0F0D0E032C6
:102D4B0090623FF090630302045D90000612015401
:102D5B00FE9000080201549000091201C690000C6D
:012D6B002245
:100EB500E490623FF07FFFA374FFF0906303120498
:100EC5007D900001120154FE12013BFDEEC39D50C1
:100ED50003021047122D4F900001E41201C6900045
:100EE5000E1204861204DCEFF4600890630274238A
:100EF500F08009906302E06003E014F0122D4F903A
:100F050000031201546F6015900005120154600D25
:100F1500900004E41201C6900003021043900005FE
:100F2500120154FE900004120154C39E500B122D61
:100F35004F9000047401020181122D4F900002129E
:100F450001546F6048EFF4701C122D55C39E400A82
:100F55007405122D4B9000028061122D4F90000AEE
:100F6500740102103A122D4F9000087401122D657C
:100F75001201546F906303600C12045D7401122D0D
:100F850062EF02103A12045D900009803DEFF470A3
:100F950041122D4F900009120154D39400500302C1
:100FA500103D90000B120154FE90000A120154D31B
:100FB5009E40117401122D4B90000C120154906249
:100FC50040F08054122D4F90000A740112018102E5
:100FD500103D122D4F122D5CC394FF500890000850
:100FE5007401120181122D55B5060890623F7403F4
:100FF500F08020122D4F900007122D586E703990F9
:10100500623F7404122D4E900006120154900008A0
:101015001201C6906240EFF0122D4FE4122D62745A
:10102500FF1201C6906240E09000111201C6906265
:101035003FE09000121201C6122D4F900002EF12F0
:0210450001C6E2
:011047002286
:102FF00075AF3F8FAF75AEB975A402E5A530E1FBA3
:0130000022AD
:1029950090624B12047D75AF3F8FAF90624EE0C3DE
:1029A50094014022E5A530E0FB90624BE475F0010F
:1029B50012046612013BF5A675AEB975A4019062C5
:0729C5004EE014F080D52262
:102A6E0090624B12047D90624EE06027AE070FEE2F
:102A7E002400FDE4343F8D82F583E493FE90624B97
:102A8E00E475F001120466EE1201B490624EE01489
:042A9E00F080D322CF
:05055D004262A2000053
:073161007B017A62798C22E8
:102E9500C39062A3E094FF9062A2E094FF5007E420
:072EA50075F00112024F223B
:102AD500E4906243F0A3F0EE30E703D38001C392A4
:102AE50092D291EF25E0FFEE33FEC291906243E46E
:102AF50075F00112024F906243E07004A3E0641088
:022B050070D589
:012B070022AB
:0627B00090623F12047D5F
:1027B600C291C283E4906242F0906242E0C39D50AF
:1027C6002490623F12045D906242E075F002A4F527
:1027D6008285F083120265FFAEF0122AD59062421E
:0B27E600E004F080D4D283C283C292D2
:0127F10022C5
:102DAA00C39062A3E094199062A2E09400400CE4FC
:0C2DBA00F0A3F01231617D0B1227B02253
:102552007E007F167D0012316112050F78D2E2549F
:10256200F3F2E24404F2907187E4F0E254CFF2E233
:102572004410F2A3E4F078C2E2543FF2E24440F2A3
:10258200907181E4F0E254FCF2E24401F290717E37
:10259200E4F0C292C291C283C2801231617D0B0209
:0225A20027B060
:08056200416311004163120026
:10000F0078E3E254FCF2E24401F2907192E4F0C220
:02001F00A42219
:0F302200E4906312F0906311EFF0A37401F022B9
:102D0800906312E06014906311E06006E014F0D262
:102D1800A422C2A4E4906312F022C2A4E490631136
:022D2800F02297
:0B3135007379732072657365740A00E3
:102FA80078C3E254FCF2E24401F2907182E4F0C288
:022FB800842271
:1029CC00122FA8122DFE7BFF7A3179351209651270
:1029DC00000F1220B51230F81230B71230D1122677
:1029EC00461225521227F2122AA27F751230227F2C
:0629FC00017E000200272D
:102A02001214DE75D95590715EE054FEF075D9BB93
:102A12001229CC75D9AA121AC77B017A6279BC1223
:102A22000EB512181E1221291213E91211BC121727
:062A32005A122DAA80DDFE
:1020B50078E0E24440F278E3E254CFF278C0E244BB
:1020C50040F278C3E254CFF278C0E24480F278C39C
:1020D500E2543FF278D0E24401F278D2E254FCF2C5
:1020E50078D0E24408F278D2E2543FF278D0E24464
:1020F50010F278D3E254FCF278F0E24401F278F27F
:10210500E254FCF278E0E24480F278E3E2543FF2F4
:1021150018E2543FF2E254F3F208E254F3F218E203
:0421250054CFF2227F
:101AC700208607E49062B7F080452087089062B7C8
:101AD7007401F0803A2090089062B77402F0802F6A
:101AE7002093089062B77403F080242094089062D2
:101AF700B77404F0801920B0089062B77405F080BD
:101B07000E9062B720A7057406F0800374FFF0906B
:101B170062B7E0FF122DE27F01122F5C20A6047F3F
:101B2700018002E4FF122FBA30A5047F018002E48E
:101B3700FF12304030A2047F018002E4FF12304FD1
:101B470030A3047F018002E4FF122FCC30A1047F71
:091B5700018002E4FF122FDE22DE
:10056A00C10A4461D9000000004461DD00000000B6
:10057A004461E1000000004461E5000000004161BF
:10058A00E900602861EA00000000000000000000A5
:10059A000000000000000000000000000000000051
:1005AA00000000000000000000000000000041629E
:1005BA001200C1094261D400004161D6004161D7ED
:0105CA000030
:1024A700906242E0FF24EAF582E43461F5832290EA
:1024B700623FFEFDFC0204089062B3E0FF9061D723
:1024C700E0221203FCEF2401FFE43EFEE43DFDE4BD
:1024D7003CFC22E4FDFC120408C30203EB9F90625C
:1024E70041F0E0FFC3940A2212040802029D12037E
:0724F7004390623F02041450
:102F1F00E4FE74EA2E1224AEEFF00EEEB428F3E4C2
:042F2F00906212F0AA
:012F3300227B
:102E7D00906212E01224ACEFF0906212E004F0E0E8
:082E8D00C394284002E4F02286
:1018DF0090624312042000000000E4906247F0A3DE
:1018EF0074FFF0E4906242F0906243120408906239
:1018FF0042E01224ACE0FFE4FCFDFE12029D906278
:10190F00431204141224A7E0FE906247E0C39E50D6
:10191F000B74EA2F1224AEE0906247F01224A7E076
:10192F00FE906248E0D39E400B74EA2F1224AEE083
:10193F00906248F0906242E004F0E0642870A99051
:10194F0062431203FCC006C007906248E0FF90623A
:10195F0047E02FFFE433AB07FA3395E0F9F8D007F0
:10196F00D0061202AA906243120414E47B26FAF9FD
:0A197F00F89062431203FC020343D8
:0D30B70078D3E254F3F278D0E24420F22204
:1028EB009061E11203FC9061DD1224EF9061E11223
:1028FB0004149061DD120420000000009061E512C9
:10290B0003FC9061D91224EF9061E51204149061DD
:09291B00D9120420000000002282
:102390009061D4E475F00112024FC39061D5E094CE
:1023A000149061D4E09400402BE4F0A3F09061DD40
:1023B0001224C99061DD1204147F587E029061DD01
:1023C0001224DA400F200A0C9061DD120420000074
:1023D0000000D20A30951520090F9061D91224C946
:0E23E0009061D91204141228EBD20922C2090E
:0123EE0022CC
:1013E90090623F1204200000000090624312042022
:1013F900000000007FF47E019061E11224DA5006BA
:10140900200A030214DD7F407E777D1B7C009061FA
:10141900E51204081202B8E47B7A7A06F9F8120395
:1014290043906243120414300A23E4FF9061E512E9
:1014390024B9C31203EB90623F6009120420000033
:101449000001802A120420000000008021E47F248A
:10145900FEFDFC9062431204081202B8E47B0AFA0A
:10146900F9F81203439061E11204081224F590621D
:10147900EB1203FC9062431224EF9062EB12041406
:101489009061E5120420000000009061E11204203F
:1014990000000000C20AE4FF1224B6D31203EB4095
:1014A90012E47F661224B61202B8E47B64FAF9F8F2
:1014B9001224F5E47FC71224B6D31203EB400A9035
:1014C900623F120420000000C790623F1203FC90A3
:0414D90062B3EFF01B
:0114DD0022EC
:0D30C4009061E9E0C394FF5003E004F022A6
:1011BC009061D6E0702204F09062B3E09061D7F0B9
:1011CC009062B3E09061D8F09061D7E0FF1212EE1C
:1011DC009062B3E0FF122F1F9061E9E0C3944B5073
:1011EC00030212EDE4F01224BFD39F403B1224BF44
:1011FC001224E45003021282EF94324008906240B1
:10120C007414F08011EFC394149062404005740A7A
:10121C00F080037405F09061D7E0FF906240E0FE2F
:10122C00C3EF9E9061D7803B1224BFC39F5047E011
:10123C00FF9062B3E0C31224E4403BEF94324008C9
:10124C009062407414F08011EFC39414906240408B
:10125C0005740AF080037405F0906240E0FF906121
:10126C00D7E02FF09062B3E0FF122F1F9062B3E033
:10127C009061D8F080639062B3E0FF122E7D12185B
:10128C00DF90623FEFF0E0C3940A5007E09061D822
:10129C00F080259061D8E075F003A4FDACF090626D
:1012AC003FE075F007A42DFFE5F03CFE7C007D0AC5
:1012BC001201FA9061D8EFF09061D8E090623FF0A3
:1012CC001224C2D39F4005E014F0800D90623F12AF
:1012DC0024C2C39F5003E004F09061D7E0FF1212C8
:0112EC00EE13
:0112ED0022DE
:0D30DE006375722072706D20256C750A00FC
:1005CB004262E500004262E70000C10B4162D400C9
:0805DB004162D5004162D60027
:0D30EB009062E1020408E475F00102024F5A
:0D30D10078C2E254CFF278C0E24404F2224B
:102832009062DD1203FC9062D712040812029D908E
:1028420062DD1204149062D712042000000000120C
:1028520030EB9062DBE0FEA3E0FFE4FCFD12029DA0
:0E2862009062E1120414E49062DBF0A3F02215
:1024FE009062D4E004F0E0C394144020E4F09062C3
:10250E00DB1230F2C39062DCE094589062DBE09410
:10251E00024009200C06E4F0A3F0D20C30822220F7
:10252E000B1C9062D71203FCEF2401FFE43EFEE485
:10253E003DFDE43CFC9062D7120414122832D20BFB
:03254E0022C20B9B
:012551002267
:101B6000E47FF47E01FDFC1230EBC31203EB500660
:101B7000200C03021BF5300C0EC20C9063061204FD
:101B80002000000000801CE47FBC7EF7FDFC90621A
:101B9000DD1204081202B81230EB12034390630600
:101BA0001204149062DD120420000000009062E133
:101BB00012042000000000E47FFF7EFFFDFC906324
:101BC00006120408C31203EB400A906306120420B5
:101BD0000000FFFF7BFF7A3079DE9063061203FC82
:101BE0009062421204141209659063061203FC907D
:051BF00062AF120414B5
:011BF50022CD
:102C3000C39062E6E094FF9062E5E094FF500312D7
:102C400030F1C39062E8E094FF9062E7E094FF50B7
:052C5000031230F12227
:102E1900E47BF47A01F9F89062AF1203FC120343E0
:082E2900EFD3941840027F185A
:012E3100227E
:101DAE00E490631BF09062D6E0701404F0122E19CA
:101DBE009062D5EFF07F0D121F3B7F01122B331275
:101DCE002E1990631BEFF09062D5E0FEEFD39E903C
:101DDE00631BE040049EFF8008FF9062D5E0C39F26
:101DEE00FFEFD3940150067E077FD080047E007FE4
:101DFE0032C39062E6E09F9062E5E09E402FE4F0F1
:101E0E00A3F090631BE0FF9062D5E0FE9F5005E0CB
:101E1E0004F08011EED39F400CEED3940040069058
:0D1E2E0062D5E014F09062D5E0FF121EBCFA
:011E3B002284
:0805E3004162EA004162E900F7
:102C5500FA9062A8F9F81203FC0203431203FCEF91
:102C65002401FFE43EFEE43DFDE43CFC22120408A1
:042C7500C30203EBA8
:1025F6009062ACE06023A3E070067BE87A03800C6F
:102606009062ADE0640170377B4A7A069062A4124C
:102616002C59906243740180229062ADE0700B7B6E
:1026260064122C55E490624380119062ADE0B401CF
:102636000EE47BA1122C55E4906243F012219922FC
:10175A00C39062F0E094E89062EFE09403400F30A7
:10176A000D0C122DC6C20DE49062EFF0A3F0E47FD7
:10177A00E87E03FDFC9062EB122C7240657F187EB6
:10178A00C67D9A7C3B9062A4122C72500C9062A483
:10179A00122C619062A41204147F9C7EE07DF57C79
:1017AA00059062A8122C72500C9062A8122C6190BB
:1017BA0062A81204149062EB1203FCC3EF94E8FFD0
:1017CA00EE9403FEED9400FDEC9400FC9062EB12A3
:0217DA000414F5
:1017DC009062E9E004F0E0C3940A4004E4F0D20D16
:1017EC009062EAE0FF600FC39062F2E094E89062CE
:1017FC00F1E09403401BE49062F1F0A3F0EF700E63
:10180C009062ADE0FF122E649062EA7401F0122532
:01181C00F6D5
:01181D0022A8
:1005EB0042617E0000426180000060286182000051
:1005FB0000000000000000000000000000000000F0
:10060B0000000000000000000000000000000000DF
:10061B000000000000004161AA0041617B006028DE
:10062B0061AB0000000000000000000000000000B3
:10063B0000000000000000000000000000000000AF
:10064B00000000000000000000004161D300416188
:06065B007C0041617D00FE
:1028AE0025E02482F582E43461F583EEF0A3EFF0A7
:1028BE002225E024ABF582E4346122F583E0FEA309
:1028CE00E0FFE4FCFD02029D12272590631CEFF051
:0D28DE0090617D22E47B14FAF9F80203FCFE
:0B311200E4FDED1228AE0DEDB414F743
:01311D00228F
:102D6C0090617BE0700504F00231129061AAE012D0
:102D7C0028AE9061AAE004F0E0C394144002E4F0A1
:012D8C002224
:102870009062F412042000000000E49062F3F090F3
:1028800062F41204089062F3E025E02482F582E409
:1028900034611228C99062F41204149062F3E004C7
:0E28A000F0E0B414DA9062F41228E20203436E
:102EAC00C390617FE094FF90617EE094FF5007E453
:072EBC0075F00112024F2224
:102EC300C3906181E094FF906180E094FF5007E438
:072ED30075F00112024F220D
:0E303100E4FDED1228BF1228B70DEDB414F423
:01303F00226E
:102E32009061D3E01228BF1228B79061D3E004F06A
:092E4200E0C394144002E4F02204
:10295D009062F912042000000000E49062F8F090FB
:10296D0062F91204089062F8E01228BF1228C9908B
:10297D0062F91204149062F8E004F0E0B414E090EF
:08298D0062F91228E202034383
:10272500E4FDC3EF94AAEE940540028036C3EF940E
:10273500B4EE940440047D018029C3EF94BEEE9469
:102745000340047D02801CC3EF94C8EE940240044C
:102755007D03800FC3EF94D2EE940140047D048085
:05276500027D05AF0537
:01276A00224C
:10198900E490631CF0C390617FE094C890617EE0AD
:1019990094005003021A2CE4F0A3F01228707C077B
:1019A9007DD01204E2E4FB7A10F9F8120343AB0785
:1019B900AA0690617CE0701C04F01230311228D61E
:1019C900F0700A9062B6E0701204F0800EE4906242
:1019D900B6F08007AE02AF03122E32C3906181E0E8
:1019E9009488906180E094134039E4F0A3F01229BF
:1019F9005D1228D6E0FEC39F5005E004F0801090E8
:101A0900631CE0FFEED39F400690617DE014F090E7
:101A1900617DE070099062B6E0700804F022E490FC
:031A290062B6F0B2
:011A2C002297
:100661006028621600000000000000000000000089
:100671000000000000000000000000000000000079
:1006810000000000000000000000000041623E0088
:0406910041621300AF
:0C311E0025E02416F582E43462F58322DB
:10300100E4FDED12311EEEF0A3EFF00DEDB414F27C
:01301100229C
:102B0800906213E0700A1230019062137401F0228F
:102B180090623EE012311EEEF0A3EFF090623EE0CC
:0A2B280004F0E0C394144002E4F04E
:012B32002280
:1025A4009062FE12042000000000E49062FDF090AE
:1025B40062FE1204089062FDE012311EE0FEA3E008
:1025C400FFE4FCFD12029D9062FE1204149062FD71
:1025D400E004F0E0B414D89062FE1203FCE47B142F
:1025E400FAF9F81203439062FE1204149062FE0298
:0225F40003FCE6
:102EDA00C3906215E094FF906214E094FF5007E4F7
:072EEA0075F00112024F22F6
:102F3400C3906215E094C8906214E094004004E4E5
:032F4400F0A3F007
:012F47002267
:100695005462A400000000000000000000000000FB
:0C06A500000000000000004262B80000ED
:102646007B017A62793F90624E740BF0E4FF122AA6
:102656006E906249E0B4C52190623F1203FC90621D
:10266600A41204149062431203FC9062A81204148C
:10267600906247E09062ACF0229062AC7401F090F8
:0D26860062AE74C5F0E49062ADF0122DC696
:012693002224
:102DC6009062AE74C5F0E4FF122FF07B017A62794F
:0C2DD600A490624E740BF0E4FF022995FB
:102EF100C39062B9E094FF9062B8E094FF5007E498
:072F010075F00112024F22DE
:08315100E49062B8F0A3F02243
:102F0800C39062BBE094FF9062BAE094FF5007E47C
:072F180075F00112024F22C7
:08315900E49062BAF0A3F02239
:10212900C39062B9E094F49062B8E094014060E42D
:10213900F0A3F09062B5E01470559062ADE07022A2
:10214900906296E01313543F30E00AE4FDFF122C2D
:1021590079E4FD800A7D01E4FF122C797D01E4FF19
:10216900802A9062ADE064017025906296E01313B5
:1021790013541F30E00BE4FD7F01122C79E4FD803C
:10218900097D017F01122C797D017F01122C9D228D
:102CC1000001B2070003640E000516150006C81CBA
:102CD10000087A23000A2C2A000BDE31000D9038FF
:042CE100000F423F5F
:1006B1004A604B3F065B4F666D7D077F6F45604625
:1006C10000000000004260550000604260570A05CA
:1006D1000A02090209040907090A090908020804AA
:1006E100080708060809080A080C080D060A060981
:1006F100060D060F000500030002010D010C0103A8
:100701000102010102040207020602080209020AAB
:10071100603060990A070A060A040A030A010A00FE
:10072100090009030905090B09080801080308055F
:100731000808080B080E060406050606060C060E38
:10074100000600045A60C9050907060707070809DA
:1007510001090C090D0800080F0607060200070130
:100761000B4E60E302020203020C020E020F0200B2
:100771000201602A60F10000090E090F000000006B
:10078100000000000603070F070C0709070B070EFF
:10079100070D060107030704070507010700070204
:1007A1006054611B05020503050E050C050D0504CA
:1007B100050F040C040B05050507050605010500D9
:1007C100040F040E040604080409040D040A0400BD
:1007D100040104040407040504020403030F030EC7
:1007E100030C0309030A030D030B030003020305B2
:1007F10003070306030103034C616F0A0F0A0E0A84
:100801000C0A0B0A0A0A094260000000416002005A
:10081100416003004260040000416006004160073E
:1008210000426008003242600A000041600C004151
:10083100600D0041600E0042600F001E4260110019
:1008410000426013000041601500416016004260E3
:1008510017001E426019000041601B0042601C002D
:10086100C842601E000041602000426021001E421B
:100871006023000041602500426026005A42602842
:10088100000041602A0041602B0042602C000041C1
:10089100602E0042602F0000416031004260320052
:1008A1000041603400426035000041603700426021
:1008B10038000041603A0042603B000041603D0069
:1008C10042603E00004160400041604100426042A0
:0A08D1000000416044004160450052
:10104800906240E0FF25E024E3F582E43460F58314
:10105800E025E0248CF582E43462F58322E0FCA3E9
:10106800E0FDEF25E024E4F582E43460F583E0FF59
:101078007E007401A8070822E475F00102024FF40B
:10108800FFEEF45CFEED5FFF22E0FCA3E0FDEF75F0
:10109800F00EA424F2F582E43460F58322E0FF75B3
:1010A800F00EA424F1F582E43460F58322FFEC4EBF
:1010B800FEED4FFF2275F002020451E4F0A3F0A305
:1010C800E022E0FCA3E0FDEF25E022E014FFA3E02E
:1010D800FED39F22E0FCA3E0FDEE22EFF0744B2D3F
:1010E800F582E43460F583E022E0FFA3E0A3CFF0CB
:1010F800A3EFF022C3906001E09496906000E09422
:101108000022C3906005E0942C906004E0940122D2
:10111800E04401F0A3E0F022E0FEA3E0FFC322EDEB
:1011280075F00202045175F00EA4241BF582E43414
:1011380061F5832275F00EA4241CF582E43461F570
:101148008322E0FAA3E0FB7C00FFAE020201E8FE86
:10115800C3906049E09F906048E09E22EEF0A3EFC4
:10116800F0906314E004F022EEF0A3EFF090631621
:10117800E004F022EEF0A3EFF0906318E004F02210
:10118800EEF0A3EFF090631AE004F02225E0245774
:10119800F582E434602225E02499F582E434602263
:1011A80025E024C9F582E434602225E0246FF58225
:0411B800E434612298
:0F304000EF906298600412111822E054FEF02203
:0F304F0090628FE054FEF0EF6004E04401F02245
:102FBA00906298E054F7F0EF6007E04408F0A3E06D
:022FCA00F022F3
:102FCC0090628CE054EFF0EF6007E04410F0A3E067
:022FDC00F022E1
:102FDE0090628EE054BFF0EF6007E04440F0A3E053
:022FEE00F022CF
:051E3C00906313EFF0BC
:101E4100E4A3F0F0906314E0FF121194121056C055
:101E510083C0821210CA2458F582E43460121074CF
:101E61008005C333CE33CED8F9121087D082D08308
:101E7100121164E0B421CD906313E0D39400403A91
:101E8100E4A3F09063131210D3502FEE12119412A9
:101E91001056C083C0821210DC25E02458F582E47C
:101EA10034601210748005C333CE33CED8F91210CA
:0A1EB100B5D082D08312116480C9FD
:011EBB002204
:051EBC00906315EFF03A
:101EC100E4A3F0906316E0FF12119E121056C08336
:101ED100C0821210CA249AF582E434601210748010
:101EE10005C333CE33CED8F9121087D082D08312F6
:101EF1001170E0B418CD906315E0D39400403AE43A
:101F0100A3F09063151210D3502FEE12119E1210F0
:101F110056C083C0821210DC25E0249AF582E43495
:101F2100601210748005C333CE33CED8F91210B5C8
:091F3100D082D08312117080C926
:011F3A002284
:102B3300AD0790628FE054DFF0E054BFF090628EF7
:102B4300E054FBF0ED6013A3E04420F0E04440F0D8
:0B2B530090628EE04404F0A3E0F0224A
:051F3B00906317EFF0B8
:101F4000E4A3F0906318E0FF1211A8121056C083AA
:101F5000C0821210CA24CAF582E434601210748060
:101F600005C333CE33CED8F9121087D082D0831276
:101F7000117CE0B40DCD906317E0D39400403AE4B7
:101F8000A3F09063171210D3502FEE1211A8121065
:101F900056C083C0821210DC25E024CAF582E434E6
:101FA000601210748005C333CE33CED8F91210B549
:091FB000D082D08312117C80C99B
:011FB9002205
:102F5C00EF9062906008E04408F0A3E0F022E054A7
:032F6C00F7F02259
:0F305E00906291E054DFF0EF6004E04420F02234
:051C8B0090623FEFF044
:101C9000E4A3F0121048C083C0821210658005C30F
:101CA00033CE33CED8F9121087D082D083EEF0A392
:101CB000EFF0906240E004F0E0B407D790623FE0BC
:101CC000FFD394004056744B2F1210E8906241F0FD
:101CD000E4906240F0906240E0FFD39407503D12E0
:101CE00010788005C333CE33CED8F9FF906241E03F
:101CF000FDEF5D601F121048C083C0821210658026
:101D000005C333CE33CED8F91210B5D082D083EECE
:0C1D1000F0A3EFF0906240E004F080B916
:011D1C0022A4
:102DE200AB07E4FF12305E121C8BEBF4600DEB704C
:0C2DF200057F0102305EAF03121C8B2233
:101BF600906249EBF0906247EFF0A3EDF0EF121020
:101C0600A7121127121058C083C082E0FAA3E0FB86
:101C1600906247E01210971211271210768005C3C2
:101C260033CE33CED8F9F4FFEEF45AFEEB5FFFD095
:101C360082D083EEF0A3EFF0906249E060469062B6
:101C4600471210A5C083C082906248E0D082D0833C
:101C56001210BD121058C083C082121091C083C0EA
:101C660082906248E0D082D0831210BD1210768036
:101C760005C333CE33CED8F91210B5D082D083EE59
:051C8600F0A3EFF022C5
:031FBA00906247EB
:101FBD001210E3906249F0E4906248F0906248E0BC
:101FCD00FFC3940750651210788005C333CE33CE0E
:101FDD00D8F9FF906249E0FDEF5D604690624712CF
:101FED0010A5C083C082906248E0D082D0831210C9
:101FFD00BD121058C083C082121091C083C0829050
:10200D006248E0D082D0831210BD1210768005C3D5
:10201D0033CE33CED8F91210B5D082D083EEF0A3E3
:0B202D00EFF0906248E004F0021FC9D1
:012038002285
:0512EE00906242EFF0E8
:1012F300E4906245F0A3F0FB7D01FF121BF6E4FBD3
:101303007D02FF121BF69062437401F0E490624485
:10131300F0906244E0FFC394075049906243E0FEBB
:101323001210A7EF121128121058C083C082121096
:10133300DC121097C083C082906244E0D082D083D5
:101343001210BD1210768005C333CE33CED8F912F6
:101353001087D082D083EEF0A3EFF0906244E004D4
:10136300F0021314906243E004F0E06403709D9074
:101373006242E0906246F0906245E004F0A3E075BB
:10138300F00A84F070F1906242E0C3946440127BEF
:10139300017D01E4FF121BF67B017D02E4FF121BBA
:1013A300F69062437401F0906243E0FFC3940350EC
:1013B30034906245E0B40105EF640260209062431B
:1013C300E0FFC374039FFF906242E075F00A84ADAF
:1013D300F0121FBA906242E075F00A84F090624303
:0513E300E004F080C2EF
:0113E80022E2
:102C7900EF700F906296E054FBF0ED6016E04404AB
:102C8900800D906296E054F7F0ED6007E04408F09B
:042C9900A3E0F022A2
:102E4B00EF700AFD7F01122C790D1F8008E4FDFF46
:092E5B00122C790D0F122C7922C2
:102C9D00EF700F906293E054EFF0ED6016E044108A
:102CAD00F022906290E054DFF0ED6007E04420F0F8
:042CBD00A3E0F0227E
:102E6400EF700AFD7F01122C9D0D1F8008E4FDFF09
:092E7400122C9D0D0F122C9D2261
:0315BA00906245F7
:1015BD001210E3906247F0E4906246F0906246E0CC
:1015CD00FFC39407400302168B906245E0FE121193
:1015DD002E75F002EF120451121058C083C0821202
:1015ED0010DC12113CC083C082906246E0FBD082B9
:1015FD00D0831210BD1210768005C333CE33CED8F2
:10160D00F9121087D082D083EEF0A3EFF07E007434
:10161D0001A803088005C333CE33CED8F9FF9062FD
:10162D0047E0FDEF5D604E906245E0FF12112EC068
:10163D0083C082906246E0D082D0831210BD12101A
:10164D0058C083C082E0FCA3E0FDEF12113CC083C3
:10165D00C082906246E0D082D0831210BD12107607
:10166D008005C333CE33CED8F91210B5D082D083D6
:0E167D00EEF0A3EFF0906246E004F00215C913
:01168B00223C
:102F6F00EF90628E6008E04402F0A3E0F022E0549C
:032F7F00FDF02240
:0F306D00EF90628E600412111822E054FEF022E0
:0F307C00EF906292600412111822E054FEF022CD
:0621990090623F120414E5
:10219F00E4906244F0906244E0FFC39406503CC365
:1021AF0074059FFFC007E47B0AFAF9F890623F12AB
:1021BF0003FC120343AF03AD07D0071215BA9062A9
:1021CF003F1203FCE47B0AFAF9F812034390623FD3
:1021DF00120414906244E004F080BA906243E0600D
:1021EF00087F01122F6F1F8006E4FF122F6F0F124F
:0521FF00306D12307C80
:0122040022B7
:102F8200EF9062A06008E04420F0A3E0F022E05459
:032F9200DFF0224B
:10301200EF90629F6005E04440F022E054BFF0224E
:0F308B00EF9062A0600412111822E054FEF022B0
:05203900906319EFF0B7
:10203E00E4A3F090631AE0FF1211B2121056C0839F
:10204E00C0821210CA2470F582E4346112107480BA
:10205E0005C333CE33CED8F9121087D082D0831277
:10206E001188E0B406CD906319E0603AE4A3F090D5
:10207E0063191210D3502FEE1211B2121056C083E4
:10208E00C0821210DC25E02470F582E43461121057
:10209E00748005C333CE33CED8F91210B5D082D0AA
:0620AE008312118880C9B5
:0120B4002209
:10226B00906000121080906002E0FF70221210FC50
:10227B004052E4F0A3F0906003E004F0E0940C40D3
:10228B00439060027401F0E4906000F0A3F022EF41
:10229B00B40115C3906001E094C81211034025E40A
:1022AB00F0A3F0A37402F022906002E0B4021512C6
:1022BB0010FC4010E4F0A3F0906003E0D3940040D6
:0422CB0003E014F028
:0122CF0022EC
:1023EF00906004121080906006E0FF701C12110ABA
:1023FF00404CE4F0A3F0906007E094055004E00433
:10240F00F0229060067401F022EFB40115C39060C2
:10241F0005E094901211114025E4F0A3F0A374028B
:10242F00F022906006E0B4021512110A4010E4F099
:0E243F00A3F0906007E0D394004003E014F097
:01244D00226C
:102F4800906046E0B4010C90604812108090604791
:042F58007401F022EE
:10168C0090604AE0600302173A9060087D121211D4
:10169C004AAC06AD07EB25E0FFEA33FEC3ED9FFF36
:1016AC00EC9E121157400790604A7401F022906032
:1016BC0008E0FEA3E0FF7C007D031201E8AA06AB64
:1016CC0007906008E0FEA3E0FF7D121201E8C3EF73
:1016DC009BFFEE9A121157400812173B7F02021B18
:1016EC00F690600EE0700804F09060081210F19013
:1016FC00600A12108090600812112090600BE09F1D
:10170C0090600AE09E4027E4F0A3F012173B7F02A2
:10171C00121BF690600CE07F0112174F7F0212171C
:0E172C004FA3F090600C04F0E0B40602E4F06D
:10173A002290600DE0FDE4FB7F01121BF690600D24
:10174A00E0FDE4FB22FD7B01121BF690600CE02217
:1023300090604AE06401705790600F7D2212114A4C
:10234000906013E0FCA3E0FDC39FEC9E400690600C
:102350004A7402F0906015E0700A04F0906011EC8D
:10236000F0A3EDF0906011121080906013121080B5
:10237000C3906012E09B906011E09A4012E4F0A3D9
:0F238000F0906016E0FF121E3C906016E004F033
:01238F00222B
:100C5F0090604AE064026003020EB490602AE0C321
:100C6F00940C400790604A7403F02290602BE07060
:100C7F001804F09060171210F17F0112301290607B
:100C8F001C1210F17F01121F3B90601912108090FF
:100C9F00601712112090601AE09F906019E09E403B
:100CAF003290601BE0FFD394065028E4906019F057
:100CBF00A3F012203990601BE0B403057F01122FBF
:100CCF008290601BE0B406057F0112308B90601B91
:100CDF00E004F090601E12108090601C12112090A2
:100CEF00601FE09F90601EE09E4049906020E0FFF3
:100CFF00D39404503FE490601EF0A3F0EF146014FF
:100D0F0014601814601C146020240470217F0112D9
:100D1F003040801A7F01122FBA80137F01122FCC1F
:100D2F00800C7F01122FDE80057F0112304F906003
:100D3F0020E004F0906023121080906021121120A7
:100D4F00906024E09F906023E09E407A906025E0C1
:100D5F00FFD394185070E4906023F0A3F0121EBCE0
:100D6F00906025E01204B60D9E020DA2040DA6069A
:100D7F000DAA080DAE0A0DB20C0DB60E0DBA100D60
:100D8F00BE120DC2140DC6160DCA1800000DCF7F6E
:100D9F0002802A7F0380267F0480227F05801E7FAA
:100DAF0006801A7F0780167F0880127F09800E7FCA
:100DBF000A800A7F0B80067F0C80027F0D121F3B7B
:100DCF00906025E004F09060281210809060261249
:100DDF001120906029E09F906028E09E5003020E42
:100DEF00B490602AE0FFD3940B4003020EB4E4905A
:100DFF006028F0A3F0EF1204B60E30000E36010E8D
:100E0F003C020E45030E55040E63050E69060E7A5D
:100E1F00070E80080E8E090E970A0EA40B00000E07
:100E2F00AE7D01E4FF800A7D087F0180047D087F8D
:100E3F0002121FBA80697D01E4FF122C790F122C68
:100E4F007912305E80597D08E4FF1215BA7F0112C6
:100E5F002F6F804B7D087F0180297D087F0212153F
:100E6F00BA7F0112306D122B3380347D087F0380DF
:100E7F00127D087F041215BA7F0112307C80207D0D
:100E8F00087F051215BA80177D01E4FF122C9D0F04
:100E9F00122C9D800A7F08121C8B7F01122F5C90F1
:050EAF00602AE004F0E0
:010EB400221B
:1026DD009060467401F0906046E0603B75D9AAA306
:1026ED00E060F3E4F012168C122330120C5F906050
:1026FD004AE0B4031DE4906046F07F21121E3C7F3A
:10270D000D121F3B7F01122B3312301212308B1220
:08271D002F5C122DAA80BF22DF
:102F9500C3906056E094FF906055E094FF50031293
:032FA50010802277
:102A3800C3906056E094DB906055E094014026E432
:102A4800F0A3F09062B6E0601C906290E0C41313AB
:102A580013540130E005E0547FF022906290E04486
:062A680080F0A3E0F02263
:102C0A0090602C121080C390602DE094F490602C98
:102C1A00E0940140101210C370047F0180027F000B
:052C2A0090602EEFF0A8
:012C2F002282
:102B5E0090602F121080C3906030E094F490602F3C
:102B6E00E0940140151210C3FF121E3C906031E03C
:0A2B7E0004F0E0C394224002E4F0EA
:012B8800222A
:102B8900906032121080C3906033E094F490603208
:102B9900E0940140151210C3FF121EBC906034E08E
:0A2BA90004F0E0C394194002E4F0C8
:012BB30022FF
:102BB400906035121080C3906036E094F4906035D4
:102BC400E0940140151210C3FF121F3B906037E0E0
:0A2BD40004F0E0C3940E4002E4F0A8
:012BDE0022D4
:10292400906038121080C3906039E094F49060385D
:10293400E0940140231210C3FB7009FF12305E12B1
:102944001C8B8006EB14FF122DE290603AE004F039
:08295400E0C394084002E4F026
:01295C002258
:102BDF0090603B121080C390603CE094C890603BC3
:102BEF00E0940040151210C3FF1212EE90603DE00A
:0A2BFF0004F0E0C394C84002E4F0C3
:012C090022A8
:1022050078687C627D017BFF7A2C79C17E007F2412
:1022150012011590603E121080C390603FE094C893
:1022250090603EE09400403D1210C325E025E02477
:1022350068F582E43462F5831203FC906041E09016
:102245006243F0122199906041E070047F018002A1
:102255007F00906041EFF0906040E004F0E0C394AF
:05226500094002E4F055
:01226A002251
:10244E00906042121080C3906043E094F49060421A
:10245E00E094014043E4F0A3F0906045E0FF122FBA
:10246E0082906045E0FF123012906045E0FF12301E
:10247E008B906044E0FF122039906044E004F0E05D
:10248E00D394064002E4F0906045E070047F018032
:08249E00027F00906045EFF0A1
:0124A6002213
:013168002244
:0D310500636C69636B0A004C6F6E670A0013
:1008DB005362BC0A0000000003324100000000001C
:0E08EB0002FF314000004562CF01010203040C
:0F309A00EC75F005A424CFF582E43462F58322AF
:0D30F80078C0E24420F278C3E254F3F222E3
:093140002085037F01227FFF229C
:10276B00E4FEFCFBEDB401030B8016EDB403047B1C
:10277B0002800EEDB404047B038006EDB405027BEE
:10278B0004ECC39401501B12309AE0B507111230C0
:10279B009AE5822BF582E43583F583E0FE80030C0A
:0427AB0080DFAF0616
:0127AF002207
:10181E009062CDE070030218DEE0FFA3E0FD122718
:10182E006BE49062CDF0A3F0EF24FE6057046003EA
:10183E000218DE7BFF7A3179051209657F75123049
:10184E00229062B5E070149062ACE070047F01806B
:10185E00027F009062ACEFF00225F69062B5E06474
:10186E0001706D9062ADE0700A04F0FF122E4B7F96
:10187E0001800BE49062ADF0FF122E4BE4FF122EAE
:10188E00640231517BFF7A31790C1209657F751232
:10189E0030229062B5E0701E9062ACE0B401079009
:1018AE0062B57401F0229062A812042000000000BC
:1018BE001225F6022DC69062B5E0B401137402F043
:1018CE009062ADE0FF122E4B9062ADE0FF122E64DF
:0118DE0022E7
:101A4700022A02E493A3F8E493A34003F68001F289
:101A570008DFF48029E493A3F85407240CC8C333A0
:101A6700C4540F4420C8834004F456800146F6DF6F
:101A7700E4800B0102040810204080900559E47EA1
:101A8700019360BCA3FF543F30E509541FFEE49364
:101A9700A360010ECF54C025E060A840B8E493A32B
:101AA700FAE493A3F8E493A3C8C582C8CAC583CA56
:101AB700F0A3C8C582C8CAC583CADFE9DEE780BE0E
:0108F90000FE
:10004500E709F608DFFA8046E709F208DFFA803E9D
:1000550088828C83E709F0A3DFFA8032E309F6088A
:10006500DFFA8078E309F208DFFA807088828C83F2
:10007500E309F0A3DFFA806489828A83E0A3F608A6
:10008500DFFA805889828A83E0A3F208DFFA804C80
:1000950080D280FA80C680D4806980F28033801057
:1000A50080A680EA809A80A880DA80E280CA8033C0
:1000B50089828A83ECFAE493A3C8C582C8CCC58338
:1000C500CCF0A3C8C582C8CCC583CCDFE9DEE78008
:1000D5000D89828A83E493A3F608DFF9ECFAA9F087
:1000E500EDFB2289828A83ECFAE0A3C8C582C8CCDD
:1000F500C583CCF0A3C8C582C8CCC583CCDFEADEF6
:10010500E880DB89828A83E493A3F208DFF980CC57
:1001150088F0EF60010E4E60C388F0ED2402B40450
:100125000050B9F582EB2402B4040050AF232345F7
:0601350082239000957387
:10013B00BB010689828A83E0225002E722BBFE02C2
:09014B00E32289828A83E49322F5
:10015400BB010CE58229F582E5833AF583E0225060
:1001640006E92582F8E622BBFE06E92582F8E222AA
:0D017400E58229F582E5833AF583E49322C4
:10018100BB010FF8E58229F582E5833AF583E02882
:10019100F0225009C58229F8E58226F622BBFE0924
:1001A100C58229F8E22582F222F8EA2583F583E95E
:0301B1009328226E
:1001B400BB010689828A83F0225002F722BBFE012A
:0201C400F32224
:1001C600F8BB010DE58229F582E5833AF583E8F06F
:1001D600225006E92582C8F622BBFE05E92582C81B
:0201E600F22203
:1001E800EF8DF0A4A8F0CF8CF0A428CE8DF0A42E2B
:0201F800FE22E5
:1001FA00BC000BBE0029EF8DF084FFADF022E4CCE9
:10020A00F875F008EF2FFFEE33FEEC33FCEE9DECB1
:10021A00984005FCEE9DFE0FD5F0E9E4CEFD22EDF7
:10022A00F8F5F0EE8420D21CFEADF075F008EF2F41
:10023A00FFED33FD4007985006D5F0F222C398FD32
:05024A000FD5F0EA22CF
:10024F00C5F0F8A3E028F0C5F0F8E582158270023A
:06025F001583E038F022D7
:10026500BB0110E58229F582E5833AF583E0F5F0D7
:10027500A3E0225009E92582F886F008E622BBFEB4
:100285000AE92582F8E2F5F008E222E5832AF583FA
:08029500E993F5F0A3E99322BF
:0D029D00EF2BFFEE3AFEED39FDEC38FC22B0
:0E02AA00C3EF9BFFEE9AFEED99FDEC98FC224F
:1002B800E88FF0A4CC8BF0A42CFCE98EF0A42CFCE5
:1002C8008AF0EDA42CFCEA8EF0A4CDA8F08BF0A463
:1002D8002DCC3825F0FDE98FF0A42CCD35F0FCEBC2
:1002E8008EF0A4FEA9F0EB8FF0A4CFC5F02ECD3987
:0F02F800FEE43CFCEAA42DCE35F0FDE43CFC22F4
:1003070075F008758200EF2FFFEE33FECD33CDCCAD
:1003170033CCC58233C5829BED9AEC99E582984030
:100327000CF582EE9BFEED9AFDEC99FC0FD5F0D60D
:10033700E4CEFBE4CDFAE4CCF9A88222B800C1B937
:100347000059BA002DEC8BF084CFCECDFCE5F0CB75
:10035700F97818EF2FFFEE33FEED33FDEC33FCEBAE
:1003670033FB10D703994004EB99FB0FD8E5E4F969
:10037700FA227818EF2FFFEE33FEED33FDEC33FC56
:10038700C933C910D7059BE99A4007EC9BFCE99A4A
:10039700F90FD8E0E4C9FAE4CCFB2275F010EF2F8F
:1003A700FFEE33FEED33FDCC33CCC833C810D7078F
:1003B7009BEC9AE899400AED9BFDEC9AFCE899F8CA
:0E03C7000FD5F0DAE4CDFBE4CCFAE4C8F9225D
:1003D500EB9FF5F0EA9E42F0E99D42F0EC6480C89F
:0603E50064809845F0223F
:1003EB00EB9FF5F0EA9E42F0E99D42F0E89C45F068
:0103FB0022DF
:0C03FC00E0FCA3E0FDA3E0FEA3E0FF2274
:0C040800E0F8A3E0F9A3E0FAA3E0FB2277
:0C041400ECF0A3EDF0A3EEF0A3EFF0225B
:10042000A8828583F0D083D0821204371204371259
:100430000437120437E473E493A3C583C5F0C5837E
:10044000C8C582C8F0A3C583C5F0C583C8C582C826
:010450002289
:0C045100A42582F582E5F03583F58322B6
:09045D00E0FBA3E0FAA3E0F922A0
:10046600F8E0FBA3A3E0F925F0F0E582158270021F
:070476001583E0FA38F022C3
:09047D00EBF0A3EAF0A3E9F02280
:10048600BB010DE58229F582E5833AF58302045D19
:100496005007E92582F802053BBBFE07E92582F8ED
:1004A600020544E58229F582E5833AF58302054D86
:1004B600D083D082F8E4937012740193700DA3A3D5
:1004C60093F8740193F5828883E4737402936860E9
:0604D600EFA3A3A380DFE9
:0604DC008A838982E473AB
:1004E200EC8EF0A4CCC5F0CCCDF8EFA4CEC5F02DA7
:1004F200FDE43CFCE8A42EC8C5F03DFDE43CFCEF65
:0D050200A4FFE5F028FEE43DFDE43CFC22F2
:1008FA00E5082442F582E43462F583E00508229093
:10090A00623F300703906242E475F0011204660206
:10091A00013B2000E97F2ED2008018EF540F24906B
:10092A00D43440D4FF30040BEF24BFB41A00500370
:10093A002461FFE50960021509050CE50C70020542
:10094A000B30070E90623FE475F001120466EF0265
:10095A0001B40230A97403D2078003E4C207F50880
:10096A0090623F12047DE4F509F50BF50CE5096088
:10097A00077F2012093D80F5750AFFC201C200C235
:10098A0002C203C205C206C208120909FF700D306D
:10099A0007057F0012094EAF0CAE0B22B4255FC2C9
:1009AA00D5C204120909FF24D0B40A00501A75F0FE
:1009BA000A780930D50508B6FF0106C6A426F6202E
:1009CA00D5047002D20380D924CFB41A00EF5004A0
:1009DA00C2E5D204020B4FD20180C6D20080C0D237
:1009EA000280BCD2D580BAD20580B47F2012093DDC
:1009FA002002077401B5090040F11208FAFF120932
:100A0A003D020977D208D20680951208FAFB12082D
:100A1A00FAFA1208FAF94A4B700679207A0C7BFF27
:100A2A0020022EE509602A7E008E8275830012015B
:100A3A005460060EEE650A70F0C2D5EBC0E0EAC05B
:100A4A00E0E9C0E0EE120B96D0E0F9D0E0FAD0E08F
:100A5A00FB12013BFF60AAEBC0E0EAC0E0E9C0E09C
:100A6A0012093DD0E02401F9D0E03400FAD0E0FBCD
:100A7A00E50A0460DCD50AD980877BFF7A0B799274
:100A8A00D202809C791080027908C206C2088008C6
:100A9A00D2D5790A8004790AC2D5E50A047002F52A
:100AAA000AE4FAFDFEFF1208FAFC7B082001131281
:100ABA0008FAFD7B1030000A1208FAFE1208FAFF43
:100ACA007B20EC3382D592D55013C3E43000069FC5
:100ADA00FFE49EFEE42001039DFDE49CFCE4CBF8C8
:100AEA00C201EC700CCFCECDCCE824F8F870F380BC
:100AFA0017C3EF33FFEE33FEED33FDEC33FCEB337C
:100B0A00FB994002FB0FD8E9EB300105F8D0E0C4AD
:100B1A0048B201C0E00AEC4D4E4F78207B0070C20B
:100B2A00EAB50A0040BCC0E0120B98D0F0D0E02031
:100B3A000104C4C0E0C4B201C0F0120926D0F0D545
:100B4A00F0EB0209771204B60A14530A8E5809E523
:100B5A004C09E1420A924F0A9A440A9A4909FA430D
:080B6A000AA0550A84460A8422
:100B7200450A84470C405009E92D09ED2E0A102B35
:100B820009F1230A0E200C292A09A94800000A08A3
:100B92003F3F3F00790AA2D5200314300509B9105E
:100BA200020404B9080104A2D5200602500104205F
:100BB20002689202B509005034C0E07F2030031968
:100BC2007F30A20272067205500F120BEFC202C2F0
:100BD20006C205C2087F30800F300503E9C0E0126B
:100BE200093D300503D0E0F9D0E0B509CC30051756
:100BF2007F30B9100C12093D7F583004077F78808E
:100C020003B9080312093D3002057F2D02093D7F19
:100C1200202008F87F2B2006F322920280CF286E34
:100C2200756C6C2900D2011208FA3001F8C2017801
:100C32000930D50108F60209A92D50434958120876
:100C4200FA2403B405004001E4900C3B9312092EF0
:0D0C5200743A12092ED203750904020A8EAD
:10050F00EF4E6012EF60010EEDBB010B89828A8303
:10051F00F0A3DFFCDEFA2289F05007F709DFFCA910
:0C052F00F022BBFEFCF309DFFCA9F02267
:09053B00E6FB08E6FA08E6F922E5
:09054400E2FB08E2FA08E2F922E8
:0C054D00E493FB740193FA740293F9220A
:00000001FF
