:0300000002196B77
:10196B00787FE4F6D8FD9060007F007E07E4F0A35B
:0A197B00DFFCDEFA7581210219C0BD
:0C000300000000000000000000000000F1
:0B2FE800EF1FAC0670011E4C70F622BB
:10002700AB07AA06EB1BAE0270011A4E600C7FAA43
:0B0037007E05122FE875D9AA80EA228E
:10159E00907120E04480F07F057E00122FE8E4FF7A
:1015AE00FE12002775A75575AC5C9071327450F021
:1015BE009071307403F0907136742FF090715C74EA
:1015CE0003F090715BE054FCF07F18EF2466FDE4AD
:1015DE0034718D82F583E4F00FEFB433EE90401149
:1015EE00E4935407FF90711CE054F84FF0904017AD
:1015FE00E493547FFF90711DE054804FF0904010A3
:10160E00E493FF5401C43333335480FE907123E0CE
:10161E00547F4EF0EFC313543F4440FFA3E0548079
:10162E004FF0904012E493FF540FFE907146E05439
:10163E00F04EF0EFC4540FFF90714FE054F04FF0A6
:10164E00904013E493543FFF907140E054C04FF02C
:10165E00904014E493907126F0904015E4939071AD
:0B166E0028F0904016E49390712AF0E1
:01167900224E
:10000F00E0FEA3E0FFE4FCFD7BFF7AFFF9F8D302EB
:02001F0003C319
:1027A400E5B154CF42B153A8BFD2AF75D102789CE2
:1027B400E254E3F2E2441CF2E254FCF2E24401F299
:1027C40008E2547FF2E24420F278A17401F2187412
:1027D40076F2789CE2541FF2E244C0F243A840220D
:03002100021CE6D8
:101CE600C0E0C0F0C083C082C0D075D000C000C0C4
:101CF60001C002C003C004C005C006C007789DE24B
:101D060030E746E24480F2122C3890628112000FCE
:101D1600400A906281E475F00112023D90628312DE
:101D2600000F400A906283E475F00112023D906252
:101D36003AE0C394FF5003E004F0122DF5122E0C86
:101D4600122BF4122695122E38D007D006D005D0C5
:101D560004D003D002D001D000D0D0D082D083D01E
:041D6600F0D0E032A7
:102A5B00E5B254FC42B253A9FED2AF75D1049071CA
:102A6B00057409F0907104745FF0907101E0547F6C
:102A7B00F0E04420F0907100E0E4F0E044C1F0435A
:032A8B00A901227C
:030024000225BFF3
:1025BF00C0E0C0F0C083C082C0D075D000C000C0E2
:1025CF0001C002C003C004C005C006C0079071015E
:1025DF00E030E70AE04480F012247512230BD00795
:1025EF00D006D005D004D003D002D001D000D0D077
:0925FF00D082D083D0F0D0E0328C
:0E2F9A00906220EFF0123007906220E0FF22DC
:102D470078E2E254FCF2E24401F290718EE044042E
:0B2D5700F075D60175D59F75D21022D3
:08300700E5D430E4FB8FD72271
:0408AC004162920013
:102B3E0078C2E2440CF2786AE24479F27591FF9021
:102B4E0071227407F0439E7043994043AA04D2AF9A
:052B5E007F02022CBA09
:102CBA005399E0EF24FE700E907123E054D8F0E0AF
:0D2CCA004459F04399017869E24448F22230
:102BF400906292E014600E146004240270139062D8
:102C0400927401F0227869E24401F29062927402B3
:022C1400F022AC
:030042000222ABEC
:1022AB00C0E0C0F0C083C082C0D075D000C000C0F9
:0D22BB0001C002C003C004C005C006C0077A
:1022C800786BE230E122E24402F2AF93EF75F0104E
:1022D800A4FFAEF0E594C4540FFDEF4DFF90629259
:0822E800E024FE7003122C7BC0
:1022F000D007D006D005D004D003D002D001D00042
:0B230000D0D0D082D083D0F0D0E032EB
:102C5A009061F4F090628D02044B900006120154C8
:102C6A00FE9000080201549000091201C690000C5F
:012C7A002237
:100E0F00E49061F4F07FFFA374FFF090628D120401
:100E1F006B900001120154FE12013BFDEEC39D5079
:100E2F0003020FA1122C5E900001E41201C6900084
:100E3F000E1204741204CAEFF4600890628C7423CB
:100E4F00F0800990628CE06003E014F0122C5E9049
:100E5F0000031201546F6015900005120154600DCC
:100E6F00900004E41201C6900003020F9D9000054C
:100E7F00120154FE900004120154C39E500B122C09
:100E8F005E9000047401020181122C5E9000021228
:100E9F0001546F6048EFF4701C122C64C39E400A1B
:100EAF007405122C5A9000028061122C5E90000A79
:100EBF007401020F94122C5E9000087401122C74AE
:100ECF001201546F90628D600C12044B7401122C3E
:100EDF0071EF020F9412044B900009803DEFF470F4
:100EEF0041122C5E900009120154D394005003025A
:100EFF000F9790000B120154FE90000A120154D369
:100F0F009E40117401122C5A90000C1201549061E2
:100F1F00F5F08054122C5E90000A740112018102C8
:100F2F000F97122C5E122C6BC394FF500890000881
:100F3F007401120181122C64B506089061F47403D8
:100F4F00F08020122C5E900007122C676E70399083
:100F5F0061F47404122C5D90000612015490000885
:100F6F001201C69061F5EFF0122C5EE4122C717431
:100F7F00FF1201C69061F5E09000111201C6906159
:100F8F00F4E09000121201C6122C5E900002EF12D4
:020F9F0001C689
:010FA100222D
:102EF20075AF3F8FAF75AEB975A402E5A530E1FBA2
:012F020022AC
:1029850090620112046B75AF3F8FAF906204E0C394
:1029950094014022E5A530E0FB906201E475F00169
:1029A50012045412013BF5A675AEB975A4019062E7
:0729B50004E014F080D522BC
:102A270090620112046B906204E06027AE070FEE1C
:102A37002400FDE4343F8D82F583E493FE90620128
:102A4700E475F001120454EE1201B4906204E0142C
:042A5700F080D32216
:0508B000426237000068
:073017007B017A627921229E
:102DDE00C3906238E094FF906237E094FF5007E4AE
:072DEE0075F00112023D2205
:102A8E00E49061F8F0A3F0EE30E703D38001C39237
:102A9E0092D291EF25E0FFEE33FEC2919061F8E401
:102AAE0075F00112023D9061F8E07004A3E064102D
:022ABE0070D5D1
:012AC00022F3
:062762009061F412046B0B
:10276800C291C283E49061F7F09061F7E0C39D5095
:10277800249061F412044B9061F7E075F002A4F51F
:102788008285F083120253FFAEF0122A8E9061F711
:0B279800E004F080D4D283C283C29220
:0127A3002213
:102CD700C3906238E09419906237E09400400CE4A6
:0C2CE700F0A3F01230177D0B12276222C0
:101D6A007E007F167D001230171204FD78D2E254ED
:101D7A00F3F2E24404F2907187E4F0E254CFF2E223
:101D8A004410F2A3E4F078C2E2543FF2E24440F293
:101D9A00907181E4F0E254FCF2E24401F290717E27
:101DAA00740AF07856E4F2782774BBF218747FF25A
:101DBA007833E4F218F27819F218E24401F2781151
:101DCA00E24401F27817E24401F27812E24401F2A5
:101DDA007814E24401F2C292C291C2831230177D92
:041DEA000B0227625F
:102C16007E007CBB7D7F1204D0E47B64FAF9F81257
:102C26000331AC06EC7833F218EFF27817E2440180
:012C3600F2AB
:012C3700227A
:0808B5004162930041629400CE
:102E980078E3E254FCF2E24401F2907192E4F0C269
:022EA800A42262
:0F2F1300E4906294F0906293EFF0A37401F022C7
:102C3800906294E06014906293E06006E014F0D231
:102C4800A422C2A4E4906294F022C2A4E490629305
:022C5800F02268
:0B2FF3007379732072657365740A0027
:102EAA0078C3E254FCF2E24401F2907182E4F0C287
:022EBA00842270
:10289D00122EAA122D477BFF7A2F79F31205B21251
:1028AD002E98122166122FCF122FA8122FB5122B90
:1028BD003E12271E121D6A1227A4122A5B7F751263
:0C28CD002F1312300F7F017E0002002745
:1028D90012159E75D95590715EE054FEF075D9BBFD
:1028E90012289D7F32122C1675D9AA121A057B015E
:1028F9007A627939120E0F12180B1213AC121BCA15
:0B290900121FF012127512174480DD3F
:1021660078E0E24440F278E3E254CFF278C0E24409
:1021760040F278C3E254CFF278C0E24480F278C3EA
:10218600E2543FF278D0E24401F278D2E254FCF213
:1021960078D0E24408F278D2E2543FF278D0E244B2
:1021A60010F278D3E254FCF278F0E24401F278F2CD
:1021B600E254FCF278E0E24480F278E3E2543FF243
:1021C60018E2543FF2E254F3F208E254F3F218E252
:0421D60054CFF222CE
:101A0500208607E490627AF0804520870890627A04
:101A15007401F0803A20900890627A7402F0802F69
:101A250020930890627A7403F080242094089062D1
:101A35007A7404F0801920B00890627A7405F080F9
:101A45000E90627A20A7057406F0800374FFF0906B
:101A5500627AE0FF122D0F7F01122E4C20A6047F23
:101A6500018002E4FF122EBC30A5047F018002E450
:101A7500FF122F3130A2047F018002E4FF122F40B4
:101A850030A3047F018002E4FF122ECE30A1047F33
:091A9500018002E4FF122EE022A0
:1008BD00C10A4461BA000000004461BE000000009E
:1008CD004461C2000000004461C6000000004161A7
:1008DD00CA00602861CB000000000000000000008D
:1008ED0000000000000000000000000000000000FB
:1008FD000000000000000000000000000000416149
:0D090D00F300C1094261B600004161B8006D
:102420009061F7E0FF24CBF582E43461F5832290DC
:1024300061F4FEFDFC0203F61203EAEF2401FFE45F
:102440003EFEE43DFDE43CFC22906276E0FFA3E02A
:1024500022E4FDFC1203F6C30203D99F9061F6F05B
:10246000E0FFC3940A221203F602028B120331909A
:0524700061F40204020A
:102E2300E4FE74CB2E122427EFF00EEEB428F3E465
:042E33009061F3F0C7
:012E37002278
:102DC6009061F3E0122425EFF09061F3E004F0E067
:082DD600C394284002E4F0223E
:1018C1009061F812040E00000000E49061FCF0A3A6
:1018D10074FFF0E49061F7F09061F81203F6906103
:1018E100F7E0122425E0FFE4FCFDFE12028B90617B
:1018F100F8120402122420E0FE9061FCE0C39E5025
:101901000B74CB2F122427E09061FCF0122420E00D
:10191100FE9061FDE0D39E400B74CB2F122427E093
:101921009061FDF09061F7E004F0E0642870A99007
:1019310061F81203EAC006C0079061FDE0FF906103
:10194100FCE02FFFE433AB07FA3395E0F9F8D00759
:10195100D0061202989061F8120402E47B26FAF98B
:0A196100F89061F81203EA02033166
:0D2FA80078D3E254F3F278D0E24420F22214
:102914009061C21203EA9061BE1224669061C212F1
:1029240004029061BE12040E000000009061C61201
:1029340003EA9061BA1224669061C612040290619F
:09294400BA12040E00000000228A
:10230B009061B6E475F00112023DC39061B7E094A1
:10231B00149061B6E09400402BE4F0A3F09061BE02
:10232B001224389061BE1204027F587E029061BE67
:10233B00122451400F200A0C9061BE12040E0000B3
:10234B000000D20A30951520090F9061BA1224387B
:0E235B009061BA120402122914D20922C2099A
:012369002251
:1013AC009061F412040E000000009061F812040E1B
:1013BC00000000007FF47E019061C212245150069F
:1013CC00200A030214AB906270E0FFE4FCFDFE9077
:1013DC0061C61203F61202A6E47B107A27F9F81202
:1013EC0002A6E47B7A7A06F9F81203319061F812BE
:1013FC000402300A23E4FF9061C6122432C31203A4
:10140C00D99061F4600912040E00000001802A12C8
:10141C00040E000000008021E47F24FEFDFC90619E
:10142C00F81203F61202A6E47B0AFAF9F812033159
:10143C009061C21203F612246C90627D1203EA9042
:10144C0061F812246690627D1204029061C6120447
:10145C000E000000009061C212040E00000000C2D9
:10146C000AE4FF12242FD31203D94012E47F661230
:10147C00242F1202A6E47B64FAF9F812246CE47FA0
:10148C00C712242FD31203D9400A9061F412040E10
:0F149C00000000C79061F41203EA906276EFF04F
:0114AB00221E
:102C9C0090628BE0600BE064016006E49061CAF026
:0E2CAC00229061CAE0C394FF5003E004F022BE
:1029F2009061F7EFF090626FE070079061F7E0FF8F
:102A0200801F90626FE0B4011B9061F7E0FF7E00CF
:102A12007C027D6D1204D0E47BE87A03F9F812039C
:052A2200311214AC228A
:10112E0090628BE0600BE064016006E49061B8F0C1
:10113E00229061B8E0702004F0906276E0A3F09007
:10114E006276E09061B9F0906277E0FF1229F2903A
:10115E006276E0FF122E239061CAE0C3944B5003D7
:10116E00021274E4F0122449D39F403B1224491218
:10117E00245B5003021203EF943240089061F57421
:10118E0014F08011EFC394149061F54005740AF0C9
:10119E0080037405F0906277E0FF9061F5E0FEC386
:1011AE00EF9E906277803B122449C39F5047E0FF29
:1011BE00906276E0C312245B403BEF94324008907D
:1011CE0061F57414F08011EFC394149061F540052D
:1011DE00740AF080037405F09061F5E0FF90627779
:1011EE00E02FF0906276E0FF122E23906276E09070
:1011FE0061B9F08069906276E0FF122DC61218C1B7
:10120E009061F4EFF0E0C3940A5007E09061B9F0FA
:10121E0080259061B9E075F003A4FDACF09061F407
:10122E00E075F007A42DFFE5F03CFE7C007D0A1270
:10123E0001E89061B9EFF09061B9E09061F4F0E0EF
:10124E00FF906277E0D39F4005E014F0801090612C
:10125E00F4E0FF906277E0C39F5003E004F09062E9
:06126E0077E0FF1229F2F7
:011274002257
:10091A0042626200004262640000C10B41625100FF
:08092A004162520041625300DA
:0D2FC20090625E0203F6E475F00102023D2C
:0D2FB50078C2E254CFF278C0E24404F22268
:1027E40090625A1203EA9062541203F612028B901A
:1027F400625A12040290625412040E000000001285
:102804002FC2906258E0FEA3E0FFE4FCFD12028BAD
:0E28140090625E120402E4906258F0A3F0227B
:10247500906251E004F0E0C394144020E4F09062CF
:1024850058122FC9C3906259E09458906258E0944D
:10249500024009200C06E4F0A3F0D20C3082222081
:1024A5000B1C9062541203EAEF2401FFE43EFEE4A4
:1024B5003DFDE43CFC9062541204021227E4D20B69
:0324C50022C20B25
:0124C80022F1
:101FF000E47FF47E01FDFC122FC2C31203D950030B
:10200000300C6A300C0EC20C9061F412040E000009
:102010000000801CE47FBC7EF7FDFC90625A120336
:10202000F61202A6122FC21203319061F4120402BA
:1020300090625A12040E0000000090625E12040EBC
:1020400000000000E47FFF7EFFFDFC9061F41203BE
:10205000F6C31203D9400A9061F412040E0000FF87
:0D206000FF9061F41203EA90627212040214
:01206D002250
:102B6300C3906263E094FF906262E094FF500312AB
:102B73002FC8C3906265E094FF906264E094FF50B5
:052B830003122FC8221F
:102D6200E47BF47A01F9F89062721203EA120331F9
:082D7200EFD3941840027F1812
:012D7A002236
:101DEE00E49061F4F0906253E0700A04F0122D62F8
:101DFE00906252EFF0122D629061F4EFF090625209
:101E0E00E0FEEFD39E9061F4E040049EFF8008FF59
:101E1E00906252E0C39FFFEFD3940150067E077F7E
:101E2E00D080047E007F32C3906263E09F90626236
:101E3E00E09E402FE4F0A3F09061F4E0FF90625238
:101E4E00E0FE9F5005E004F08011EED39F400CEEB3
:101E5E00D394004006906252E014F0906252E0FF7C
:031E6E00121EF24F
:011E7100224E
:0809320041627B0041627C0080
:102B8800FA90626AF9F81203EA0203311203EAEFD3
:102B98002401FFE43EFEE43DFDE43CFC221203F682
:042BA800C30203D988
:10256F0090626EE06023A3E070067BE87A03800C34
:10257F0090626FE0640170377B4A7A069062661250
:10258F002B8C9061F87401802290626FE0700B7B4E
:10259F0064122B88E49061F8801190626FE0B401AF
:1025AF000EE47BA1122B88E49061F8F01221DA225D
:101BCA00C3906282E09488906281E09413400F305F
:101BDA000D0C122CF3C20DE4906281F0A3F0E47FA5
:101BEA00E87E03FDFC90627D122BA540657F187E7E
:101BFA00C67D9A7C3B906266122BA5500C90626659
:101C0A00122B949062661204027F9C7EE07DF57C22
:101C1A000590626A122BA5500C90626A122B94905E
:101C2A00626A12040290627D1203EAC3EF94E8FF2B
:101C3A00EE9403FEED9400FDEC9400FC90627D129C
:021C4A00040292
:101C4C0090627BE004F0E0C394644004E4F0D20DB5
:011C5C002265
:102AEC0090627CE0700D04F090626FE0FF122DADEF
:102AFC0012256FC3906284E094E8906283E09403A3
:092B0C004007E4F0A3F012256F6C
:012B1500229D
:102B1600637565206675656C20766F6C203D3D207B
:102B260025750A00637572206675656C206C65767E
:082B3600203D3D2025750A0039
:10093A004261600000426162000060286164000058
:10094A00000000000000000000000000000000009D
:10095A00000000000000000000000000000000008D
:10096A0000000000000041618C0041615D006028C8
:10097A00618D00000000000000000000000000007F
:10098A00000000000000000000000000000000005D
:10099A00000000000000000000004161B500416154
:0609AA005E0041615F00E8
:1026DA0025E02464F582E43461F583EEF0A3EFF09B
:1026EA002225E0248DF582E4346122F583E0FEA3FD
:1026FA00E0FFE4FCFD02028B9061F4E0FEA3E0FF40
:10270A0022E47B14FAF9F80203EA9061F6E0FF90FA
:04271A00615FE022F9
:0B2FDC00E4FDED1226DA0DEDB414F751
:012FE70022C7
:102C7B0090615DE0700504F0022FDC90618CE01236
:102C8B0026DA90618CE004F0E0C394144002E4F087
:012C9B002216
:102822009061F912040E00000000E49061F8F0904B
:1028320061F91203F69061F8E025E02464F582E480
:1028420034611226F59061F91204029061F8E004F5
:0E285200F0E0B414DA9061F912270B020331A2
:102DF500C3906161E094FF906160E094FF5007E447
:072E050075F00112023D22ED
:102E0C00C3906163E094FF906162E094FF5007E42B
:072E1C0075F00112023D22D6
:0E2F2200E4FDED1226EB1226E30DEDB414F4DF
:012F3000227E
:102D7B009061B5E01226EB1226E39061B5E004F00A
:092D8B00E0C394144002E4F022BC
:10294D009061F912040E00000000E49061F8F0901F
:10295D0061F91203F69061F8E01226EB1226F5905C
:10296D0061F91204029061F8E004F0E0B414E09013
:08297D0061F912270B0203317E
:1024C900E4FDC3EF94AAEE940540028043C3EF9460
:1024D900DDEE940440047D018036C3EF9410EE9440
:1024E9000440047D028029C3EF9443EE9403400421
:1024F9007D03801CC3EF9476EE940240047D048032
:102509000FC3EF94A9EE940140047D0580027D0676
:02251900AF050C
:01251B00229D
:10127500E49061F6F0A3F0C3906161E094C89061D9
:1012850060E094005003021392E4F0A3F0122822C8
:101295007C077DD01204D0E4FB7A10F9F8120331F3
:1012A5009061F4EEF0A3EFF090615EE0702704F03A
:1012B500122702122F221227021224C9A3EFF0903F
:1012C500615FF0700B906279E070101213A1800BD2
:1012D5001213938006122702122D7B12294D122418
:1012E500C99061F6EFF090615FE0FE6F6018906164
:1012F500F6E0FFD39E4006EF9EA3F0800912271467
:10130500C39F9061F7F012294D9061FBEEF0A3EFBA
:10131500F07BFF7A2B79161205B27BFF7A2B792A9F
:101325009061F6E0FF9061FBE4F0A3EFF01205B2E7
:101335009061F7E0FFC39402400E906163E09488EA
:10134500906162E094134045EFB4010FC39061636F
:10135500E09420906162E0944E4032E4906162F046
:10136500A3F0122714FEC39F5005E004F0800BEE96
:10137500D39F400690615FE014F090615FE0700AD2
:0D138500906279E070071213A122121393F9
:1013920022E4906279F090615FE0FF1220EA22FF7E
:0A13A2001220EA9062797401F02233
:1009B000556266000000000000000000000000001A
:0809C00000000000000000002F
:10271E007B017A6179F4906204740CF0E4FF122A62
:10272E00279061FFE0B4C51378667C627D017B0162
:10273E007A6179F47E007F0C02011590626E74014D
:10274E00F090627174C5F0E490626FF0A37469F05A
:03275E00122CF347
:012761002255
:102CF30090627174C5F0E4FF122EF27B017A62795F
:0C2D030066906204740CF0E4FF02298565
:1009C8004A602D3F065B4F666D7D077F6F45602847
:1009D80000000000004260370000604260390A05EC
:1009E8000A02090209040907090A09090802080490
:1009F800080708060809080A080C080D060A060967
:100A0800060D060F000500030002010D010C01038D
:100A18000102010102040207020602080209020A91
:100A28006030607B0A070A060A040A030A010A0002
:100A3800090009030905090B090808010803080545
:100A48000808080B080E060406050606060C060E1E
:100A5800000600045A60AB050907060707070809DE
:100A680001090C090D0800080F0607060200070116
:100A78000B4E60C502020203020C020E020F0200B6
:100A88000201602A60D30000090E090F000000006F
:100A9800000000000603070F070C0709070B070EE5
:100AA800070D0601070307040705070107000702EA
:100AB800605460FD05020503050E050C050D0504CF
:100AC800050F040C040B05050507050605010500BF
:100AD800040F040E040604080409040D040A0400A3
:100AE800040104040407040504020403030F030EAD
:100AF800030C0309030A030D030B03000302030598
:100B080003070306030103034C61510A0F0A0E0A87
:100B18000C0A0B0A0A0A0942600000004160020040
:100B28004160030042600400004160060041600724
:100B380000416008324160090041600A0041600BD1
:100B48000041600C0041600D1E41600E0042600FC4
:100B580000004160110041601200426013001E4213
:100B6800601500004160170042601800C842601A12
:100B7800000041601C0042601D001E42601F000012
:100B880041602100426022005A4260240000416016
:060B980026004160270069
:100FA200E0FE75F00EA424D3F582E43460F583EFFD
:100FB20075F00212043FE025E02421F582E4346258
:100FC200F58322E0FCA3E0FDEF25E024C6F582E4F0
:100FD2003460F583E0FF7E007401A8070822E0FC7C
:100FE200A3E0FDEF75F00EA424D4F582E43460F59D
:100FF2008322F4FFEEF45CFEED5FFF22E475F00164
:1010020002023D906008E0FDA4FBAAF0ED75F0122B
:10101200A4C39BFFE5F09AFEC390602BE09F906013
:101022002AE09E22FFEC4EFEED4FFF22E0FF75F01C
:101032000EA424D3F582E43460F58322E0FCA3E01D
:10104200FDEE22E0FCA3E0FDEF25E022E014FFA389
:10105200E0FED39F2275F00202043FEFF0742D2DC3
:10106200F582E43460F583E0229061F5E0FF25E04B
:1010720024C5F582E43460F58322C3906001E094D4
:1010820096906000E0940022C3906005E0942C905A
:101092006004E0940122E04401F0A3E0F02275F044
:1010A2000EA424FEF582E43460F58322E0FFA3E07F
:1010B200A3CFF0A3EFF07F0122E0FEA3E0FFC32263
:1010C20025E02439F582E43460F58322EEF0A3EFC3
:1010D200F0906296E004F02225E0247BF582E4346D
:1010E20060F58322EEF0A3EFF09061F6E004F022C7
:1010F20025E024ABF582E43460F58322EEF0A3EF21
:10110200F0906298E004F02275F00EA424FDF582BE
:10111200E434602225E02451F582E43461F583222F
:0C112200EEF0A3EFF09061F9E004F02281
:0F2F3100EF90622D600412109822E054FEF022FF
:0F2F4000906224E054FEF0EF6004E04401F022C0
:102EBC0090622DE054F7F0EF6007E04408F0A3E0D7
:022ECC00F022F2
:102ECE00906221E054EFF0EF6007E04410F0A3E0D1
:022EDE00F022E0
:102EE000906223E054BFF0EF6007E04440F0A3E0BD
:022EF000F022CE
:051E7200906295EFF005
:101E7700E4A3F0F0906296E0FF1210C2120FB8C010
:101E870083C082121045243AF582E43460120FD4DD
:101E97008005C333CE33CED8F9120FF4D082D08366
:101EA7001210CEE0B421CD906295E0D39400403A71
:101EB700E4A3F090629512104E502FEE1210C2124A
:101EC7000FB8C083C08212103E25E0243AF582E4A1
:101ED7003460120FD48005C333CE33CED8F9121035
:0A1EE70026D082D0831210CE80C9ED
:011EF10022CE
:051EF2009061F5EFF026
:101EF700E4A3F09061F6E0FF1210DA120FB8C08386
:101F0700C082121045247CF582E43460120FD4801D
:101F170005C333CE33CED8F9120FF4D082D0831253
:101F270010E6E0B418CD9061F5E0D39400403AE4B0
:101F3700A3F09061F512104E502FEE1210DA120F27
:101F4700B8C083C08212103E25E0247CF582E434B9
:101F570060120FD48005C333CE33CED8F9121026C2
:091F6700D082D0831210E680C97B
:011F7000224E
:102AC100AD07906224E054DFF0E054BFF090622340
:102AD100E054FBF0ED6013A3E04420F0E04440F04B
:0B2AE100906223E04404F0A3E0F02228
:051F7100906297EFF003
:101F7600E4A3F0906298E0FF1210F2120FB8C0834B
:101F8600C08212104524ACF582E43460120FD4806E
:101F960005C333CE33CED8F9120FF4D082D08312D4
:101FA60010FEE0B40DCD906297E0D39400403AE481
:101FB600A3F090629712104E502FEE1210F2120FED
:101FC600B8C083C08212103E25E024ACF582E4340A
:101FD60060120FD48005C333CE33CED8F912102643
:091FE600D082D0831210FE80C9E4
:011FEF0022CF
:102E4C00EF9062256008E04408F0A3E0F022E05423
:032E5C00F7F0226A
:0F2F4F00906226E054DFF0EF6004E04420F022AF
:051A9E009061F4EFF07F
:101AA300E4A3F012106B120FB8C083C082120FC5EB
:101AB3008005C333CE33CED8F9120FF4D082D0834E
:101AC300EEF0A3EFF09061F5E004F0E0B407D490FA
:101AD30061F4E0FFD394004059742D2F12106290EB
:101AE30061F6F0E49061F5F09061F5E0FFD39407BF
:101AF3005040120FD88005C333CE33CED8F9FF90B0
:101B030061F6E0FDEF5D602212106B120FB8C08327
:101B1300C082120FC58005C333CE33CED8F912105D
:101B230026D082D083EEF0A3EFF09061F5E004F0CD
:021B330080B67A
:011B3500228D
:102D0F00AB07E4FF122F4F121A9EEBF4600DEB701E
:0C2D1F00057F01022F4FAF03121A9E2205
:101B36009061FFEBF09061FDEFF0A3EDF0EF121076
:101B460030ED120FB2C083C082E0FAA3E0FB9061D1
:101B5600FDE0120FE675F002ED12043F120FD6807B
:101B660005C333CE33CED8F9F4FFEEF45AFEEB5F5D
:101B7600FFD082D083EEF0A3EFF09061FFE06043E8
:101B86009061FD12102EC083C0829061FEE0D0826B
:101B9600D083120FB2C083C082120FE0C083C0820E
:101BA6009061FEE0D082D083121057120FD68005C6
:101BB600C333CE33CED8F9121026D082D083EEF0BE
:041BC600A3EFF02277
:03206E009061FD81
:1020710012105D9061FFF0E49061FEF09061FEE06E
:10208100FFC394075062120FD88005C333CE33CEFD
:10209100D8F9FF9061FFE0FDEF5D60439061FD12B3
:1020A100102EC083C0829061FEE0D082D083120FD7
:1020B100B2C083C082120FE0C083C0829061FEE093
:1020C100D082D083121057120FD68005C333CE337E
:1020D100CED8F9121026D082D083EEF0A3EFF09083
:0820E10061FEE004F002207D25
:0120E90022D4
:05251C009061F4EFF0F6
:10252100E4A3F09061F5E0FFC3940750409061F49B
:10253100120FA2C083C08212103E120FE6C083C0E8
:10254100829061F5E0D082D083121057120FD680AD
:1025510005C333CE33CED8F9120FF4D082D083EE37
:0D256100F0A3EFF09061F5E004F0022524F6
:01256E00224A
:0514AC009061F8EFF073
:1014B100E49061FBF0A3F0FB7D01FF121B36E4FB1E
:1014C1007D02FF121B369061F97401F0E49061FA1C
:1014D100F09061FAE0FFC3940750409061F9120F58
:1014E100A2C083C08212103E120FE6C083C0829058
:1014F10061FAE0D082D083121057120FD68005C353
:1015010033CE33CED8F9120FF4D082D083EEF0A3CC
:10151100EFF09061FAE004F00214D29061F9E00476
:10152100F0E0640370A69061F8E09061FCF09061D6
:10153100FBE004F0A3E075F00A84F070F19061F82B
:10154100E0C3946440127B017D01E4FF121B367BF2
:10155100017D02E4FF121B369061F97401F0906184
:10156100F9E0FFC3940350349061FBE0B40105EF4F
:10157100640260209061F9E0FFC374039FFF9061F2
:10158100F8E075F00A84ADF012206E9061F8E07514
:0C159100F00A84F09061F9E004F080C2E0
:01159D00222B
:102BAC00EF700F90622BE054FBF0ED6016E04404E4
:102BBC00800D90622BE054F7F0ED6007E04408F0D4
:042BCC00A3E0F02270
:102D9400EF700AFD7F01122BAC0D1F8008E4FDFFCC
:092DA400122BAC0D0F122BAC2216
:102BD000EF700F906228E054EFF0ED6016E04410C3
:102BE000F022906225E054DFF0ED6007E04420F031
:042BF000A3E0F0224C
:102DAD00EF700AFD7F01122BD00D1F8008E4FDFF8F
:092DBD00122BD00D0F122BD022B5
:03167A009061FA82
:10167D0012105D9061FCF0E49061FBF09061FBE075
:10168D00FFC3940740030217439061FAE0FE121165
:10169D000A120FAFC083C08212103E1210A0C08379
:1016AD00C0829061FBE0FBD082D083121057120FE5
:1016BD00D68005C333CE33CED8F9120FF4D082D0F5
:1016CD0083EEF0A3EFF07E007401A803088005C33C
:1016DD0033CE33CED8F9FF9061FCE0FDEF5D604D68
:1016ED009061FAE0FF12110AF583C083C082906108
:1016FD00FBE0D082D083120FB2C083C082E0FCA386
:10170D00E0FDEF1210A0C083C0829061FBE0D0829B
:10171D00D083121057120FD68005C333CE33CED8D7
:10172D00F9121026D082D083EEF0A3EFF09061FB7A
:06173D00E004F002168931
:011743002283
:102E5F00EF9062236008E04402F0A3E0F022E05418
:032E6F00FDF02251
:0F2F5E00EF906223600412109822E054FEF022DC
:0F2F6D00EF906227600412109822E054FEF022C9
:0621DA009061F412040202
:1021E000E49061F9F09061F9E0FFC39406503CC3BC
:1021F00074059FFFC007E47B0AFAF9F89061F412B6
:1022000003EA120331AF03AD07D00712167A9061CB
:10221000F41203EAE47B0AFAF9F81203319061F44C
:102220001204029061F9E004F080BA9061F8E06075
:10223000087F01122E5F1F8006E4FF122E5F0F122F
:052240002F5E122F6D5E
:012245002276
:102E7200EF9062356008E04420F0A3E0F022E054D5
:032E8200DFF0225C
:102F0300EF9062346005E04440F022E054BFF022C9
:0F2F7C00EF906235600412109822E054FEF022AC
:0520EA009061F8EFF029
:1020EF00E4A3F09061F9E0FF121116120FB8C0834C
:1020FF00C0821210452452F582E43461120FD4804D
:10210F0005C333CE33CED8F9120FF4D082D0831259
:10211F001122E0B406CD9061F8E0603AE4A3F090AC
:10212F0061F812104E502FEE121116120FB8C08315
:10213F00C08212103E25E02452F582E43461120F62
:10214F00D48005C333CE33CED8F9121026D082D027
:06215F008312112280C969
:012165002257
:10224600906000120FFE906002E0FF702212107C78
:102256004052E4F0A3F0906003E004F0E0940C40F8
:10226600439060027401F0E4906000F0A3F022EF66
:10227600B40115C3906001E094C81210834025E4B0
:10228600F0A3F0A37402F022906002E0B4021512EB
:10229600107C4010E4F0A3F0906003E0D39400407B
:0422A60003E014F04D
:0122AA002211
:10236A00906004120FFE906006E0FF701C12108A43
:10237A00404CE4F0A3F0906007E094055004E004B8
:10238A00F0229060067401F022EFB40115C3906048
:10239A0005E094901210914025E4F0A3F0A3740292
:1023AA00F022906006E0B4021512108A4010E4F0A0
:0E23BA00A3F0906007E0D394004003E014F01D
:0123C80022F2
:102E3800906028E0B4010C90602A120FFE9060297F
:042E48007401F022FF
:101C5D0090602CE0706375F00212100540079060E3
:101C6D002C7401F02275F0031210054008121CC7E8
:101C7D007F02021B3690600CE0700804F090600843
:101C8D00E0A3F0906009E004F0906008E0FFA3E0AD
:101C9D00C39F4025E4F0121CC77F02121B369060D3
:101CAD000AE07F01121CDB7F02121CDBA3F09060A7
:091CBD000A04F0E0B40602E4F0B0
:101CC6002290600BE0FDE4FB7F01121B3690600B57
:101CD600E0FDE4FB22FD7B01121B3690600AE02248
:1023C90090602CE06401704E90600DE0FD75F02284
:1023D900A4FF90600FE0FAA3E0FBC39FEA95F040E9
:1023E9000690602C7402F0906011E0700704F09080
:1023F900600EEBF090600EE004F0A3120FFE906007
:102409000EE0C39D4010E4F0906012E0FF121E72CE
:06241900906012E004F0E7
:01241F00229A
:100BBD0090602CE064026003020E0E906026E0C38C
:100BCD00940C400790602C7403F022906027E07025
:100BDD001404F09060131210AE122F0390601812CF
:100BED0010AE121F71906015120FFE90601312104F
:100BFD00BB906016E09F906015E09E4032906017AC
:100C0D00E0FFD394065028E4906015F0A3F0122075
:100C1D00EA906017E0B403057F01122E7290601701
:100C2D00E0B406057F01122F7C906017E004F09070
:100C3D00601A120FFE9060181210BB90601BE09F9F
:100C4D0090601AE09E404990601CE0FFD3940450E0
:100C5D003FE490601AF0A3F0EF14601414601814C0
:100C6D00601C146020240470217F01122F31801A22
:100C7D007F01122EBC80137F01122ECE800C7F01BE
:100C8D00122EE080057F01122F4090601CE004F0D1
:100C9D0090601F120FFE90601D1210BB906020E03F
:100CAD009F90601FE09E407A906021E0FFD39418E2
:100CBD005070E490601FF0A3F0121EF2906021E0DE
:100CCD001204A40CF8020CFC040D00060D04080D12
:100CDD00080A0D0C0C0D100E0D14100D18120D1C14
:100CED00140D20160D241800000D297F02802A7F77
:100CFD000380267F0480227F05801E7F06801A7F59
:100D0D000780167F0880127F09800E7F0A800A7F78
:100D1D000B80067F0C80027F0D121F71906021E009
:100D2D0004F0906024120FFE9060221210BB9060B0
:100D3D0025E09F906024E09E5003020E0E906026E9
:100D4D00E0FFD3940B4003020E0EE4906024F0A359
:100D5D00F0EF1204A40D8A000D90010D96020D9F67
:100D6D00030DAF040DBD050DC3060DD4070DDA0837
:100D7D000DE8090DF10A0DFE0B00000E087D01E4D2
:100D8D00FF800A7D087F0180047D087F0212206E9E
:100D9D0080697D01E4FF122BAC0F122BAC122F4F8B
:100DAD0080597D08E4FF12167A7F01122E5F804B69
:100DBD007D087F0180297D087F0212167A7F01123E
:100DCD002F5E122AC180347D087F0380127D087F3B
:100DDD000412167A7F01122F6D80207D087F051277
:100DED00167A80177D01E4FF122BD00F122BD080C5
:100DFD000A7F08121A9E7F01122E4C906026E00485
:010E0D00F0F4
:010E0E0022C1
:102608009060287401F0906028E0603B75D9AAA317
:10261800E060F3E4F0121C5D1223C9120BBD906058
:102628002CE0B4031DE4906028F07F21121E727F15
:102638000D121F717F01122AC1122F03122F7C1253
:082648002E4C122CD780BF229A
:102E8500C3906038E094FF906037E094FF500312E0
:032E95000FFE220B
:1029BC00C3906038E094DB906037E094014026E4EB
:1029CC00F0A3F0906279E0601C906225E0C41313D0
:1029DC0013540130E005E0547FF022906225E0446E
:0629EC0080F0A3E0F022E0
:100B9E005362390A000000000332410000000000D9
:0E0BAE0002FF2FFE000045624C01010203040D
:0F2F8B00EC75F005A4244CF582E43462F5832242
:0D2FCF0078C0E24420F278C3E254F3F2220D
:092FFE002085037F01227FFF22E0
:10265000E4FEFCFBEDB401030B8016EDB403047B38
:1026600002800EEDB404047B038006EDB405027B0A
:1026700004ECC39401501B122F8BE0B50711122FED
:102680008BE5822BF582E43583F583E0FE80030C35
:0426900080DFAF0632
:012694002223
:10180B0090624AE070030218C0E0FFA3E0FD1226CD
:10181B0050E490624AF0A3F0EF24FE60580460039A
:10182B000218C07F75122F1390628BE070169062B6
:10183B006EE070047F0180027F0090626EEFF01209
:10184B002CF3806E90628BE0B4011190626FE070AC
:10185B000404F0805DE490626FF0805690628BE040
:10186B00B40210906270E02405F0E0D394B44042CF
:10187B007432F0803D7F75122F1390628BE0701ADB
:10188B0090626EE0B401077F0112301E80249062DB
:10189B006A12040E00000000801590628BE0B40108
:1018AB00057402F0800990628BE0B40205E4F0123B
:0518BB002CF31228606F
:0118C0002205
:102D2B00E4906285F0A3F0906289F0A3F022C39047
:0C2D3B006286E09490906285E094012292
:08300F00E490628BF0022860DE
:10269500122DDE122C9C122B6390628BE06401607C
:1026A50004E0B4022CC3906286E094FF906285E05A
:1026B50094FF5007E475F00112023DC390628AE071
:1026C50094FF906289E094FF500AE475F0010202DC
:0526D5003D122D2B2237
:06301E0090628BEFF0222E
:1017440090628BE024FE60690460030217E2122DAC
:101754003950030217E2E4F0A3F090626FE07022C4
:1017640090622BE01313543F30E00AE4FDFF122B88
:10177400ACE4FD800A7D01E4FF122BAC7D01E4FFA3
:10178400802A90626FE06401705490622BE013131E
:1017940013541F30E00BE4FD7F01122BACE4FD80F9
:1017A400097D017F01122BAC7D017F01122BD080BA
:1017B4002D122D394028E4F0A3F090622DE013A3FC
:1017C400E01330E011E4FF12251C7F0112251C7F79
:1017D4000212251C8008906270E0FF1214ACC390C2
:1017E400628AE09480906289E09425400EE4F0A33C
:1017F400F0FF12301E122860122CF312112E122A3E
:07180400EC121DEE022CD7CF
:10286000122D2B90628BE024FE600E2402701290D9
:102870006277E0FF1229F28008906270E0FF121484
:10288000AC12256F90626FE07008FF122D94E4FF88
:0D28900080077F01122D947F01122DAD22D3
:101985000228D9E493A3F8E493A34003F68001F277
:1019950008DFF48029E493A3F85407240CC8C33363
:1019A500C4540F4420C8834004F456800146F6DF32
:1019B500E4800B01020408102040809008ACE47E0E
:1019C500019360BCA3FF543F30E509541FFEE49327
:1019D500A360010ECF54C025E060A840B8E493A3EE
:1019E500FAE493A3F8E493A3C8C582C8CAC583CA19
:1019F500F0A3C8C582C8CAC583CADFE9DEE780BED1
:010BBC000038
:10004500E709F608DFFA8046E709F208DFFA803E9D
:1000550088828C83E709F0A3DFFA8032E309F6088A
:10006500DFFA8078E309F208DFFA807088828C83F2
:10007500E309F0A3DFFA806489828A83E0A3F608A6
:10008500DFFA805889828A83E0A3F208DFFA804C80
:1000950080D280FA80C680D4806980F28033801057
:1000A50080A680EA809A80A880DA80E280CA8033C0
:1000B50089828A83ECFAE493A3C8C582C8CCC58338
:1000C500CCF0A3C8C582C8CCC583CCDFE9DEE78008
:1000D5000D89828A83E493A3F608DFF9ECFAA9F087
:1000E500EDFB2289828A83ECFAE0A3C8C582C8CCDD
:1000F500C583CCF0A3C8C582C8CCC583CCDFEADEF6
:10010500E880DB89828A83E493A3F208DFF980CC57
:1001150088F0EF60010E4E60C388F0ED2402B40450
:100125000050B9F582EB2402B4040050AF232345F7
:0601350082239000957387
:10013B00BB010689828A83E0225002E722BBFE02C2
:09014B00E32289828A83E49322F5
:10015400BB010CE58229F582E5833AF583E0225060
:1001640006E92582F8E622BBFE06E92582F8E222AA
:0D017400E58229F582E5833AF583E49322C4
:10018100BB010FF8E58229F582E5833AF583E02882
:10019100F0225009C58229F8E58226F622BBFE0924
:1001A100C58229F8E22582F222F8EA2583F583E95E
:0301B1009328226E
:1001B400BB010689828A83F0225002F722BBFE012A
:0201C400F32224
:1001C600F8BB010DE58229F582E5833AF583E8F06F
:1001D600225006E92582C8F622BBFE05E92582C81B
:0201E600F22203
:1001E800BC000BBE0029EF8DF084FFADF022E4CCFB
:1001F800F875F008EF2FFFEE33FEEC33FCEE9DECC4
:10020800984005FCEE9DFE0FD5F0E9E4CEFD22ED09
:10021800F8F5F0EE8420D21CFEADF075F008EF2F53
:10022800FFED33FD4007985006D5F0F222C398FD44
:050238000FD5F0EA22E1
:10023D00C5F0F8A3E028F0C5F0F8E582158270024C
:06024D001583E038F022E9
:10025300BB0110E58229F582E5833AF583E0F5F0E9
:10026300A3E0225009E92582F886F008E622BBFEC6
:100273000AE92582F8E2F5F008E222E5832AF5830C
:08028300E993F5F0A3E99322D1
:0D028B00EF2BFFEE3AFEED39FDEC38FC22C2
:0E029800C3EF9BFFEE9AFEED99FDEC98FC2261
:1002A600E88FF0A4CC8BF0A42CFCE98EF0A42CFCF7
:1002B6008AF0EDA42CFCEA8EF0A4CDA8F08BF0A475
:1002C6002DCC3825F0FDE98FF0A42CCD35F0FCEBD4
:1002D6008EF0A4FEA9F0EB8FF0A4CFC5F02ECD3999
:0F02E600FEE43CFCEAA42DCE35F0FDE43CFC2206
:1002F50075F008758200EF2FFFEE33FECD33CDCCC0
:1003050033CCC58233C5829BED9AEC99E582984042
:100315000CF582EE9BFEED9AFDEC99FC0FD5F0D61F
:10032500E4CEFBE4CDFAE4CCF9A88222B800C1B949
:100335000059BA002DEC8BF084CFCECDFCE5F0CB87
:10034500F97818EF2FFFEE33FEED33FDEC33FCEBC0
:1003550033FB10D703994004EB99FB0FD8E5E4F97B
:10036500FA227818EF2FFFEE33FEED33FDEC33FC68
:10037500C933C910D7059BE99A4007EC9BFCE99A5C
:10038500F90FD8E0E4C9FAE4CCFB2275F010EF2FA1
:10039500FFEE33FEED33FDCC33CCC833C810D707A1
:1003A5009BEC9AE899400AED9BFDEC9AFCE899F8DC
:0E03B5000FD5F0DAE4CDFBE4CCFAE4C8F9226F
:1003C300EB9FF5F0EA9E42F0E99D42F0EC6480C8B1
:0603D30064809845F02251
:1003D900EB9FF5F0EA9E42F0E99D42F0E89C45F07A
:0103E90022F1
:0C03EA00E0FCA3E0FDA3E0FEA3E0FF2286
:0C03F600E0F8A3E0F9A3E0FAA3E0FB228A
:0C040200ECF0A3EDF0A3EEF0A3EFF0226D
:10040E00A8828583F0D083D082120425120425128F
:10041E000425120425E473E493A3C583C5F0C583B4
:10042E00C8C582C8F0A3C583C5F0C583C8C582C838
:01043E00229B
:0C043F00A42582F582E5F03583F58322C8
:09044B00E0FBA3E0FAA3E0F922B2
:10045400F8E0FBA3A3E0F925F0F0E5821582700231
:070464001583E0FA38F022D5
:09046B00EBF0A3EAF0A3E9F02292
:10047400BB010DE58229F582E5833AF58302044B3D
:100484005007E92582F8020529BBFE07E92582F811
:10049400020532E58229F582E5833AF58302053BBC
:1004A400D083D082F8E4937012740193700DA3A3E7
:1004B40093F8740193F5828883E4737402936860FB
:0604C400EFA3A3A380DFFB
:0604CA008A838982E473BD
:1004D000EC8EF0A4CCC5F0CCCDF8EFA4CEC5F02DB9
:1004E000FDE43CFCE8A42EC8C5F03DFDE43CFCEF77
:0D04F000A4FFE5F028FEE43DFDE43CFC2205
:10054700E50824FBF582E43461F583E00508229091
:1005570061F83007039061FBE475F001120454025F
:10056700013B2000E97F2ED2008018EF540F249022
:10057700D43440D4FF30040BEF24BFB41A00500327
:100587002461FFE50960021509050CE50C700205F9
:100597000B30070E9061F8E475F001120454EF0276
:1005A70001B4022F9A7403D2078003E4C207F50847
:1005B7009061F812046BE4F509F50BF50CE5096099
:1005C700077F2012058A80F5750AFFC201C200C2A3
:1005D70002C203C205C206C208120556FF700D30DB
:1005E70007057F0012059BAF0CAE0B22B4255FC237
:1005F700D5C204120556FF24D0B40A00501A75F06C
:100607000A780930D50508B6FF0106C6A426F620E4
:10061700D5047002D20380D924CFB41A00EF500456
:10062700C2E5D20402079CD20180C6D20080C0D2A4
:100637000280BCD2D580BAD20580B47F2012058A49
:100647002002077401B5090040F1120547FF1205A2
:100657008A0205C4D208D2068095120547FB120507
:1006670047FA120547F94A4B7006796D7A087BFFFE
:1006770020022EE509602A7E008E82758300120112
:100687005460060EEE650A70F0C2D5EBC0E0EAC012
:10069700E0E9C0E0EE1207E3D0E0F9D0E0FAD0E0FD
:1006A700FB12013BFF60AAEBC0E0EAC0E0E9C0E053
:1006B70012058AD0E02401F9D0E03400FAD0E0FB3B
:1006C700E50A0460DCD50AD980877BFF7A0779DFE2
:1006D700D202809C791080027908C206C20880087D
:1006E700D2D5790A8004790AC2D5E50A047002F5E1
:1006F7000AE4FAFDFEFF120547FC7B0820011312EE
:100707000547FD7B1030000A120547FE120547FF1B
:100717007B20EC3382D592D55013C3E43000069F7B
:10072700FFE49EFEE42001039DFDE49CFCE4CBF87E
:10073700C201EC700CCFCECDCCE824F8F870F38072
:1007470017C3EF33FFEE33FEED33FDEC33FCEB3332
:10075700FB994002FB0FD8E9EB300105F8D0E0C464
:1007670048B201C0E00AEC4D4E4F78207B0070C2C2
:10077700EAB50A0040BCC0E01207E5D0F0D0E0209F
:100787000104C4C0E0C4B201C0F0120573D0F0D5B3
:10079700F0EB0205C41204A406615306DB580632C7
:1007A7004C062E4206DF4F06E74406E74906474355
:0807B70006ED5506D14606D1FE
:1007BF004506D147088D5006362D063A2E065D2B7D
:1007CF00063E23065B2008762A05F64800000655EC
:1007DF003F3F3F00790AA2D5200314300509B91015
:1007EF00020404B9080104A2D52006025001042016
:1007FF0002689202B509005034C0E07F203003191F
:10080F007F30A20272067205500F12083CC202C25C
:10081F0006C205C2087F30800F300503E9C0E01221
:10082F00058A300503D0E0F9D0E0B509CC300517C3
:10083F007F30B9100C12058A7F583004077F7880FB
:10084F0003B9080312058A3002057F2D02058A7F3E
:10085F00202008F87F2B2006F322920280CF286EEB
:10086F00756C6C2900D2011205473001F8C201786E
:10087F000930D50108F60205F62D504349581205E7
:10088F00472403B405004001E49008889312057BC8
:0D089F00743A12057BD2037509040206DBD2
:1004FD00EF4E6012EF60010EEDBB010B89828A8316
:10050D00F0A3DFFCDEFA2289F05007F709DFFCA922
:0C051D00F022BBFEFCF309DFFCA9F02279
:09052900E6FB08E6FA08E6F922F7
:09053200E2FB08E2FA08E2F922FA
:0C053B00E493FB740193FA740293F9221C
:00000001FF
