:03000000021219D0
:10121900787FE4F6D8FD9060007F007E07E4F0A3B4
:0A122900DFFCDEFA75812002126E70
:0C000300000000000000000000000000F1
:0B227700EF1FAC0670011E4C70F62239
:10002700AB07AA06EB1BAE0270011A4E600C7FAA43
:0B0037007E0512227775D9AA80EA220C
:100D6D00907120E04480F07F057E00122277E4FF31
:100D7D00FE12002775A75575AC5C9071327450F05A
:100D8D009071307403F0907136742FF090715C7423
:100D9D0003F090715BE054FCF07F18EF2466FDE4E6
:100DAD0034718D82F583E4F00FEFB433EE90401182
:100DBD00E4935407FF90711CE054F84FF0904017E6
:100DCD00E493547FFF90711DE054804FF0904010DC
:100DDD00E493FF5401C43333335480FE907123E008
:100DED00547F4EF0EFC313543F4440FFA3E05480B3
:100DFD004FF0904012E493FF540FFE907146E05473
:100E0D00F04EF0EFC4540FFF90714FE054F04FF0DF
:100E1D00904013E493543FFF907140E054C04FF065
:100E2D00904014E493907126F0904015E4939071E6
:0B0E3D0028F0904016E49390712AF01A
:010E48002287
:101C4100E5B154CF42B153A8BFD2AF75D102789C50
:101C5100E254E3F2E2441CF2E254FCF2E24401F207
:101C610008E2547FF2E24420F278A17401F2187480
:101C710076F2789CE2541FF2E244C0F243A840227B
:0300210002133C8B
:10133C00C0E0C0F0C083C082C0D075D000C000C077
:10134C0001C002C003C004C005C006C007789DE2FE
:10135C0030E747E24480F29061E0E0FEA3E0FFE476
:10136C00FCFD7BFF7AFFF9F8D31202CD400A9061A5
:10137C00E0E475F001120147906174E0C394FF50F2
:10138C0003E004F01221111221289061E2E475F0BF
:10139C00011201471220FA1221C9D007D006D0053C
:1013AC00D004D003D002D001D000D0D0D082D083D2
:0513BC00D0F0D0E0328A
:101E5000E5B254FC42B253A9FED2AF75D1049071E1
:101E6000057409F0907104745FF0907101E0547F83
:101E7000F0E04420F0907100E0E4F0E044C1F04371
:031E8000A9012293
:030024000220B205
:1020B200C0E0C083C082907101E030E704E0448058
:0820C200F0D082D083D0E0329F
:0404510041621B00E9
:10215600907123E054D8F0E04459F0227869E244C3
:0621660001F290621B2251
:101F090078C3E24403F218E2440CF2786AE24479B5
:101F1900F27591FF9071227407F0439E70439940C6
:061F290043AA04D2AF221E
:101F96005399E0EF24FE600B04700E12215643990C
:101FA6000480061221564399017869E24448F222D8
:101D390090621BE014601914601D1460261460047D
:101D4900240470257F01121F9690621B7401F022F2
:101D59001221627402F0227F02121F9690621B7494
:0A1D690003F0221221627404F0223C
:030042000213C1E5
:1013C100C0E0C0F0C083C082C0D075D000C000C0F2
:0D13D10001C002C003C004C005C006C00773
:1013DE00786BE230E142E24402F2AF93EF75F01027
:1013EE00A4FFE594C4540FFDEF4DFF9061D8E5F0D6
:1013FE00F0A3EFF090621BE024FC60112402701841
:10140E009061D8E0FEA3E0FF121EB6800B9061D86B
:08141E00E0FEA3E0FF121F75C0
:10142600D007D006D005D004D003D002D001D0001A
:0B143600D0D0D082D083D0F0D0E032C4
:101F5400906228F090621202035590000612005E0F
:101F6400FE90000802005E9000091200D090000C60
:011F7400224A
:1006A600E4906228F07FFFA374FFF09062121203B9
:1006B6007590000112005EFE120045FDEEC39D50CE
:1006C60003020838121F58900001E41200D090006F
:1006D6000E12037E1203D4EFF460089062117423A5
:1006E600F08009906211E06003E014F0121F589048
:1006F600000312005E6F601590000512005E600D2B
:10070600900004E41200D090000302083490000523
:1007160012005EFE90000412005EC39E500B121F74
:1007260058900004740102008B121F5890000212A8
:10073600005E6F6048EFF4701C121F5EC39E400A95
:100746007405121F549000028061121F5890000A0F
:10075600740102082B121F589000087401121F6EB4
:1007660012005E6F906212600C1203557401121F24
:100776006BEF02082B120355900009803DEFF470D1
:1007860041121F5890000912005ED39400500302D4
:10079600082E90000B12005EFE90000A12005ED337
:1007A6009E40117401121F5490000C12005E90625C
:1007B60029F08054121F5890000A740112008B020F
:1007C600082E121F58121F65C394FF500890000888
:1007D600740112008B121F5EB5060890622874031E
:1007E600F08020121F58900007121F616E7039901A
:1007F60062287404121F5790000612005E900008CB
:100806001200D0906229EFF0121F58E4121F6B7489
:10081600FF1200D0906229E09000111200D0906281
:1008260028E09000121200D0121F58900002EF121A
:0208360000D0F0
:01083800229D
:10000F0075AF3F8FAF75AEB975A402E5A530E1FBB3
:01001F0022BE
:101DE5009061D412037575AF3F8FAF9061D7E0C393
:101DF50094014022E5A530E0FB9061D4E475F00143
:101E050012035E120045F5A675AEB975A401906181
:071E1500D7E014F080D52294
:101E1C009061D41203759061D7E06027AE070FEE86
:101E2C002400FDE4343F8D82F583E493FE9061D46D
:101E3C00E475F00112035EEE1200BE9061D7E0145F
:041E4C00F080D3222D
:0504550042619F000060
:07228B007B017A61798B22CF
:1020FA00C39061A0E094FF90619FE094FF5007E4D1
:07210A0075F00112014722EC
:101E8300E49061CDF0A3F0EE30E703D38001C39279
:101E930092D291EF25E0FFEE33FEC2919061CDE443
:101EA30075F0011201479061CDE07004A3E0641066
:021EB30070D5E8
:011EB500220A
:061BFF009061C91203759C
:101C0500C291C283E49061CCF09061CCE0C39D5059
:101C1500249061C91203559061CCE075F002A4F5DA
:101C25008285F08312015DFFAEF0121E839061CCB8
:0B1C3500E004F080D4D283C283C2928E
:011C40002281
:10202F00C39061A0E0943290619FE09400400CE473
:0C203F00F0A3F012228B7D0A121BFF227E
:101955007E007F147D0012228B12040778D2E25498
:10196500F3F2E24404F2907187E4F0E254CFF2E23C
:101975004410F2A3E4F078C2E2543FF2E24440F2AC
:10198500907181E4F0E254FCF2E24401F290717E40
:10199500E4F0C292C291C283C28012228B7D0A02F8
:0219A5001BFF26
:10218100121AE8121955121C41121E507F017E00CD
:0321910002002722
:101FD600120D6D75D95590715EE054FEF075D9BB42
:0E1FE6001221811221B875D9AA12202F80F87D
:0D21F70078E0E24401F278E2E254FCF222CA
:0D22040020A0047F018002E4FF1220992237
:10045A00C10144610D000000004461110000000068
:10046A004461150000000044611900000000416168
:10047A001D006028611E000000000000000000004E
:10048A000000000000000000000000000000000062
:10049A0000000000000000000000000000004161B0
:1004AA004600C100426108000041610A0041610B37
:0104BA000041
:101A4B009061ECE0FF241EF582E43461F583229073
:101A5B0061E4FEFDFC0203009061C4E0FF90610BAA
:101A6B00E0221202F4EF2401FFE43EFEE43DFDE42C
:101A7B003CFC22906111020300E4FAF9F802023BEC
:101A8B009F90621EF0E0FFC3940A22E4FDFC020368
:011A9B00004A
:10216C00E4FE741E2E121A52EFF00EEEB428F3E4B5
:04217C00906146F038
:01218000223C
:1020CA00906146E0121A50EFF0906146E004F0E0A9
:0820DA00C394284002E4F02247
:10116F009061ED12031800000000E49061F1F0A30C
:10117F0074FFF0E49061ECF09061ED120300906168
:10118F00ECE0121A50E0FFE4FCFDFE1201959061B5
:10119F00ED12030C121A4BE0FE9061F1E0C39E506A
:1011AF000B741E2F121A52E09061F1F0121A4BE0DD
:1011BF00FE9061F2E0D39E400B741E2F121A52E084
:1011CF009061F2F09061ECE004F0E0642870A99077
:1011DF0061ED1202F4C006C0079061F2E0FF90616A
:1011EF00F1E02FFFE433AB07FA3395E0F9F8D007BE
:1011FF00D0061201A29061ED12030CE47B26FAF9DE
:0A120F00F89061ED1202F402023BB8
:0D22110078D3E254F3F278D0E24420F222B8
:101CFD009061151202F4121A7E120195906115125F
:101D0D00030C90611112031800000000906119126C
:101D1D0002F490610D1203001201959061191203E6
:0C1D2D000C90610D120318000000002251
:10189E00906108E475F001120147C3906109E0946C
:1018AE0014906108E09400402FE4F0A3F0906111D1
:1018BE00121A6D90611112030CE47F587E02FDFC2A
:1018CE00121A7EC31202E3400F20010C9061111216
:1018DE00031800000000D20130951520000F906112
:1018EE000D121A6D90610D12030C121CFDD2002206
:0218FE00C20026
:0119000022C4
:100AA7009061E4120318000000009061E812031837
:100AB700000000007FF47E01906115121A96C312A0
:100AC70002E35006200103020B9E7F2E7E049061F5
:100AD70019121A961201B07B03121A849061E81258
:100AE700030C300123E4FF906119121A5DC312024F
:100AF700E39061E4600912031800000001802C12E2
:100B07000318000000008023E47F24FEFDFC9061B1
:100B1700E81203001201B07B0A121A8490611512C1
:100B2700030012023B9061E412030C9061DC120295
:100B3700F49061E81203001201959061DC12030C36
:100B47009061191203180000000090611512031834
:100B570000000000C201E4FF121A5AD31202E34058
:100B670015E47F66121A5A1201B0E47B64121A85E3
:100B77009061E412030CE47FC7121A5AD31202E3FE
:100B8700400A9061E4120318000000C79061E41264
:070B970002F49061C4EFF0CD
:010B9E002234
:0D221E0090611DE0C394FF5003E004F02226
:1009750090610AE0702204F09061C4E090610BF090
:100985009061C4E090610CF090610BE0FF120C8760
:100995009061C4E0FF12216C90611DE0C3944B503F
:1009A50003020AA6E4F0121A63D39F403B121A63AE
:1009B500121A8B5003020A3BEF9432400890621DD5
:1009C5007414F08011EFC3941490621D4005740AED
:1009D500F080037405F090610BE0FF90621DE0FE6E
:1009E500C3EF9E90610B803B121A63C39F5047E093
:1009F500FF9061C4E0C3121A8B403BEF943240086C
:100A050090621D7414F08011EFC3941490621D4020
:100A150005740AF080037405F090621DE0FF906193
:100A25000BE02FF09061C4E0FF12216C9061C4E0EF
:100A350090610CF080639061C4E0FF1220CA12112E
:100A45006F90621CEFF0E0C3940A5007E090610CD0
:100A5500F0802590610CE075F003A4FDACF0906288
:100A65001CE075F007A42DFFE5F03CFE7C007D0A37
:100A75001200F290610CEFF090610CE090621CF0B6
:100A8500121A66D39F4005E014F0800D90621C1287
:100A95001A66C39F5003E004F090610BE0FF120C4F
:010AA50087C9
:010AA600222D
:1004BB004261B200004261B40000C1024161A1007F
:0804CB004161A2004161A300A0
:0D2238009061AE020300E475F00102014761
:0D222B0078C2E254CFF278C0E24404F222FF
:101C81009061AA1202F49061A412030012019590CE
:101C910061AA12030C9061A4120318000000001243
:101CA10022389061A8E0FEA3E0FFE4FCFD1201955B
:0E1CB1009061AE12030CE49061A8F0A3F02243
:101901009061A1E004F0E0C394144020E4F0906100
:10191100A812223FC39061A9E094589061A8E09475
:10192100024009200306E4F0A3F0D2033082222012
:10193100021C9061A41202F4EF2401FFE43EFEE4D4
:101941003DFDE43CFC9061A412030C121C81D20207
:0319510022C202AD
:011954002270
:1014C000E47FF47E01FDFC122238C31202E35003D4
:1014D00030036A30030EC203906215120318000035
:1014E0000000801CE47F607EEAFDFC9061AA12038C
:1014F000001201B012223812023B90621512030C46
:101500009061AA120318000000009061AE12031847
:1015100000000000E47FFF7EFFFDFC9062151203D7
:1015200000C31202E3400A9062151203180000FF84
:0D153000FF9062151202F49061C012030CCE
:01153D00228B
:101F2F00C39061B3E094FF9061B2E094FF5003124D
:101F3F00223EC39061B5E094FF9061B4E094FF50EE
:051F4F000312223E22F6
:10206700E47BE87A03F9F89061C01202F412023BAC
:08207700EFD3940C40027F0C32
:01207F00223E
:10153E00E490622EF09061A3E0700A04F01220672E
:10154E009061A2EFF0C39061B3E094C89061B2E0F5
:10155E0094004052E4F0A3F012206790622EEFF058
:10156E009061A2E0FEC39F5005E004F080169062E9
:10157E002EE0FFEED39F400C9061A2E0D39400408A
:10158E0003E014F09061A2E0C3940840089061C695
:10159E007401F08009E49061C6F0FF1221E89061B9
:0615AE00A2E0FF1210B6DE
:0115B4002214
:0804D3004161DB004161DA0028
:1020E2001202F4EF2401FFE43EFEE43DFDE43CFC79
:0820F20022120300C30202E305
:100B9F00C39061E1E094E89061E0E09403400F308E
:100BAF00040C12204BC204E49061E0F0A3F0E47F48
:100BBF00E87E03FDFC9061DC1220F340657F187E18
:100BCF00C67D9A7C3B9061B61220F3500C9061B6B3
:100BDF001220E29061B612030C7F9C7EE07DF57CC3
:100BEF00059061BA1220F3500C9061BA1220E29076
:100BFF0061BA12030C9061DC1202F4C3EF94E8FFA8
:100C0F00EE9403FEED9400FDEC9400FC9061DC1279
:020C1F00030CC4
:100C21009061DAE004F0E0C3940A4004E4F0D204F5
:100C31009061DBE0600FC39061E3E094E89061E2D2
:100C4100E094034040E49061E2F0A3F09061DB04A2
:100C5100F09061BEE06017E47BE87A03F9F89061F7
:100C6100B61202F412023B90620B74018013E47B12
:100C710064FAF9F89061BA1202F412023BE490624C
:050C81000BF0121A9CAB
:010C8600224B
:1004DB004260B200004260B40000602860B60000C9
:1004EB000000000000000000000000000000000001
:1004FB0000000000000000000000000000000000F1
:10050B000000000000004160DE004160AF00602889
:10051B0060DF000000000000000000000000000091
:10052B0000000000000000000000000000000000C0
:10053B000000000000000000000041610700416066
:06054B00B0004160B100A8
:101D730025E024B6F582E43460F583EEF0A3EFF0BA
:101D83002225E024DFF582E4346022F583E0FEA31C
:101D9300E0FFE4FCFD02019590621FE0FEA3E0FF7B
:0A1DA30022E47B14FAF9F80202F4BE
:0B225F00E4FDED121D730DEDB414F74B
:01226A002251
:101F75009060AFE0700504F002225F9060DEE01231
:101F85001D739060DEE004F0E0C394144002E4F0B9
:011F95002229
:101CBF009061F412031800000000E49061F3F090BB
:101CCF0061F41203009061F3E025E024B6F582E49D
:101CDF003460121D8E9061F412030C9061F3E004D6
:0E1CEF00F0E0B414DA9061F4121DA402023B7E
:10211100C39060B3E094FF9060B2E094FF5007E495
:0721210075F00112014722D5
:10212800C39060B5E094FF9060B4E094FF5007E47A
:0721380075F00112014722BE
:0E21D900E4FDED121D84121D7C0DEDB414F416
:0121E70022D5
:10208000906107E0121D84121D7C906107E004F04E
:09209000E0C394144002E4F022C4
:101DAD009061F912031800000000E49061F8F090C2
:101DBD0061F91203009061F8E0121D84121D8E90DE
:101DCD0061F912030C9061F8E004F0E0B414E090B6
:081DDD0061F9121DA402023B92
:101B2F00E4FDC3EF94AAEE940540028036C3EF9410
:101B3F00B4EE940440047D018029C3EF94BEEE946B
:101B4F000340047D02801CC3EF94C8EE940240044E
:101B5F007D03800FC3EF94D2EE940140047D048087
:051B6F00027D05AF0539
:011B7400224E
:100F1D00E4906221F0C39060B3E094C89060B2E0B9
:100F2D0094005003020FD5E4F0A3F0121CBF7C0710
:100F3D007DD01203DAE4FB7A10F9F812023B9062CD
:100F4D001FEEF0A3EFF09060B0E0702704F0121DDB
:100F5D009B1221D9121D9B121B2FA3EFF09060B194
:100F6D00F0700B9061C8E07010120FE4800B120F3F
:100F7D00D68006121D9B122080C39060B5E0948828
:100F8D009060B4E094134040E4F0A3F0121DAD1254
:100F9D001B2F906221EFF09060B1E0FEC39F5005D2
:100FAD00E004F08010906221E0FFEED39F400690A8
:100FBD0060B1E014F09060B1E0700A9061C8E0702B
:080FCD0007120FE422120FD6F7
:100FD50022E49061C8F09060B1E0FF121B7522FF1A
:0A0FE500121B759061C87401F02220
:100551006028614A00000000000000000000000067
:10056100000000000000000000000000000000008A
:100571000000000000000000000000004161720066
:04058100416147008D
:0C226B0025E0244AF582E43461F583226A
:1021A700E4FDED12226BEEF0A3EFF00DEDB414F2A7
:0121B7002205
:101EB600906147E0700A1221A79061477401F022F1
:101EC600906172E012226BEEF0A3EFF0906172E087
:0A1ED60004F0E0C394144002E4F0AD
:011EE00022DF
:1019A7009061FE12031800000000E49061FDF090C2
:1019B70061FE1203009061FDE012226BE0FEA3E0DE
:1019C700FFE4FCFD1201959061FE12030C9061FD8E
:1019D700E004F0E0B414D89061FE1202F4E47B1442
:1019E700FAF9F812023B9061FE12030C9061FE02B5
:0219F70002F4F8
:10213F00C3906149E094FF906148E094FF5007E439
:07214F0075F00112014722A7
:10169600C3906149E094C8906148E09400405AE4E0
:1016A600F0A3F01219A7E4FCFD7B607A617902F8D9
:1016B6001201B0E47B0AFAF9F812023BE4FB7A1055
:1016C600F9F812023BEF2464FFE43EFE90622AF032
:1016D600A3EFF0C3943CEE94284009E49061C7F070
:1016E600FF022245C390622BE0941090622AE09498
:0916F6002750069061C77401F051
:0116FF0022C8
:100585005361B600000000000000000000000000FC
:0605950000000000000060
:101AE8007B017A6179C99061D7740AF0E4FF121E0C
:101AF8001C9061D2E0B4C5219061C91202F49061D2
:101B0800B612030C9061CD1202F49061BA12030C64
:101B18009061D1E09061BEF0229061BE7401F0A3A3
:061B280074C5F012204B11
:011B2E002294
:10204B009061BF74C5F0E4FF12000F7B017A6179D8
:0C205B00B69061D7740AF0E4FF021DE5A6
:10059B004A60113F065B4F666D7D077F6F6054604D
:1005AB001B030D030C020D03080309030B030A03C2
:1005BB0000030203050307030603030304040E04ED
:1005CB000C04090408040A040D040B0401050F04B0
:1005DB00040406040704000402050B050A040304C3
:1005EB0005050D050E050C0503050205040507059C
:1005FB0009050605055C606F070F070E070107026B
:10060B000700070D070C06020601060F0207060E70
:10061B000600060D6020608B070707060705070419
:10062B0007080709070A070B060306040605060653
:10063B00060706080609060A416010004260AB0077
:10064B0000C1054260AD0000426000000041600245
:10065B0000416003004260040000416006004160FD
:10066B000700426008000041600A0041600B004235
:0C067B00600C000041600E0041600F00A8
:10083900E0FE75F00EA4246FF582E43460F583754B
:10084900F002EF120349E025E0248BF582E43461DC
:10085900F5832275F002120349E0FF7E007401A8B6
:10086900070822E04402F0A3E04480F0A3E0F0226C
:10087900E0FCA3E0FDEE75F00EA42470F582E434EB
:1008890060F58322E04404F0A3E0F090618FE04436
:1008990008F0A3E0F022E475F00102014790618FAE
:1008A900E04401F0A3E0F022F4FFEEF45CFEED5F1A
:1008B900FF22AD07E054FBF0E054F7F022C390604B
:1008C90001E09496906000E0940022C390600DE0EE
:1008D900942C90600CE0940122E04440F0A3E0F0F5
:1008E90022EFF074112DF582E43460F583E022756E
:1008F900F00EA4241CF582E43460F58322E4F0A30D
:10090900F0A37402F022C3906005E094649060043F
:10091900E0940022C3906009E094C8906008E094D4
:10092900002275F00EA4241BF582E4346022FFEC4A
:100939004EFEED4FFF2225E0248BF582E43460F56D
:10094900832225E0248CF582E43460F58322EEF0DD
:10095900A3EFF090622DE004F022E0547FF0E05420
:0C096900BFF0A3E022E0FCA3E0FDEF22C1
:101EE10090618B12087190618EE04401F0E0441022
:101EF100F090618D1208A990618DE04410F0A3E08B
:081F0100F090618D12087122BD
:0F21E80090618CE054FDF0EF6004E04402F022BF
:1010B60090618E1208BBE054DFF0E054BFF0E054BC
:1010C6007FF090618DE054FDF01208BDE054DFF032
:1010D600E054BFF090618BE054FEF0E054FDF0ED7B
:1010E6001203AE1167011160021159031152041166
:1010F6004B05114106113707113108112709112136
:101106000A111B0B11110C0000116E90618BE0444B
:1011160002F0A3E0F090618B1208A990618D12088D
:10112600E290618DE04420F0A3E0F090618D12081A
:101136009790618DE04404F0A3E0F090618DE04467
:1011460002F0A3E0F090618EE04480F090618EE0C2
:101156004440F090618EE04420F090618EE04408B7
:09116600F090618EE04404F022D7
:0D22450090618F1208BBED600312088D221E
:10209900AD07906190E054EFF0E054DFF0ED600897
:0920A900E04410F0E04420F022B4
:101B7500AD0790618F12096354FEF0E054FDF0E06B
:101B850054FBF0ED14602714601E14601414600AF1
:101B9500147021906190E04404F0906190E044025B
:101BA500F0906190E04401F090618F1208E290613D
:051BB5008F12087122EF
:101FB600E4906195F0A3E05401F0E4906195F0A3FC
:101FC600E05402F0EF6008E04401F0E04402F02241
:030FEF00906222EB
:100FF2001208EA906224F0E4906223F0906223E007
:10100200FFC3940740030210B5906222E0FE12096A
:101012002B120846C083C082E0FCA3E0FDEE12085A
:10102200F8C083C082906223E0FBD082D083120892
:101032005C8005C333CE33CED8F91208B1D082D04A
:1010420083EEF0A3EFF07E007401A803088005C3CD
:1010520033CE33CED8F9FF906224E0FDEF5D604AD3
:10106200906222E0FF12092BF583C083C082906256
:1010720023E0D082D08375F00212084CC083C08274
:1010820012096E1208F8C083C082906223E0D082F7
:10109200D08312085C8005C333CE33CED8F912094F
:1010A20037D082D083EEF0A3EFF0906223E004F019
:0310B200020FFE2C
:0110B5002218
:0619F90090620212030CD3
:1019FF00E4906206F0906206E0FFC39406503CC389
:101A0F0074059FFFC007E47B0AFAF9F8906202128F
:101A1F0002F412023BAF03AD07D007120FEF906233
:101A2F00021202F4E47B0AFAF9F812023B90620206
:0B1A3F0012030C906206E004F080BA75
:011A4A002279
:101A9C0090620712030C90619112096354FDF0A33C
:101AAC00E0547FF0906195E054FEF07F01121FB678
:101ABC009062071202F41219F990620BE0600E901A
:101ACC006191120871906191E04440800A9061929A
:0C1ADC0012086CA3E04401F0A3E0F0222B
:101FF400AD07906197E054F7F0E054EFF0ED600D19
:0E200400120897906197E04410F0A3E0F022DC
:030E49009062258F
:100E4C001208EA906227F0E4906226F0906226E0A5
:100E5C00FFC39407503A906225120839C083C082B0
:100E6C00120879C083C082906226E0D082D08312AF
:100E7C00085C8005C333CE33CED8F91208B1D082CA
:100E8C00D083EEF0A3EFF0906226E004F0020E584F
:100E9C00E4906226F0906226E0FFC3940750711232
:100EAC0008648005C333CE33CED8F9FF906227E0B7
:100EBC00FDEF5D6052906225E0FF75F00EA4246F8B
:100ECC00F582E43460F583C083C082906226E0D062
:100EDC0082D08375F00212084CC083C08212096E56
:100EEC0012087FC083C082906226E0D082D0831229
:100EFC00085C8005C333CE33CED8F9120937D082C3
:100F0C00D083EEF0A3EFF0906226E004F0020EA185
:010F1C0022B2
:050C870090620CEFF08B
:100C8C00E490620FF0A3F090618FE054FEF090615D
:100C9C009AE054F7F07F01121FF4E490620DF0E437
:100CAC0090620EF090620EE0FFC39407503A90628F
:100CBC000D120839C083C082120879C083C082909B
:100CCC00620EE0D082D08312085C8005C333CE3331
:100CDC00CED8F91208B1D082D083EEF0A3EFF09009
:100CEC00620EE004F0020CB090620DE004F0E064DF
:100CFC000270AC90620CE0906210F090620FE00415
:100D0C00F0A3E075F00A84F070F190620CE0C394EB
:100D1C0064400A1208A690619AE04408F0E49062DC
:100D2C000DF090620DE0FFC39402503490620FE01E
:100D3C00B40105EF6401602090620DE0FFC3740103
:100D4C009FFF90620CE075F00A84ADF0120E499092
:100D5C00620CE075F00A84F090620DE004F080C241
:010D6C002264
:0515B50090622CEFF034
:1015BA00E4A3F090622DE0FF12093F12084FC083A6
:1015CA00C08212096E12094B1208628005C333CE1B
:1015DA0033CED8F91208B1D082D083120957E0B4B9
:1015EA0010D1E490622DF090622CE0FFA3E0FEC3DC
:1015FA009F502CEE12093F12084FC083C082E0FCB4
:10160A00A3E0FDEE12094B1208628005C333CE3304
:0F161A00CED8F9120937D082D08312095780C871
:01162900229E
:1017000090600012089F906002E0FE70241208C6EC
:101710004057E4F0A3F0906003E004F0E0FF940C85
:1017200040449060027401F0E4906000F0A3F08007
:1017300035EEB40110C3906001E094C81208CD40AA
:101740002812090622906002E0B4021D1208C64069
:1017500018E4F0A3F0906003E0D394004003E01499
:09176000F0906003E0FF1210B6E6
:01176900225D
:1017D40090600412089F906006E0FB701D12090FD0
:1017E4004053E4F0A3F0906007E004F0E0FF9410AD
:1017F40040409060067401F08038EBB40113C3904C
:101804006005E09490906004E09401402812090679
:1018140022906006E0B4021D12090F4018E4F0A300
:10182400F0906007E0D394004003E014F090600768
:05183400E0FF1215B5F4
:01183900228C
:1012B30090600812089F90600AE0FA702712091DD7
:1012C3004044E4F0A3F012130A12132440FB90608D
:1012D3000BE004F0E0C3940A402C7409F090600A18
:1012E3007401F022EA6401701D12091D4018E4F034
:1012F300A3F090600BE0D394004003E014F01213CA
:061303000A12132440FB56
:101309002290600BE0FDE4FF120E4990600BE0FDB6
:101319007F01120E49E490622FF02290622FE0FFC4
:1013290090600BE0FD120FEF90622FE004F0E0C334
:03133900940622F5
:10183A0090600C12089F90600EE0FE701E1208D491
:10184A004051E4F0A3F090600FE094055005E004E5
:10185A00F0803890600E7401F08030EEB40110C34D
:10186A0090600DE094901208DB402812090622903D
:10187A00600EE0B4021D1208D44018E4F0A3F09000
:10188A00600FE0D394004003E014F090600FE0FF93
:03189A00121B75A9
:01189D002228
:1021C900906010E0B401089060AB12089FD205221C
:101441009060107401F0121EE17F011221E8121F59
:10145100B6121FF49061911208719061911208E225
:1014610012086CA31208A97F0112224512209912B9
:1014710008A690619AE04408F0906010E0603F7522
:10148100D9AA3005F4C2051217001217D41212B3EB
:1014910012183AC39060ACE094A09060ABE0940F56
:1014A1004017E4906010F0FF1210B61221E81222EA
:0F14B100451220997F101215B512202F80BB22F3
:10219400C39060AEE094FF9060ADE094FF500312F2
:0321A400089F226F
:10162A00C39060AEE094DB9060ADE09401405CE46E
:10163A00F0A3F09061C6E0601890618BE013A3E01C
:10164A001330E006E054FDF0800790618CE044021C
:10165A00F09061C7E0601690618FE01313543F3039
:10166A00E0051208BD800690618F12088D9061C84E
:10167A00E0601890618FE0C4131313540130E00541
:0C168A00E0547FF02290618F1208712262
:1021B80090618BE04420F0A3E0F090618B1208E27C
:0121C80022F4
:100687005361730A000000000332410000000000BC
:0E06970001FF2282000045618601010203047A
:102012007B64FA9061BAF9F81202F402023BEC75A1
:0D202200F005A42486F582E43461F58322E4
:0D22520078C0E24420F278C3E254F3F22297
:092282002085037F01227FFF2269
:101BBA00E4FEFCFBEDB401030B8016EDB403047BD9
:101BCA0002800EEDB404047B038006EDB405027BAB
:101BDA0004ECC39401501B122020E0B50711122017
:101BEA0020E5822BF582E43583F583E0FE80030C41
:041BFA0080DFAF06D3
:011BFE0022C4
:10176A00906184E06063E0FFA3E0FD121BBAE4909D
:10177A006184F0A3F0EF24FE603004704C9061BEE7
:10178A00E0600BE4F0122012E490620B8016906184
:10179A00BE7401F0E47BE87A039061B612201890D7
:1017AA00620B7401F0121A9C801C9061BEE07019E1
:1017BA009061BA12031800000000E4122012E490AB
:0917CA00620BF0121A9C12204B74
:0117D30022F3
:10123300021FD6E493A3F8E493A34003F68001F2DC
:1012430008DFF48029E493A3F85407240CC8C333BC
:10125300C4540F4420C8834004F456800146F6DF8B
:10126300E4800B0102040810204080900451E47EC6
:10127300019360BCA3FF543F30E509541FFEE49380
:10128300A360010ECF54C025E060A840B8E493A347
:10129300FAE493A3F8E493A3C8C582C8CAC583CA72
:1012A300F0A3C8C582C8CAC583CADFE9DEE780BE2A
:0106A5000054
:10004500BB010689828A83E0225002E722BBFE02B9
:09005500E32289828A83E49322EC
:10005E00BB010CE58229F582E5833AF583E0225057
:10006E0006E92582F8E622BBFE06E92582F8E222A1
:0D007E00E58229F582E5833AF583E49322BB
:10008B00BB010FF8E58229F582E5833AF583E02879
:10009B00F0225009C58229F8E58226F622BBFE091B
:1000AB00C58229F8E22582F222F8EA2583F583E955
:0300BB0093282265
:1000BE00BB010689828A83F0225002F722BBFE0121
:0200CE00F3221B
:1000D000F8BB010DE58229F582E5833AF583E8F066
:1000E000225006E92582C8F622BBFE05E92582C812
:0200F000F222FA
:1000F200BC000BBE0029EF8DF084FFADF022E4CCF2
:10010200F875F008EF2FFFEE33FEEC33FCEE9DECBA
:10011200984005FCEE9DFE0FD5F0E9E4CEFD22ED00
:10012200F8F5F0EE8420D21CFEADF075F008EF2F4A
:10013200FFED33FD4007985006D5F0F222C398FD3B
:050142000FD5F0EA22D8
:10014700C5F0F8A3E028F0C5F0F8E5821582700243
:060157001583E038F022E0
:10015D00BB0110E58229F582E5833AF583E0F5F0E0
:10016D00A3E0225009E92582F886F008E622BBFEBD
:10017D000AE92582F8E2F5F008E222E5832AF58303
:08018D00E993F5F0A3E99322C8
:0D019500EF2BFFEE3AFEED39FDEC38FC22B9
:0E01A200C3EF9BFFEE9AFEED99FDEC98FC2258
:1001B000E88FF0A4CC8BF0A42CFCE98EF0A42CFCEE
:1001C0008AF0EDA42CFCEA8EF0A4CDA8F08BF0A46C
:1001D0002DCC3825F0FDE98FF0A42CCD35F0FCEBCB
:1001E0008EF0A4FEA9F0EB8FF0A4CFC5F02ECD3990
:0F01F000FEE43CFCEAA42DCE35F0FDE43CFC22FD
:1001FF0075F008758200EF2FFFEE33FECD33CDCCB7
:10020F0033CCC58233C5829BED9AEC99E582984039
:10021F000CF582EE9BFEED9AFDEC99FC0FD5F0D616
:10022F00E4CEFBE4CDFAE4CCF9A88222B800C1B940
:10023F000059BA002DEC8BF084CFCECDFCE5F0CB7E
:10024F00F97818EF2FFFEE33FEED33FDEC33FCEBB7
:10025F0033FB10D703994004EB99FB0FD8E5E4F972
:10026F00FA227818EF2FFFEE33FEED33FDEC33FC5F
:10027F00C933C910D7059BE99A4007EC9BFCE99A53
:10028F00F90FD8E0E4C9FAE4CCFB2275F010EF2F98
:10029F00FFEE33FEED33FDCC33CCC833C810D70798
:1002AF009BEC9AE899400AED9BFDEC9AFCE899F8D3
:0E02BF000FD5F0DAE4CDFBE4CCFAE4C8F92266
:1002CD00EB9FF5F0EA9E42F0E99D42F0EC6480C8A8
:0602DD0064809845F02248
:1002E300EB9FF5F0EA9E42F0E99D42F0E89C45F071
:0102F30022E8
:0C02F400E0FCA3E0FDA3E0FEA3E0FF227D
:0C030000E0F8A3E0F9A3E0FAA3E0FB2280
:0C030C00ECF0A3EDF0A3EEF0A3EFF02264
:10031800A8828583F0D083D08212032F12032F1274
:10032800032F12032FE473E493A3C583C5F0C58399
:10033800C8C582C8F0A3C583C5F0C583C8C582C82F
:010348002292
:0C034900A42582F582E5F03583F58322BF
:09035500E0FBA3E0FAA3E0F922A9
:10035E00F8E0FBA3A3E0F925F0F0E5821582700228
:07036E001583E0FA38F022CC
:09037500EBF0A3EAF0A3E9F02289
:10037E00BB010DE58229F582E5833AF5830203552B
:10038E005007E92582F8020433BBFE07E92582F8FF
:10039E0002043CE58229F582E5833AF583020445A1
:1003AE00D083D082F8E4937012740193700DA3A3DE
:1003BE0093F8740193F5828883E4737402936860F2
:0603CE00EFA3A3A380DFF2
:0603D4008A838982E473B4
:1003DA00EC8EF0A4CCC5F0CCCDF8EFA4CEC5F02DB0
:1003EA00FDE43CFCE8A42EC8C5F03DFDE43CFCEF6E
:0D03FA00A4FFE5F028FEE43DFDE43CFC22FC
:10040700EF4E6012EF60010EEDBB010B89828A830C
:10041700F0A3DFFCDEFA2289F05007F709DFFCA919
:0C042700F022BBFEFCF309DFFCA9F02270
:09043300E6FB08E6FA08E6F922EE
:09043C00E2FB08E2FA08E2F922F1
:0C044500E493FB740193FA740293F92213
:00000001FF
