:0300000002159A4C
:10159A00787FE4F6D8FD9060007F007E07E4F0A330
:0A15AA00DFFCDEFA7581210215EF67
:0C000300000000000000000000000000F1
:0B291200EF1FAC0670011E4C70F62297
:10002700AB07AA06EB1BAE0270011A4E600C7FAA43
:0B0037007E0512291275D9AA80EA226A
:1011E600907120E04480F07F057E00122912E4FF12
:1011F600FE12002775A75575AC5C9071327450F0DD
:101206009071307403F0907136742FF090715C74A5
:1012160003F090715BE054FCF07F18EF2466FDE468
:1012260034718D82F583E4F00FEFB433EE90401104
:10123600E4935407FF90711CE054F84FF090401768
:10124600E493547FFF90711DE054804FF09040105E
:10125600E493FF5401C43333335480FE907123E08A
:10126600547F4EF0EFC313543F4440FFA3E0548035
:101276004FF0904012E493FF540FFE907146E054F5
:10128600F04EF0EFC4540FFF90714FE054F04FF062
:10129600904013E493543FFF907140E054C04FF0E8
:1012A600904014E493907126F0904015E493907169
:0B12B60028F0904016E49390712AF09D
:0112C100220A
:1020BA00E5B154CF42B153A8BFD2AF75D102789CD3
:1020CA00E254E3F2E2441CF2E254FCF2E24401F28A
:1020DA0008E2547FF2E24420F278A17401F2187403
:1020EA0076F2789CE2541FF2E244C0F243A84022FE
:0300210002175B68
:10175B00C0E0C0F0C083C082C0D075D000C000C054
:10176B0001C002C003C004C005C006C007789DE2DB
:10177B0030E747E24480F29062D7E0FEA3E0FFE45B
:10178B00FCFD7BFF7AFFF9F8D31203C3400A90628A
:10179B00D7E475F00112023D906291E0C394FF50C3
:1017AB0003E004F012271A1227319062D9E475F086
:1017BB000112023D122703122493D007D006D00545
:1017CB00D004D003D002D001D000D0D0D082D083AF
:0517DB00D0F0D0E03267
:10230500E5B254FC42B253A9FED2AF75D104907127
:10231500057409F0907104745FF0907101E0547FC9
:10232500F0E04420F0907100E0E4F0E044C1F043B7
:03233500A90122D9
:030024000226A30E
:1026A300C0E0C083C082907101E030E704E0448061
:0826B300F0D082D083D0E032A8
:0E287400906251EFF0122931906251E0FF2284
:1026240078C2E254FCF2E24401F290717EE0440488
:0B263400F075D60175D59F75D21022FD
:08293100E5D430E4FB8FD7224E
:0408AC0041630E0096
:10275F00907123E054D8F0E04459F0227869E244B4
:06276F0001F290630E224E
:10246D0078C3E24403F218E2440CF2786AE244794C
:10247D00F27591FF9071227407F0439E704399405D
:06248D0043AA04D2AF22B5
:1025AE005399E0EF24FE600B04700E12275F4399DF
:1025BE0004800612275F4399017869E24448F222AB
:1021EF0090630EE014601914601D146026146004CF
:1021FF00240470257F011225AE90630E7401F02226
:10220F0012276B7402F0227F021225AE90630E74B8
:0A221F0003F02212276B7404F02272
:030042000217E0C2
:1017E000C0E0C0F0C083C082C0D075D000C000C0CF
:0D17F00001C002C003C004C005C006C00750
:1017FD00786BE230E142E24402F2AF93EF75F01004
:10180D00A4FFE594C4540FFDEF4DFF906252E5F037
:10181D00F0A3EFF090630EE024FC60112402701829
:10182D00906252E0FEA3E0FF12236B800B90625298
:08183D00E0FEA3E0FF12258D7F
:10184500D007D006D005D004D003D002D001D000F7
:0B185500D0D0D082D083D0F0D0E032A1
:10256C0090631EF090630502044B90000612015418
:10257C00FE9000080201549000091201C690000C54
:01258C00222C
:100BE200E490631EF07FFFA374FFF090630512048C
:100BF2006B900001120154FE12013BFDEEC39D50A9
:100C020003020D74122570900001E41201C69000D7
:100C12000E1204741204A4EFF460089063047423A7
:100C2200F08009906304E06003E014F012257090F4
:100C320000031201546F6015900005120154600DFB
:100C4200900004E41201C6900003020D70900005AA
:100C5200120154FE900004120154C39E500B12253F
:100C6200709000047401020181122570900002123A
:100C720001546F6048EFF4701C122576C39E400A3F
:100C8200740512256C900002806112257090000A92
:100C92007401020D671225709000087401122586F6
:100CA2001201546F906305600C12044B74011225FB
:100CB20083EF020D6712044B900009803DEFF47040
:100CC20041122570900009120154D394005003027E
:100CD2000D6A90000B120154FE90000A120154D3C7
:100CE2009E4011740112256C90000C120154906305
:100CF2001FF0805412257090000A740112018102C3
:100D02000D6A12257012257DC394FF5008900008C9
:100D12007401120181122576B5060890631E7403D0
:100D2200F080201225709000071225796E7039909C
:100D3200631E740412256F9000061201549000087D
:100D42001201C690631FEFF0122570E4122583741E
:100D5200FF1201C690631FE09000111201C690635A
:100D62001EE09000121201C6122570900002EF12CE
:020D720001C6B8
:010D7400225C
:1027E80075AF3F8FAF75AEB975A402E5A530E1FBB3
:0127F80022BE
:10229A0090623512046B75AF3F8FAF906238E0C31E
:1022AA0094014022E5A530E0FB906235E475F00127
:1022BA0012045412013BF5A675AEB975A4019062D9
:0722CA0038E014F080D5227A
:1022D10090623512046B906238E06027AE070FEE12
:1022E1002400FDE4343F8D82F583E493FE90623552
:1022F100E475F001120454EE1201B4906238E01456
:04230100F080D32273
:0508B00042628E000011
:072939007B017A627978222C
:10270300C390628FE094FF90628EE094FF5007E4E1
:0727130075F00112023D22E6
:10233800E490622DF0A3F0EE30E703D38001C3925E
:1023480092D291EF25E0FFEE33FEC29190622DE428
:1023580075F00112023D90622DE07004A3E0641054
:0223680070D52E
:01236A002250
:0620780090622912046BC6
:10207E00C291C283E490622CF090622CE0C39D501A
:10208E002490622912044B90622CE075F002A4F5A4
:10209E008285F083120253FFAEF012233890622C29
:0B20AE00E004F080D4D283C283C29211
:0120B9002204
:1025EC00C390628FE0943290628EE09400400CE4D1
:0C25FC00F0A3F01229397D0B1220782288
:101E6C007E007F167D001229391204D778D2E254F5
:101E7C00F3F2E24404F2907187E4F0E254CFF2E220
:101E8C004410F2A3E4F078C2E2543FF2E24440F290
:101E9C00907181E4F0E254FCF2E24401F290717E24
:101EAC00E4F0C292C291C283C2801229397D0B0226
:021EBC0020788C
:0B291D007379732072657365740A0003
:10000F0078E2E254F3F2E24404F290718FE4F0C22A
:02001F00A1221C
:10254A0012000F1226247BFF7A29791D1205B21276
:10255A001F61121E6C1220BA1223057F017E00022F
:02256A00002748
:1025CE001211E675D95590715EE054FEF075D9BBC7
:0E25DE0012254A12294975D9AA1225EC80F857
:0D28AC0078E0E24401F278E2E254FCF2220E
:01294700226D
:10278A0073706565645F6F665F6C6167203D3D20AD
:04279A0025750A0097
:1008B500C10A4461C3000000004461C70000000094
:1008C5004461CB000000004461CF0000000041619D
:1008D500D300602861D40000000000000000000083
:1008E5000000000000000000000000000000000003
:1008F5000000000000000000000000000000416151
:10090500FC00C1094261BE00004161C0004161C1F6
:0109150000E1
:101F10009062E3E0FF24D4F582E43461F5832290FB
:101F200062DBFEFDFC0203F69062CCE0FF9061C133
:101F3000E0221203EAEF2401FFE43EFEE43DFDE46B
:101F40003CFC229061C70203F6E4FAF9F80203317F
:101F50009F906311F0E0FFC3940A22E4FDFC0203AA
:011F6000F68A
:10277500E4FE74D42E121F17EFF00EEEB428F3E426
:042785009061FCF073
:01278900222D
:1026BB009061FCE0121F15EFF09061FCE004F0E07C
:0826CB00C394284002E4F02250
:10144C009062E412040E00000000E49062E8F0A345
:10145C0074FFF0E49062E3F09062E41203F69062A1
:10146C00E3E0121F15E0FFE4FCFDFE12028B90621C
:10147C00E4120402121F10E0FE9062E8E0C39E50DA
:10148C000B74D42F121F17E09062E8F0121F10E0BB
:10149C00FE9062E9E0D39E400B74D42F121F17E02C
:1014AC009062E9F09062E3E004F0E0642870A990A7
:1014BC0062E41203EAC006C0079062E9E0FF9062A2
:1014CC00E8E02FFFE433AB07FA3395E0F9F8D007E7
:1014DC00D0061202989062E4120402E47B26FAF918
:0A14EC00F89062E41203EA020331F3
:0D28B90078D3E254F3F278D0E24420F2220A
:1021B3009061CB1203EA121F4312028B9061CB1280
:1021C30004029061C712040E000000009061CF1258
:1021D30003EA9061C31203F612028B9061CF1204DB
:0C21E300029061C312040E0000000022F4
:101CFB009061BEE475F00112023DC39061BFE094A8
:101D0B00149061BEE09400402FE4F0A3F09061C703
:101D1B00121F329061C7120402E47F587E02FDFC51
:101D2B00121F43C31203D9400F200A0C9061C71234
:101D3B00040E00000000D20A30951520090F9061A7
:101D4B00C3121F329061C31204021221B3D20922B3
:021D5B00C209BB
:011D5D002263
:1010EE009062DB12040E000000009062DF12040E0C
:1010FE00000000007FF47E019061CB121F5BC312D3
:10110E0003D95006200A030211E57F2E7E0490615A
:10111E00CF121F5B1202A67B03121F499062DF12D1
:10112E000402300A23E4FF9061CF121F22C3120380
:10113E00D99062DB600912040E00000001802C12AF
:10114E00040E000000008023E47F24FEFDFC90626C
:10115E00DF1203F61202A67B0A121F499061CB1210
:10116E0003F61203319062DB1204029062D3120373
:10117E00EA9062DF1203F612028B9062D31204021F
:10118E009061CF12040E000000009061CB12040E8D
:10119E0000000000C20AE4FF121F1FD31203D94041
:1011AE0015E47F66121F1F1202A6E47B64121F4A0B
:1011BE009062DB120402E47FC7121F1FD31203D901
:1011CE00400A9062DB12040E000000C79062DB1230
:0711DE0003EA9062CCEFF080
:0111E50022E7
:0D28C6009061D3E0C394FF5003E004F022C2
:100D75009061C0E0701A04F09062CCE09061C1F01F
:100D85009062CCE09061C2F09062CCE0FF122775D2
:100D95009061D3E0C3944B5003020EAAE4F0121FF6
:100DA50028D39F403B121F28121F505003020E3BB1
:100DB500EF943240089063107414F08011EFC394DF
:100DC500149063104005740AF080037405F0906177
:100DD500C1E0FF906310E0FEC3EF9E9061C1803BD0
:100DE500121F28C39F504FE0FF9062CCE0C3121F33
:100DF500504043EF943240089063107414F0801112
:100E0500EFC394149063104005740AF080037405D1
:100E1500F0906310E0FF9061C1E02FF07BFF7A272F
:100E2500798A120EAB9062CCE0FF1227759062CCE6
:100E3500E09061C2F0229062CCE0FF1226BB121452
:100E45004C90630FEFF0E0C3940A5007E09061C245
:100E5500F080259061C2E075F003A4FDACF09063CD
:100E65000FE075F007A42DFFE5F03CFE7C007D0A40
:100E75001201E89061C2EFF09061C2E090630FF05B
:100E8500121F2BD39F4005E014F0800D90630F12C5
:100E95001F2BC39F5003E004F07BFF7A27798A90CC
:050EA50061C1120EAB5B
:0F0EAA0022E0FF90622CE4F0A3EFF01205B222D9
:100916004262B900004262BB0000C10B4162A800FE
:080926004162A9004162AA0030
:0D28E0009062B50203F6E475F00102023DBE
:0D28D30078C2E254CFF278C0E24404F22251
:1020FA009062B11203EA9062AB1203F612028B905D
:10210A0062B11204029062AB12040E0000000012C7
:10211A0028E09062AFE0FEA3E0FFE4FCFD12028B30
:0E212A009062B5120402E49062AFF0A3F022BE
:101E18009062A8E004F0E0C394144020E4F09062DB
:101E2800AF1228E7C39062B0E094589062AFE09494
:101E3800024009200C06E4F0A3F0D20C30822220E4
:101E48000B1C9062AB1203EAEF2401FFE43EFEE4B0
:101E58003DFDE43CFC9062AB1204021220FAD20B66
:031E680022C20B88
:011E6B002254
:101ADC00E47FF47E01FDFC1228E0C31203D950030D
:101AEC00300C6A300C0EC20C90630812040E00000D
:101AFC000000801CE47F607EEAFDFC9062B1120362
:101B0C00F61202A61228E0120331906308120402A6
:101B1C009062B112040E000000009062B512040E27
:101B2C0000000000E47FFF7EFFFDFC9063081203C1
:101B3C00F6C31203D9400A90630812040E0000FF8A
:0D1B4C00FF9063081203EA9062C8120402C1
:011B59002269
:1024B900C39062BAE094FF9062B9E094FF500312AE
:1024C90028E6C39062BCE094FF9062BBE094FF50A1
:0524D900031228E622B9
:10263F00E47BE87A03F9F89062C81203EA120331D7
:08264F00EFD3940C40027F0C54
:012657002260
:101BC600E4906326F09062AAE0700A04F012263FC1
:101BD6009062A9EFF0C39062BAE094C89062B9E04F
:101BE60094004045E4F0A3F012263F906326EFF000
:101BF6009062A9E0FEC39F5005E004F08016906352
:101C060026E0FFEED39F400C9062A9E0D3940040FB
:101C160003E014F09062A9E0C3940840079062CEF6
:091C26007401F022E49062CEF09A
:011C2F002292
:08092E004162D2004162D100D8
:1026D3001203EAEF2401FFE43EFEE43DFDE43CFC8B
:0826E300221203F6C30203D921
:10139400C39062D8E094E89062D7E09403400F30A1
:1013A4000D0C122608C20DE49062D7F0A3F0E47F7E
:1013B400E87E03FDFC9062D31226E440657F187E2C
:1013C400C67D9A7C3B9062BD1226E4500C9062BDAF
:1013D4001226D39062BD1204027F9C7EE07DF57CD0
:1013E400059062C11226E4500C9062C11226D3907B
:1013F40062C11204029062D31203EAC3EF94E8FFBD
:10140400EE9403FEED9400FDEC9400FC9062D31284
:021414000402D0
:101416009062D1E004F0E0C3940A4004E4F0D20DF7
:101426009062D2E0600FC39062DAE094E89062D9ED
:10143600E094034010E49062D9F0A3F09062D204E5
:05144600F09062C5E01A
:01144B00227E
:10093600426168000042616A00006028616C000044
:1009460000000000000000000000000000000000A1
:100956000000000000000000000000000000000091
:1009660000000000000041619400416165006028BC
:10097600619500000000000000000000000000007B
:100986000000000000000000000000000000000061
:10099600000000000000000000004161BD00416150
:0609A600660041616700DC
:1021760025E0246CF582E43461F583EEF0A3EFF0FC
:102186002225E02495F582E4346122F583E0FEA35E
:10219600E0FFE4FCFD02028B121FAA906327EFF01A
:0D21A60090616722E47B14FAF9F80203EA65
:0B28FA00E4FDED1221760DEDB414F7A3
:0129050022AF
:10258D00906165E0700504F00228FA906194E01204
:10259D002176906194E004F0E0C394144002E4F0DD
:0125AD00220B
:102138009062F112040E00000000E49062F0F0904A
:1021480062F11203F69062F0E025E0246CF582E477
:1021580034611221919062F11204029062F0E0045D
:0E216800F0E0B414DA9062F11221AA02033101
:10271A00C3906169E094FF906168E094FF5007E418
:07272A0075F00112023D22CF
:10273100C390616BE094FF90616AE094FF5007E4FD
:0727410075F00112023D22B8
:0E281A00E4FDED12218712217F0DEDB414F4C0
:01282800228D
:102658009061BDE012218712217F9061BDE004F0F6
:09266800E0C394144002E4F022E6
:102262009062F612040E00000000E49062F5F09015
:1022720062F61203F69062F5E01221871221919024
:1022820062F61204029062F5E004F0E0B414E09009
:0822920062F61221AA020331D9
:101FAA00E4FDC3EF94AAEE940540028036C3EF9491
:101FBA00B4EE940440047D018029C3EF94BEEE94EC
:101FCA000340047D02801CC3EF94C8EE94024004CF
:101FDA007D03800FC3EF94D2EE940140047D048008
:051FEA00027D05AF05BA
:011FEF0022CF
:1014F600E4906327F0C3906169E094C8906168E066
:1015060094005003021599E4F0A3F01221387C07E9
:101516007DD01204AAE4FB7A10F9F8120331AB0766
:10152600AA06906166E0701C04F012281A12219E29
:10153600F0700A9062D0E0701204F0800EE49062BF
:10154600D0F08007AE02AF03122658C390616BE05D
:10155600948890616AE094134039E4F0A3F0122273
:101566006212219EE0FEC39F5005E004F0801090B9
:101576006327E0FFEED39F4006906167E014F0908A
:101586006167E070099062D0E0700804F022E49090
:0315960062D0F030
:01159900222F
:1009AC006028620000000000000000000000000051
:1009BC00000000000000000000000000000000002B
:1009CC000000000000000000000000004162280050
:0409DC004161FD0078
:0C29060025E02400F582E43462F5832211
:1027F900E4FDED122906EEF0A3EFF00DEDB414F2AD
:0128090022AC
:10236B009061FDE0700A1227F99061FD7401F02273
:10237B00906228E0122906EEF0A3EFF0906228E0BD
:0A238B0004F0E0C394144002E4F0F3
:012395002225
:101EBE009062FB12040E00000000E49062FAF090B3
:101ECE0062FB1203F69062FAE0122906E0FEA3E02E
:101EDE00FFE4FCFD12028B9062FB1204029062FA88
:101EEE00E004F0E0B414D89062FB1203EAE47B1431
:101EFE00FAF9F81203319062FB1204029062FB02AF
:021F0E0003EAE4
:10274800C39061FFE094FF9061FEE094FF5007E4BE
:0727580075F00112023D22A1
:101DBD00C39061FFE094C89061FEE09400404BE455
:101DCD00F0A3F0121EBEE4FCFD7B607A617902F88F
:101DDD001202A6E47B0AFAF9F8120331E4FB7A1039
:101DED00F9F8120331EF2464FFE43EFEC3EF943C97
:101DFD00EE94284006E49062CFF022C3EF9410EEEB
:0A1E0D00942750069062CF7401F094
:011E170022A8
:1009E0005462BD0000000000000000000000000094
:0709F0000000000000000000
:101F61007B017A627929906238740BF0E4FF1222C6
:101F7100D1906233E0B4C5219062291203EA9062E4
:101F8100BD12040290622D1203EA9062C112040292
:101F9100906231E09062C5F0229062C57401F090C8
:081FA10062C774C5F0122608A6
:011FA9002215
:102608009062C774C5F0E4FF1227E87B017A62790B
:0C261800BD906238740BF0E4FF02229ABF
:102526000001B2070003640E000516150006C81C5C
:1025360000087A23000A2C2A000BDE31000D9038A1
:04254600000F423F01
:1009F7004A601F3F065B4F666D7D077F6F60206013
:100A070029070707060705070407080709070A074D
:100A17000B0603060406050606060706080609066A
:100A27000A41601E004260490000C10E42604B004F
:100A3700006042604D0A050A020902090409070914
:100A47000A090908020804080708060809080A0825
:100A57000C080D060A0609060D060F00050003001F
:100A670002010D010C010301020101020402070248
:100A77000602080209020A6030608F0A070A060A9E
:100A8700040A030A010A00090009030905090B09F9
:100A9700080801080308050808080B080E060406DD
:100AA700050606060C060E000600045A60BF050977
:100AB7000706070707080901090C090D0800080FB1
:100AC700060706020007010B4E60D9020202030265
:100AD7000C020E020F02000201602A60E700000903
:100AE7000E090F00000000000000000603070F07B3
:100AF7000C0709070B070E070D0601070307040775
:100B07000507010700070260546111050205030587
:100B17000E050C050D0504050F040C040B05050552
:100B270007050605010500040F040E040604080462
:100B370009040D040A04000401040404070405045D
:100B4700020403030F030E030C0309030A030D0337
:100B57000B03000302030503070306030103034214
:100B67006000000041600200416003004260040031
:100B770000416006004160070042600800004160D4
:100B87000A0042600B000041600D0042600E000049
:100B97004160100042601100004160130042601480
:100BA70000004160160042601700004160190042D2
:0C0BB700601A000041601C0041601D003D
:100EB900906313E0FF25E024D9F582E43460F583DB
:100EC900E025E02478F582E43462F58322E0FCA38E
:100ED900E0FDEF25E024DAF582E43460F583E0FFF4
:100EE9007E007401A8070822E475F00102023DE0C2
:100EF900FCA3E0FDEF75F00EA424E8F582E434606C
:100F0900F58322E0FF75F00EA424E7F582E434604E
:100F1900F58322F4FFEEF45CFEED5FFF22FFEC4E59
:100F2900FEED4FFF2275F00202043FE4F0A3F0A3A7
:100F3900E022EFF0741F2DF582E43460F583E0229E
:100F4900C3906001E09496906000E0940022C39001
:100F59006005E0942C906004E0940122E0FCA3E099
:100F6900FDEE22E0FCA3E0FDEF25E022E014FFA363
:100F7900E0FED39F22ED75F00202043F75F00EA446
:100F89002411F582E43461F5832275F00EA424124C
:100F9900F582E43461F58322E04401F0A3E0F02214
:100FA900E04408F0A3E0F022EEF0A3EFF090632113
:100FB900E004F022EEF0A3EFF0906323E004F022C6
:100FC900EEF0A3EFF0906325E004F02225E0244D34
:100FD900F582E434602225E0248FF582E43460222E
:0A0FE90025E024BFF582E434602205
:0E288200906284E054FEF0EF6003120FA1227A
:0F28290090627BE054FEF0EF6004E04401F02287
:0E289000906284E054F7F0EF6003120FA9226B
:1027C400906278E054EFF0EF6007E04410F0A3E08B
:0227D400F022F1
:1027D60090627AE054BFF0EF6007E04440F0A3E077
:0227E600F022DF
:05186000906320EFF091
:10186500E4A3F0F0906321E0FF120FD5120EC7C07C
:1018750083C082120F6C244EF582E43460120EE5AB
:101885008005C333CE33CED8F9120F1CD082D08356
:10189500120FB1E0B421CD906320E0D39400403A1B
:1018A500E4A3F0906320120F75502FEE120FD5129E
:1018B5000EC7C083C082120F6525E0244EF582E471
:1018C5003460120EE58005C333CE33CED8F9120F3E
:0A18D50026D082D083120FB180C923
:0118DF0022E6
:0518E000906322EFF00F
:1018E500E4A3F0906323E0FF120FDF120EC7C0835D
:1018F500C082120F6C2490F582E43460120EE580EC
:1019050005C333CE33CED8F9120F1CD082D0831243
:101915000FBDE0B418CD906322E0D39400403AE4C3
:10192500A3F0906322120F75502FEE120FDF120EE7
:10193500C7C083C082120F6525E02490F582E43488
:1019450060120EE58005C333CE33CED8F9120F26CB
:09195500D082D083120FBD80C9BD
:01195E002266
:10239600AD0790627BE054DFF0E054BFF090627AC4
:1023A600E054FBF0ED6013A3E04420F0E04440F07D
:0B23B60090627AE04404F0A3E0F02203
:05195F00906324EFF08D
:10196400E4A3F0906325E0FF120FE9120EC7C083D1
:10197400C082120F6C24C0F582E43460120EE5803C
:1019840005C333CE33CED8F9120F1CD082D08312C4
:101994000FC9E0B40DCD906324E0D39400403AE441
:1019A400A3F0906324120F75502FEE120FE9120E5C
:1019B400C7C083C082120F6525E024C0F582E434D9
:1019C40060120EE58005C333CE33CED8F9120F264C
:0919D400D082D083120FC980C932
:0119DD0022E7
:0E289E0090627CE054F7F0EF6003120FA92265
:0F28380090627DE054DFF0EF6004E04420F02276
:0516C900906312EFF038
:1016CE00E4A3F0120EB9C083C082120ED68005C3F9
:1016DE0033CE33CED8F9120F1CD082D083EEF0A3C6
:1016EE00EFF0906313E004F0E0B407D7906312E0DC
:1016FE00FFD394004056741F2F120F40906314F0C6
:10170E00E4906313F0906313E0FFD39407503D12FF
:10171E000EE98005C333CE33CED8F9FF906314E0C3
:10172E00FDEF5D601F120EB9C083C082120ED6800F
:10173E0005C333CE33CED8F9120F26D082D083EE26
:0C174E00F0A3EFF0906313E004F080B90A
:01175A00226C
:1026EB00AB07E4FF1228381216C9EB70057F010205
:0826FB002838AF031216C922B2
:10163400906317EBF0906315EFF0A3EDF0EF120F4A
:101644000E120F7E120EC9C083C082E0FAA3E0FB23
:10165400906315E0120EFE120F7E120EE78005C392
:1016640033CE33CED8F9F4FFEEF45AFEEB5FFFD05D
:1016740082D083EEF0A3EFF0906317E060469063AE
:1016840015120F0CC083C082906316E0D082D08301
:10169400120F2E120EC9C083C082120EF8C083C06E
:1016A40082906316E0D082D083120F2E120EE78050
:1016B40005C333CE33CED8F9120F26D082D083EEB1
:0516C400F0A3EFF0228D
:0319DE00906318FB
:1019E100120F3B90631AF0E4906319F0906319E0D1
:1019F100FFC394075065120EE98005C333CE33CE81
:101A0100D8F9FF90631AE0FDEF5D6046906318120C
:101A11000F0CC083C082906319E0D082D083120F73
:101A21002E120EC9C083C082120EF8C083C08290EC
:101A31006319E0D082D083120F2E120EE78005C306
:101A410033CE33CED8F9120F26D082D083EEF0A355
:0B1A5100EFF0906319E004F00219EDC3
:011A5C002267
:050FF3009062FFEFF029
:100FF800E4906302F0A3F0FB7D01FF121634E4FBDA
:101008007D02FF1216349063007401F0E4906301CE
:10101800F0906301E0FFC394075049906300E0FE3D
:10102800120F0EEF120F7F120EC9C083C082120F6B
:1010380065120EFEC083C082906301E0D082D08327
:10104800120F2E120EE78005C333CE33CED8F91215
:101058000F1CD082D083EEF0A3EFF0906301E00480
:10106800F0021019906300E004F0E06403709D90B2
:1010780062FFE0906303F0906302E004F0A3E07580
:10108800F00A84F070F19062FFE0C3946440127B30
:10109800017D01E4FF1216347B017D02E4FF121684
:1010A800349063007401F0906300E0FFC394035030
:1010B80034906302E0B40105EF640260209063009D
:1010C800E0FFC374039FFF9062FFE075F00A84ADF0
:1010D800F01219DE9062FFE075F00A84F090630068
:0510E800E004F080C2ED
:0110ED0022E0
:1024DE00EF700F906282E054FBF0ED6016E0440462
:1024EE00800D906282E054F7F0ED6007E04408F052
:0424FE00A3E0F02245
:10267100EF700AFD7F011224DE0D1F8008E4FDFFCB
:092681001224DE0D0F1224DE22EA
:10250200EF700F90627FE054EFF0ED6016E0441040
:10251200F02290627CE054DFF0ED6007E04420F0AE
:04252200A3E0F02220
:10268A00EF700AFD7F011225020D1F8008E4FDFF8D
:09269A001225020D0F1225022287
:0312C20090631B1B
:1012C500120F3B90631DF0E490631CF090631CE0EB
:1012D500FFC39407400302139390631BE0FE120FB4
:1012E5008575F002EF12043F120EC9C083C0821249
:1012F5000F65120F93C083C08290631CE0FBD08200
:10130500D083120F2E120EE78005C333CE33CED80D
:10131500F9120F1CD082D083EEF0A3EFF07E00749B
:1013250001A803088005C333CE33CED8F9FF9063F7
:101335001DE0FDEF5D604E90631BE0FF120F85C061
:1013450083C08290631CE0D082D083120F2E120ED0
:10135500C9C083C082E0FCA3E0FDEF120F93C083F8
:10136500C08290631CE0D082D083120F2E120EE74C
:101375008005C333CE33CED8F9120F26D082D08361
:0E138500EEF0A3EFF090631CE004F00212D132
:011393002237
:10279E00EF90627A6008E04402F0A3E0F022E05489
:0327AE00FDF02219
:0F284700EF90627A6004120FA122E054FEF0229B
:0F285600EF90627E6004120FA122E054FEF02288
:061B5A009062EA12040291
:101B6000E49062EFF09062EFE0FFC39406503CC354
:101B700074059FFFC007E47B0AFAF9F89062EA1245
:101B800003EA120331AF03AD07D0071212C290620D
:101B9000EA1203EAE47B0AFAF9F81203319062EAE6
:101BA0001204029062EFE004F080BA9062EEE0600E
:101BB000087F0112279E1F8006E4FF12279E0F1246
:051BC000284712285621
:011BC50022FD
:101C9600906000120EF1906002E0FF7022120F4970
:101CA6004052E4F0A3F0906003E004F0E0940C40AE
:101CB600439060027401F0E4906000F0A3F022EF1C
:101CC600B40115C3906001E094C8120F504025E49A
:101CD600F0A3F0A37402F022906002E0B4021512A1
:101CE6000F494010E4F0A3F0906003E0D394004065
:041CF60003E014F003
:011CFA0022C7
:01294800226C
:101D5E00906004120EF1906006E0FF701C120F5797
:101D6E00404CE4F0A3F0906007E094055004E004CA
:101D7E00F0229060067401F022EFB40115C390605A
:101D8E0005E09490120F5E4025E4F0A3F0A37402D8
:101D9E00F022906006E0B40215120F574010E4F0E6
:0E1DAE00A3F0906007E0D394004003E014F02F
:011DBC002204
:10280A0090601EE0B40108906049120EF1D20E22C7
:0729400090601E7401F022FB
:1027B100C390604CE094FF90604BE094FF50031293
:0327C1000EF122F4
:101A5D00C390604CE094DB90604BE09401406FE4E8
:101A6D00F0A3F09062CEE06018906278E013A3E0EE
:101A7D001330E006E054FDF08007906279E04402F7
:101A8D00F09062CFE0602590627CE01313543F30FC
:101A9D00E00AE054FBF0E054F7F0801090627CE037
:101AAD004404F0A3E0F090627C120FA99062D0E0A4
:101ABD00601C90627CE0C4131313540130E005E008
:0F1ACD00547FF02290627CE04480F0A3E0F0228E
:10249300906008120EF1C3906009E094F490600814
:1024A300E094014010120F3470047F0180027F001A
:0524B30090600AEFF04B
:0124B8002201
:1023C10090600B120EF1C390600CE094F490600BDE
:1023D100E094014015120F34FF12186090600DE077
:0A23E10004F0E0C394224002E4F08F
:0123EB0022CF
:1023EC0090600E120EF1C390600FE094F490600EAA
:1023FC00E094014015120F34FF1218E0906010E0C9
:0A240C0004F0E0C394194002E4F06C
:0124160022A3
:10241700906011120EF1C3906012E094F490601175
:10242700E094014015120F34FF12195F906013E01A
:0A24370004F0E0C3940E4002E4F04C
:012441002278
:10222900906014120EF1C3906015E094F49060145C
:10223900E094014023120F34FB7009FF1228381271
:1022490016C98006EB14FF1226EB906016E004F025
:08225900E0C394084002E4F028
:01226100225A
:10244200906017120EF1C3906018E094C890601764
:10245200E094004015120F34FF120FF3906019E060
:0A24620004F0E0C394C84002E4F067
:01246C00224D
:101C300078547C627D017BFF7A2579267E007F24A3
:101C400012011590601A120EF1C390601BE094C847
:101C500090601AE09400403D120F3425E025E02406
:101C600054F582E43462F5831203EA90601DE0903B
:101C700062EEF0121B5A90601DE070047F0180023A
:101C80007F0090601DEFF090601CE004F0E0C394D2
:051C9000094002E4F030
:011C9500222C
:01294900226B
:100BC3005362900A0000000003324100000000005D
:0E0BD30001FF292800004562A301010203046E
:0F286500EC75F005A424A3F582E43462F5832218
:0D28ED0078C0E24420F278C3E254F3F222F6
:092928002085037F01227FFF22BC
:101FF000E4FEFCFBEDB401030B8016EDB403047B9F
:1020000002800EEDB404047B038006EDB405027B70
:1020100004ECC39401501B122865E0B50711122887
:1020200065E5822BF582E43583F583E0FE80030CC1
:0420300080DFAF0698
:012034002289
:102035009062A1E0603CE0FFA3E0FD121FF0E49098
:1020450062A1F0A3F0EF24FE60150470259062C52F
:10205500E06004E4F080189062C57401F08010908F
:1020650062C5E0700D9062C112040E0000000012FE
:0220750026083B
:012077002246
:1015B4000225CEE493A3F8E493A34003F68001F25A
:1015C40008DFF48029E493A3F85407240CC8C33338
:1015D400C4540F4420C8834004F456800146F6DF07
:1015E400E4800B01020408102040809008ACE47EE3
:1015F400019360BCA3FF543F30E509541FFEE493FC
:10160400A360010ECF54C025E060A840B8E493A3C2
:10161400FAE493A3F8E493A3C8C582C8CAC583CAED
:10162400F0A3C8C582C8CAC583CADFE9DEE780BEA5
:010BE1000013
:10004500E709F608DFFA8046E709F208DFFA803E9D
:1000550088828C83E709F0A3DFFA8032E309F6088A
:10006500DFFA8078E309F208DFFA807088828C83F2
:10007500E309F0A3DFFA806489828A83E0A3F608A6
:10008500DFFA805889828A83E0A3F208DFFA804C80
:1000950080D280FA80C680D4806980F28033801057
:1000A50080A680EA809A80A880DA80E280CA8033C0
:1000B50089828A83ECFAE493A3C8C582C8CCC58338
:1000C500CCF0A3C8C582C8CCC583CCDFE9DEE78008
:1000D5000D89828A83E493A3F608DFF9ECFAA9F087
:1000E500EDFB2289828A83ECFAE0A3C8C582C8CCDD
:1000F500C583CCF0A3C8C582C8CCC583CCDFEADEF6
:10010500E880DB89828A83E493A3F208DFF980CC57
:1001150088F0EF60010E4E60C388F0ED2402B40450
:100125000050B9F582EB2402B4040050AF232345F7
:0601350082239000957387
:10013B00BB010689828A83E0225002E722BBFE02C2
:09014B00E32289828A83E49322F5
:10015400BB010CE58229F582E5833AF583E0225060
:1001640006E92582F8E622BBFE06E92582F8E222AA
:0D017400E58229F582E5833AF583E49322C4
:10018100BB010FF8E58229F582E5833AF583E02882
:10019100F0225009C58229F8E58226F622BBFE0924
:1001A100C58229F8E22582F222F8EA2583F583E95E
:0301B1009328226E
:1001B400BB010689828A83F0225002F722BBFE012A
:0201C400F32224
:1001C600F8BB010DE58229F582E5833AF583E8F06F
:1001D600225006E92582C8F622BBFE05E92582C81B
:0201E600F22203
:1001E800BC000BBE0029EF8DF084FFADF022E4CCFB
:1001F800F875F008EF2FFFEE33FEEC33FCEE9DECC4
:10020800984005FCEE9DFE0FD5F0E9E4CEFD22ED09
:10021800F8F5F0EE8420D21CFEADF075F008EF2F53
:10022800FFED33FD4007985006D5F0F222C398FD44
:050238000FD5F0EA22E1
:10023D00C5F0F8A3E028F0C5F0F8E582158270024C
:06024D001583E038F022E9
:10025300BB0110E58229F582E5833AF583E0F5F0E9
:10026300A3E0225009E92582F886F008E622BBFEC6
:100273000AE92582F8E2F5F008E222E5832AF5830C
:08028300E993F5F0A3E99322D1
:0D028B00EF2BFFEE3AFEED39FDEC38FC22C2
:0E029800C3EF9BFFEE9AFEED99FDEC98FC2261
:1002A600E88FF0A4CC8BF0A42CFCE98EF0A42CFCF7
:1002B6008AF0EDA42CFCEA8EF0A4CDA8F08BF0A475
:1002C6002DCC3825F0FDE98FF0A42CCD35F0FCEBD4
:1002D6008EF0A4FEA9F0EB8FF0A4CFC5F02ECD3999
:0F02E600FEE43CFCEAA42DCE35F0FDE43CFC2206
:1002F50075F008758200EF2FFFEE33FECD33CDCCC0
:1003050033CCC58233C5829BED9AEC99E582984042
:100315000CF582EE9BFEED9AFDEC99FC0FD5F0D61F
:10032500E4CEFBE4CDFAE4CCF9A88222B800C1B949
:100335000059BA002DEC8BF084CFCECDFCE5F0CB87
:10034500F97818EF2FFFEE33FEED33FDEC33FCEBC0
:1003550033FB10D703994004EB99FB0FD8E5E4F97B
:10036500FA227818EF2FFFEE33FEED33FDEC33FC68
:10037500C933C910D7059BE99A4007EC9BFCE99A5C
:10038500F90FD8E0E4C9FAE4CCFB2275F010EF2FA1
:10039500FFEE33FEED33FDCC33CCC833C810D707A1
:1003A5009BEC9AE899400AED9BFDEC9AFCE899F8DC
:0E03B5000FD5F0DAE4CDFBE4CCFAE4C8F9226F
:1003C300EB9FF5F0EA9E42F0E99D42F0EC6480C8B1
:0603D30064809845F02251
:1003D900EB9FF5F0EA9E42F0E99D42F0E89C45F07A
:0103E90022F1
:0C03EA00E0FCA3E0FDA3E0FEA3E0FF2286
:0C03F600E0F8A3E0F9A3E0FAA3E0FB228A
:0C040200ECF0A3EDF0A3EEF0A3EFF0226D
:10040E00A8828583F0D083D082120425120425128F
:10041E000425120425E473E493A3C583C5F0C583B4
:10042E00C8C582C8F0A3C583C5F0C583C8C582C838
:01043E00229B
:0C043F00A42582F582E5F03583F58322C8
:09044B00E0FBA3E0FAA3E0F922B2
:10045400F8E0FBA3A3E0F925F0F0E5821582700231
:070464001583E0FA38F022D5
:09046B00EBF0A3EAF0A3E9F02292
:10047400BB010DE58229F582E5833AF58302044B3D
:100484005007E92582F8020503BBFE07E92582F837
:1004940002050CE58229F582E5833AF58302051508
:0604A4008A838982E473E3
:1004AA00EC8EF0A4CCC5F0CCCDF8EFA4CEC5F02DDF
:1004BA00FDE43CFCE8A42EC8C5F03DFDE43CFCEF9D
:0D04CA00A4FFE5F028FEE43DFDE43CFC222B
:10054700E508242CF582E43462F583E0050822905F
:10055700622930070390622CE475F00112045402FB
:10056700013B2000E97F2ED2008018EF540F249022
:10057700D43440D4FF30040BEF24BFB41A00500327
:100587002461FFE50960021509050CE50C700205F9
:100597000B30070E906229E475F001120454EF0244
:1005A70001B40228747403D2078003E4C207F50874
:1005B70090622912046BE4F509F50BF50CE5096067
:1005C700077F2012058A80F5750AFFC201C200C2A3
:1005D70002C203C205C206C208120556FF700D30DB
:1005E70007057F0012059BAF0CAE0B22B4255FC237
:1005F700D5C204120556FF24D0B40A00501A75F06C
:100607000A780930D50508B6FF0106C6A426F620E4
:10061700D5047002D20380D924CFB41A00EF500456
:10062700C2E5D20402079CD20180C6D20080C0D2A4
:100637000280BCD2D580BAD20580B47F2012058A49
:100647002002077401B5090040F1120547FF1205A2
:100657008A0205C4D208D2068095120547FB120507
:1006670047FA120547F94A4B7006796D7A087BFFFE
:1006770020022EE509602A7E008E82758300120112
:100687005460060EEE650A70F0C2D5EBC0E0EAC012
:10069700E0E9C0E0EE1207E3D0E0F9D0E0FAD0E0FD
:1006A700FB12013BFF60AAEBC0E0EAC0E0E9C0E053
:1006B70012058AD0E02401F9D0E03400FAD0E0FB3B
:1006C700E50A0460DCD50AD980877BFF7A0779DFE2
:1006D700D202809C791080027908C206C20880087D
:1006E700D2D5790A8004790AC2D5E50A047002F5E1
:1006F7000AE4FAFDFEFF120547FC7B0820011312EE
:100707000547FD7B1030000A120547FE120547FF1B
:100717007B20EC3382D592D55013C3E43000069F7B
:10072700FFE49EFEE42001039DFDE49CFCE4CBF87E
:10073700C201EC700CCFCECDCCE824F8F870F38072
:1007470017C3EF33FFEE33FEED33FDEC33FCEB3332
:10075700FB994002FB0FD8E9EB300105F8D0E0C464
:1007670048B201C0E00AEC4D4E4F78207B0070C2C2
:10077700EAB50A0040BCC0E01207E5D0F0D0E0209F
:100787000104C4C0E0C4B201C0F0120573D0F0D5B3
:10079700F0EB0205C412052106615306DB58063249
:1007A7004C062E4206DF4F06E74406E74906474355
:0807B70006ED5506D14606D1FE
:1007BF004506D147088D5006362D063A2E065D2B7D
:1007CF00063E23065B2008762A05F64800000655EC
:1007DF003F3F3F00790AA2D5200314300509B91015
:1007EF00020404B9080104A2D52006025001042016
:1007FF0002689202B509005034C0E07F203003191F
:10080F007F30A20272067205500F12083CC202C25C
:10081F0006C205C2087F30800F300503E9C0E01221
:10082F00058A300503D0E0F9D0E0B509CC300517C3
:10083F007F30B9100C12058A7F583004077F7880FB
:10084F0003B9080312058A3002057F2D02058A7F3E
:10085F00202008F87F2B2006F322920280CF286EEB
:10086F00756C6C2900D2011205473001F8C201786E
:10087F000930D50108F60205F62D504349581205E7
:10088F00472403B405004001E49008889312057BC8
:0D089F00743A12057BD2037509040206DBD2
:1004D700EF4E6012EF60010EEDBB010B89828A833C
:1004E700F0A3DFFCDEFA2289F05007F709DFFCA949
:0C04F700F022BBFEFCF309DFFCA9F022A0
:09050300E6FB08E6FA08E6F9221D
:09050C00E2FB08E2FA08E2F92220
:0C051500E493FB740193FA740293F92242
:10052100D083D082F8E4937012740193700DA3A369
:1005310093F8740193F5828883E47374029368607D
:06054100EFA3A3A380DF7D
:00000001FF
