:0300000002113CAE
:10113C00787FE4F6D8FD9060007F007E07E4F0A392
:0A114C00DFFCDEFA7581200211912C
:0C000300000000000000000000000000F1
:0B24EA00EF1FAC0670011E4C70F622C4
:10002700AB07AA06EB1BAE0270011A4E600C7FAA43
:0B0037007E051224EA75D9AA80EA2297
:100D8800907120E04480F07F057E001224EAE4FFA1
:100D9800FE12002775A75575AC5C9071327450F03F
:100DA8009071307403F0907136742FF090715C7408
:100DB80003F090715BE054FCF07F18EF2466FDE4CB
:100DC80034718D82F583E4F00FEFB433EE90401167
:100DD800E4935407FF90711CE054F84FF0904017CB
:100DE800E493547FFF90711DE054804FF0904010C1
:100DF800E493FF5401C43333335480FE907123E0ED
:100E0800547F4EF0EFC313543F4440FFA3E0548097
:100E18004FF0904012E493FF540FFE907146E05457
:100E2800F04EF0EFC4540FFF90714FE054F04FF0C4
:100E3800904013E493543FFF907140E054C04FF04A
:100E4800904014E493907126F0904015E4939071CB
:0B0E580028F0904016E49390712AF0FF
:010E6300226C
:101D7800E5B154CF42B153A8BFD2AF75D102789C18
:101D8800E254E3F2E2441CF2E254FCF2E24401F2CF
:101D980008E2547FF2E24420F278A17401F2187448
:101DA80076F2789CE2541FF2E244C0F243A8402243
:030021000212FDCB
:1012FD00C0E0C0F0C083C082C0D075D000C000C0B7
:10130D0001C002C003C004C005C006C007789DE23D
:10131D0030E747E24480F290629CE0FEA3E0FFE4F8
:10132D00FCFD7BFF7AFFF9F8D31202CD400A9062E3
:10133D009CE475F001120147906246E0C394FF50A2
:10134D0003E004F012234012235790629EE475F0DF
:10135D0001120147122329122151D007D006D005C1
:10136D00D004D003D002D001D000D0D0D082D08311
:05137D00D0F0D0E032C9
:101FC300E5B254FC42B253A9FED2AF75D10490716D
:101FD300057409F0907104745FF0907101E0547F0F
:101FE300F0E04420F0907100E0E4F0E044C1F043FD
:031FF300A901221F
:030024000222C9EC
:1022C900C0E0C083C082907101E030E704E044803F
:0822D900F0D082D083D0E03286
:04042B004162D20058
:10238500907123E054D8F0E04459F0227869E24492
:0623950001F29062D22269
:10212B0078C3E24403F218E2440CF2786AE2447991
:10213B00F27591FF9071227407F0439E70439940A2
:06214B0043AA04D2AF22FA
:102201005399E0EF24FE600B04700E12238543996D
:102211000480061223854399017869E24448F22239
:101EAD009062D2E014601914601D14602614600451
:101EBD00240470257F011222019062D27401F02258
:101ECD001223917402F0227F021222019062D274C9
:0A1EDD0003F0221223917404F02296
:0300420002138224
:10138200C0E0C0F0C083C082C0D075D000C000C031
:0D13920001C002C003C004C005C006C007B2
:10139F00786BE230E142E24402F2AF93EF75F01066
:1013AF00A4FFE594C4540FFDEF4DFF906294E5F058
:1013BF00F0A3EFF09062D2E024FC601124027018C9
:1013CF00906294E0FEA3E0FF122029800B906294BC
:0813DF00E0FEA3E0FF1221E093
:1013E700D007D006D005D004D003D002D001D0005A
:0B13F700D0D0D082D083D0F0D0E03204
:1021BF009062DCF09062C902035590000612005E37
:1021CF00FE90000802005E9000091200D090000CF3
:0121DF0022DD
:10076D00E49062DCF07FFFA374FFF09062C9120386
:10077D007590000112005EFE120045FDEEC39D5006
:10078D00030208FF1221C3900001E41200D0900073
:10079D000E12037E1203AEEFF460089062C874234C
:1007AD00F080099062C8E06003E014F01221C3905C
:1007BD00000312005E6F601590000512005E600D63
:1007CD00900004E41200D09000030208FB90000595
:1007DD0012005EFE90000412005EC39E500B1221AB
:1007ED00C3900004740102008B1221C39000021209
:1007FD00005E6F6048EFF4701C1221C9C39E400A61
:10080D0074051221BF90000280611221C390000A6D
:10081D0074010208F21221C390000874011221D94B
:10082D0012005E6F9062C9600C12035574011221A3
:10083D00D6EF0208F2120355900009803DEFF470D7
:10084D00411221C390000912005ED394005003029F
:10085D0008F590000B12005EFE90000A12005ED3A8
:10086D009E401174011221BF90000C12005E906227
:10087D00DDF080541221C390000A740112008B0226
:10088D0008F51221C31221D0C394FF50089000081F
:10089D00740112008B1221C9B506089062DC740335
:1008AD00F080201221C39000071221CC6E70399078
:1008BD0062DC74041221C290000612005E900008E2
:1008CD001200D09062DDEFF01221C3E41221D67434
:1008DD00FF1200D09062DDE09000111200D0906206
:1008ED00DCE09000121200D01221C3900002EF1232
:0208FD0000D029
:0108FF0022D6
:1023FA0075AF3F8FAF75AEB975A402E5A530E1FBA5
:01240A0022AF
:101F580090629012037575AF3F8FAF906293E0C3A4
:101F680094014022E5A530E0FB906290E475F00111
:101F780012035E120045F5A675AEB975A40190620C
:071F880093E014F080D52264
:101F8F00906290120375906293E06027AE070FEE98
:101F9F002400FDE4343F8D82F583E493FE9062903C
:101FAF00E475F00112035EEE1200BE906293E0142E
:041FBF00F080D322B9
:05042F004262430000E1
:0724FE007B017A62792D22B7
:10232900C3906244E094FF906243E094FF5007E455
:0723390075F00112014722BB
:101FF600E4906289F0A3F0EE30E703D38001C39248
:1020060092D291EF25E0FFEE33FEC291906289E411
:1020160075F001120147906289E07004A3E0641034
:0220260070D573
:012028002295
:061D3600906285120375A6
:101D3C00C291C283E4906288F0906288E0C39D50A7
:101D4C0024906285120355906288E075F002A4F528
:101D5C008285F08312015DFFAEF0121FF69062884F
:0B1D6C00E004F080D4D283C283C29256
:011D77002249
:10225F00C3906244E09432906243E09400400CE4F7
:0C226F00F0A3F01224FE7D0B121D36229D
:101ADA007E007F167D001224FE1203E178D2E254C2
:101AEA00F3F2E24404F2907187E4F0E254CFF2E2B6
:101AFA004410F2A3E4F078C2E2543FF2E24440F226
:101B0A00907181E4F0E254FCF2E24401F290717EB9
:101B1A00E4F0C292C291C283C2801224FE7D0B02FB
:021B2A001D3666
:1023B000121C21121ADA121D78121FC37F017E002F
:0323C000020027F1
:10219C00120D8875D95590715EE054FEF075D9BB5F
:1021AC001223B012250D7F17120B9575D9AA122286
:0321BC005F80F849
:0D24840078E0E24401F278E2E254FCF2223A
:01250C0022AC
:10043400C1014461C7000000004461CB000000001A
:100444004461CF000000004461D30000000041611A
:10045400D700602861D80000000000000000000000
:100464000000000000000000000000000000000088
:1004740000000000000000000000000000004162D5
:100484000000C1004261C200004161C4004161C575
:010494000067
:101BD0009062A8E0FF24D8F582E43461F583229076
:101BE00062A0FEFDFC020300906280E0FF9061C5F0
:101BF000E0221202F4EF2401FFE43EFEE43DFDE4A6
:101C00003CFC229061CB020300E4FAF9F802023BAB
:101C10009F9062D5F0E0FFC3940A22E4FDFC02032A
:011C200000C3
:10239B00E4FE74D82E121BD7EFF00EEEB428F3E444
:0423AB00906200F04C
:0123AF00220B
:1022E100906200E0121BD5EFF0906200E004F0E094
:0822F100C394284002E4F0222E
:100FEE009062A912031800000000E49062ADF0A315
:100FFE0074FFF0E49062A8F09062A9120300906270
:10100E00A8E0121BD5E0FFE4FCFDFE1201959062F4
:10101E00A912030C121BD0E0FE9062ADE0C39E50ED
:10102E000B74D82F121BD7E09062ADF0121BD0E0DC
:10103E00FE9062AEE0D39E400B74D82F121BD7E009
:10104E009062AEF09062A8E004F0E0642870A9907F
:10105E0062A91202F4C006C0079062AEE0FF906271
:10106E00ADE02FFFE433AB07FA3395E0F9F8D00784
:10107E00D0061201A29062A912030CE47B26FAF9A3
:0A108E00F89062A91202F402023B7E
:0D24910078D3E254F3F278D0E24420F22236
:101E71009061CF1202F4121C031201959061CF12EE
:101E8100030C9061CB120318000000009061D31283
:101E910002F49061C71203001201959061D31203FD
:0C1EA1000C9061C7120318000000002222
:1018B6009061C2E475F001120147C39061C3E094E0
:1018C600149061C2E09400402FE4F0A3F09061CB45
:1018D600121BF29061CB12030CE47F587E02FDFCD2
:1018E600121C03C31202E3400F20010C9061CB12BD
:1018F600031800000000D20130951520000F9061FA
:10190600C7121BF29061C712030C121E71D200227D
:02191600C2000D
:0119180022AC
:100C90009062A0120318000000009062A4120318D2
:100CA000000000007FF47E019061CF121C1BC31274
:100CB00002E35006200103020D877F2E7E0490611F
:100CC000D3121C1B1201B07B03121C099062A412E8
:100CD000030C300123E4FF9061D3121BE2C3120224
:100CE000E39062A0600912031800000001802C123A
:100CF0000318000000008023E47F24FEFDFC9062C6
:100D0000A41203001201B07B0A121C099061CF12D9
:100D1000030012023B9062A012030C906298120230
:100D2000F49062A412030012019590629812030CD1
:100D30009061D3120318000000009061CF120318D5
:100D400000000000C201E4FF121BDFD31202E340E7
:100D500015E47F66121BDF1201B0E47B64121C0AEB
:100D60009062A012030CE47FC7121BDFD31202E3D0
:100D7000400A9062A0120318000000C79062A012FF
:070D800002F4906280EFF025
:010D87002249
:0D249E009061D7E0C394FF5003E004F022EA
:100A75009061C4E0701A04F0906280E09061C5F066
:100A8500906280E09061C6F0906280E0FF12239B47
:100A95009061D7E0C3944B5003020B94E4F0121B12
:100AA500E8D39F403B121BE8121C105003020B3287
:100AB500EF943240089062D47414F08011EFC3941F
:100AC500149062D44005740AF080037405F09061B7
:100AD500C5E0FF9062D4E0FEC3EF9E9061C5803B08
:100AE500121BE8C39F5046E0FF906280E0C3121CD2
:100AF50010403AEF943240089062D47414F080119B
:100B0500EFC394149062D44005740AF08003740511
:100B1500F09062D4E0FF9061C5E02FF0906280E034
:100B2500FF12239B906280E09061C6F02290628064
:100B3500E0FF1222E1120FEE9062D3EFF0E0C394D2
:100B45000A5007E09061C6F080259061C6E075F017
:100B550003A4FDACF09062D3E075F007A42DFFE58A
:100B6500F03CFE7C007D0A1200F29061C6EFF09029
:100B750061C6E09062D3F0121BEBD39F4004E014F2
:0F0B8500F0229062D3121BEBC39F5003E004F0E9
:010B9400223E
:1004950042626E00004262700000C10241625D006E
:0804A50041625E0041625F004C
:0D24B80090626A020300E475F00102014722
:0D24AB0078C2E254CFF278C0E24404F2227D
:101DB8009062661202F4906260120300120195901C
:101DC800626612030C906260120318000000001291
:101DD80024B8906264E0FEA3E0FFE4FCFD120195E4
:0E1DE80090626A12030CE4906264F0A3F02291
:101A860090625DE004F0E0C394144020E4F09062BC
:101A9600641224BFC3906265E09458906264E09437
:101AA600024009200306E4F0A3F0D203308222208C
:101AB600021C9062601202F4EF2401FFE43EFEE491
:101AC6003DFDE43CFC90626012030C121DB8D2028C
:031AD60022C20227
:011AD90022EA
:1015FF00E47FF47E01FDFC1224B8C31202E3500312
:10160F0030036A30030EC2039062CC12031800003D
:10161F000000801CE47F607EEAFDFC90626612038E
:10162F00001201B01224B812023B9062CC12030CCC
:10163F009062661203180000000090626A1203188D
:10164F0000000000E47FFF7EFFFDFC9062CC1203E0
:10165F0000C31202E3400A9062CC1203180000FF8D
:0D166F00FF9062CC1202F490627C12030C1A
:01167C00224B
:10217700C390626FE094FF90626EE094FF50031289
:1021870024BEC3906271E094FF906270E094FF50A8
:05219700031224BE222A
:10229700E47BE87A03F9F890627C1202F412023BBD
:0822A700EFD3940C40027F0C00
:0122AF00220C
:1017E600E49062E6F090625FE0700A04F0122297DD
:1017F60090625EEFF0C390626FE094C890626EE014
:1018060094004045E4F0A3F01222979062E6EFF0D0
:1018160090625EE0FEC39F5005E004F08016906281
:10182600E6E0FFEED39F400C90625EE0D39400406A
:1018360003E014F090625EE0C39408400790628271
:091846007401F022E4906282F0CA
:01184F002276
:0804AD004162970041629600D4
:1022F9001202F4EF2401FFE43EFEE43DFDE43CFC60
:0823090022120300C30202E3EB
:100F3600C390629DE094E890629CE09403400F3079
:100F4600040C12227BC204E490629CF0A3F0E47FBE
:100F5600E87E03FDFC90629812230A40657F187EA6
:100F6600C67D9A7C3B90627212230A500C90627284
:100F76001222F990627212030C7F9C7EE07DF57C52
:100F86000590627612230A500C9062761222F9902E
:100F9600627612030C9062981202F4C3EF94E8FF93
:100FA600EE9403FEED9400FDEC9400FC9062981222
:020FB600030C2A
:100FB800906296E004F0E0C3940A4004E4F0D2049E
:100FC800906297E0600FC390629FE094E890629E01
:100FD800E094034010E490629EF0A3F090629704BE
:050FE800F090627AE0C8
:010FED0022E1
:1004B50042616C000042616E0000602861700000BE
:1004C5000000000000000000000000000000000027
:1004D5000000000000000000000000000000000017
:1004E500000000000000416198004161690060283A
:1004F50061990000000000000000000000000000FD
:1005050000000000000000000000000000000000E6
:10051500000000000000000000004161C1004161D1
:060525006A0041616B0059
:101E340025E02470F582E43461F583EEF0A3EFF03D
:101E44002225E02499F582E4346122F583E0FEA39F
:101E5400E0FFE4FCFD020195121C689062E7EFF0DC
:0D1E640090616B22E47B14FAF9F80202F49D
:0B24D200E4FDED121E340DEDB414F714
:0124DD0022DC
:1021E000906169E0700504F00224D2906198E012D9
:1021F0001E34906198E004F0E0C394144002E4F0CF
:0122000022BB
:101DF6009062B012031800000000E49062AFF09009
:101E060062B01203009062AFE025E02470F582E430
:101E16003461121E4F9062B012030C9062AFE00460
:0E1E2600F0E0B414DA9062B0121E6802023BC3
:10234000C390616DE094FF90616CE094FF5007E4EE
:0723500075F00112014722A4
:10235700C390616FE094FF90616EE094FF5007E4D3
:0723670075F001120147228D
:0E242C00E4FDED121E45121E3D0DEDB414F43C
:01243A00227F
:1022B0009061C1E0121E45121E3D9061C1E004F024
:0922C000E0C394144002E4F02292
:101F20009062B512031800000000E49062B4F090D3
:101F300062B51203009062B4E0121E45121E4F906B
:101F400062B512030C9062B4E004F0E0B414E090C7
:081F500062B5121E6802023B9B
:101C6800E4FDC3EF94AAEE940540028036C3EF94D6
:101C7800B4EE940440047D018029C3EF94BEEE9431
:101C88000340047D02801CC3EF94C8EE9402400414
:101C98007D03800FC3EF94D2EE940140047D04804D
:051CA800027D05AF05FF
:011CAD002214
:10109800E49062E7F0C390616DE094C890616CE001
:1010A8009400500302113BE4F0A3F0121DF67C07F4
:1010B8007DD01203B4E4FB7A10F9F812023BAB07B7
:1010C800AA0690616AE0701C04F012242C121E5CBF
:1010D800F0700A906284E0701204F0800EE490626E
:1010E80084F08007AE02AF031222B0C390616FE0B4
:1010F800948890616EE094134039E4F0A3F0121FD5
:1011080020121E5CE0FEC39F5005E004F0801090A2
:1011180062E7E0FFEED39F400690616BE014F09029
:10112800616BE07009906284E0700804F022E4903A
:031138006284F0DE
:01113B002291
:10052B0060286204000000000000000000000000D2
:10053B0000000000000000000000000000000000B0
:10054B0000000000000000000000000041622C00D1
:04055B0041620100F8
:0C24DE0025E02404F582E43462F583223A
:10240B00E4FDED1224DEEEF0A3EFF00DEDB414F2CB
:01241B00229E
:10202900906201E0700A12240B9062017401F0229F
:1020390090622CE01224DEEEF0A3EFF090622CE027
:0A20490004F0E0C394144002E4F038
:01205300226A
:101B2C009062BA12031800000000E49062B9F090C1
:101B3C0062BA1203009062B9E01224DEE0FEA3E068
:101B4C00FFE4FCFD1201959062BA12030C9062B98D
:101B5C00E004F0E0B414D89062BA1202F4E47B14FE
:101B6C00FAF9F812023B9062BA12030C9062BA02B4
:021B7C0002F471
:10236E00C3906203E094FF906202E094FF5007E492
:07237E0075F0011201472276
:10197900C3906203E094C8906202E09400404BE493
:10198900F0A3F0121B2CE4FCFD7B607A617902F86C
:101999001201B0E47B0AFAF9F812023BE4FB7A106F
:1019A900F9F812023BEF2464FFE43EFEC3EF943CD6
:1019B900EE94284006E4906283F022C3EF9410EE7F
:0A19C900942750069062837401F029
:0119D30022F1
:10055F005362720000000000000000000000000065
:06056F0000000000000086
:101C21007B017A627985906293740AF0E4FF121F56
:101C31008F90628EE0B4C5219062851202F49062A9
:101C41007212030C9062891202F490627612030CF4
:101C510090628DE090627AF02290627A7401F0A332
:061C610074C5F012227BA5
:011C6700225A
:10227B0090627B74C5F0E4FF1223FA7B017A6279DA
:0C228B0072906293740AF0E4FF021F5886
:100575004A60233F065B4F666D7D077F6F60546061
:100585002D030D030C020D03080309030B030A03D6
:1005950000030203050307030603030304040E0413
:1005A5000C04090408040A040D040B0401050F04D6
:1005B500040406040704000402050B050A040304E9
:1005C50005050D050E050C050305020504050705C2
:1005D5000905060505602060810707070607050769
:1005E5000407080709070A070B060306040605069C
:1005F50006060706080609060A416022004260A1B0
:100605000000C1054260A30000604260A50A050A1A
:1006150002090209040907090A0909080208040868
:100625000708060809080A080C080D060A0609063F
:100635000D060F000500030002010D010C01030169
:1006450002010102040207020602080209020A6009
:100655003060E70A070A060A040A030A010A0009C4
:100665000009030905090B0908080108030805081D
:1006750008080B080E060406050606060C060E00FD
:100685000600045A61170509070607070708090147
:10069500090C090D0800080F060706020007010BE3
:1006A5004E613102020203020C020E020F02000229
:1006B50001602A613F0000090E090F0000000000DB
:1006C5000000000603070F070C0709070B070E07B5
:1006D5000D06010703070407050701070007024286
:1006E50060000000416002004160030042600400B8
:1006F500004160060041600700426008000041605B
:100705000A0041600B0042600C000041600E004190
:10071500600F00426010000041601200426013004B
:1007250000416015004260160000416018004260FB
:1007350019000041601B0042601C000041601E0062
:0907450042601F00004160210028
:100900009062D7E0FF25E02431F582E43461F5837D
:10091000E025E0242DF582E43462F58322E0FCA397
:10092000E0FDEF25E02432F582E43461F583E0FF59
:100930007E007401A8070822E475F001020147F463
:10094000FFEEF45CFEED5FFF22E0FCA3E0FDEF753F
:10095000F00EA42440F582E43461F58322E0FF75B3
:10096000F00EA4243FF582E43461F58322FFEC4EBF
:10097000FEED4FFF2275F002020349E0FCA3E0FD0B
:10098000EF25E022E0FCA3E0FDEE22EFF074232D42
:10099000F582E43460F583E022E4F0A3F0A3E022E2
:1009A000C3906001E09496906000E0940022C390B0
:1009B000600DE0942C90600CE0940122E04408F07B
:1009C000A3E0F022E014FFA3E0FED39F22ED75F038
:1009D0000202034975F00EA4242DF582E43460F57B
:1009E000832275F00EA4242EF582E43460F5832270
:1009F000E4F0A3F0A37402F022C3906005E09464D5
:100A0000906004E0940022C3906009E094C8906074
:100A100008E0940022EEF0A3EFF09062DFE004F033
:100A200022EEF0A3EFF09062E1E004F022EEF0A3FA
:100A3000EFF09062E3E004F022E04480F0A3E0F005
:100A400022EEF0A3EFF09062E5E004F02225E0242E
:100A5000A5F582E434602225E024E7F582E43460E1
:100A60002225E02417F582E434612225E02481F573
:050A700082E434602265
:10000F00906239E054FEF0EF6007E04401F0A3E0A6
:02001F00F022CD
:0F243B00906230E054FEF0EF6004E04401F022C4
:0E246800906239E054F7F0EF60031209BC22D5
:1023D60090622DE054EFF0EF6007E04410F0A3E0C8
:0223E600F022E3
:1023E80090622FE054BFF0EF6007E04440F0A3E0B4
:0223F800F022D1
:051402009062DEEFF036
:10140700E4A3F0F09062DFE0FF120A4D12090EC06C
:1014170083C08212097B24A6F582E4346012092C6A
:101427008005C333CE33CED8F912093FD082D0839B
:10143700120A15E0B421CD9062DEE0D39400403A61
:10144700E4A3F09062DE1209C4502FEE120A4D1287
:10145700090EC083C08212098425E024A6F582E420
:10146700346012092C8005C333CE33CED8F9120964
:0A1477006DD082D083120A1580C9DF
:011481002248
:051482009062E0EFF0B4
:10148700E4A3F09062E1E0FF120A5712090EC0834D
:10149700C08212097B24E8F582E4346012092C80AB
:1014A70005C333CE33CED8F912093FD082D0831289
:1014B7000A21E0B418CD9062E0E0D39400403AE40A
:1014C700A3F09062E01209C4502FEE120A571209D6
:1014D7000EC083C08212098425E024E8F582E43433
:1014E7006012092C8005C333CE33CED8F912096DAB
:0914F700D082D083120A2180C9C1
:0115000022C8
:10205400AD07906230E054DFF0E054BFF090622F9F
:10206400E054FBF0ED6013A3E04420F0E04440F0C2
:0B20740090622FE04404F0A3E0F02293
:051501009062E2EFF032
:10150600E4A3F09062E3E0FF120A6112090EC083C1
:10151600C08212097B2418F582E4346112092C80FA
:1015260005C333CE33CED8F912093FD082D0831209
:101536000A2DE0B40DCD9062E2E0D39400403AE487
:10154600A3F09062E21209C4502FEE120A6112094A
:101556000EC083C08212098425E02418F582E43483
:101566006112092C8005C333CE33CED8F912096D2A
:09157600D082D083120A2D80C935
:01157F002249
:0E247600906231E054F7F0EF60031209BC22CF
:0F244A00906232E054DFF0EF6004E04420F022B3
:05126B009062D6EFF0D7
:10127000E4A3F0120900C083C08212091D8005C3D7
:1012800033CE33CED8F912093FD082D083EEF0A30B
:10129000EFF09062D7E004F0E0B407D79062D6E0B8
:1012A000FFD39400405674232F1209909062D8F017
:1012B000E49062D7F09062D7E0FFD39407503D12DC
:1012C00009308005C333CE33CED8F9FF9062D8E021
:1012D000FDEF5D601F120900C083C08212091D80EE
:1012E00005C333CE33CED8F912096DD082D083EE48
:0C12F000F0A3EFF09062D7E004F080B9AA
:0112FC0022CF
:10231100AB07E4FF12244A12126BEB70057F010236
:08232100244AAF0312126B22E3
:1011D60090628CEBF090628AEFF0A3EDF0EF1209CB
:1011E6005F1209CD120910C083C082E0FAA3E0FBAA
:1011F60090628AE012094F1209CD12092E8005C3AA
:1012060033CE33CED8F9F4FFEEF45AFEEB5FFFD0BF
:1012160082D083EEF0A3EFF090628CE0604690629D
:101226008A12095DC083C08290628BE0D082D0832F
:10123600120975120910C083C082120949C083C001
:101246008290628BE0D082D08312097512092E80BB
:1012560005C333CE33CED8F912096DD082D083EED2
:05126600F0A3EFF022EF
:0315800090628AEC
:1015830012098B90628CF0E490628BF090628BE096
:10159300FFC3940750651209308005C333CE33CEA1
:1015A300D8F9FF90628CE0FDEF5D604690628A128D
:1015B300095DC083C08290628BE0D082D083120920
:1015C30075120910C083C082120949C083C082907A
:1015D300628BE0D082D08312097512092E8005C375
:1015E30033CE33CED8F912096DD082D083EEF0A377
:0B15F300EFF090628BE004F002158F17
:0115FE0022CA
:050B9500906285EFF005
:100B9A00E4906288F0A3F0FB7D01FF1211D6E4FB1A
:100BAA007D02FF1211D69062867401F0E49062878A
:100BBA00F0906287E0FFC394075049906286E0FE96
:100BCA0012095FEF1209CE120910C083C0821209FE
:100BDA008412094FC083C082906287E0D082D0839A
:100BEA0012097512092E8005C333CE33CED8F912F5
:100BFA00093FD082D083EEF0A3EFF0906287E00441
:100C0A00F0020BBB906286E004F0E06403709D90F2
:100C1A006285E0906289F0906288E004F0A3E07552
:100C2A00F00A84F070F1906285E0C3946440127B0C
:100C3A00017D01E4FF1211D67B017D02E4FF12114E
:100C4A00D69062867401F0906286E0FFC3940350E6
:100C5A0034906288E0B40105EF64026020906286F5
:100C6A00E0FFC374039FFF906285E075F00A84ADCC
:100C7A00F0121580906285E075F00A84F090628621
:050C8A00E004F080C24F
:010C8F002242
:10222100E4906237F0A3E05401F0E4906237F0A348
:10223100E05402F0EF6008E04401F0E04402F022D3
:030E64009062D9C0
:100E670012098B9062DBF0E49062DAF09062DAE0CC
:100E7700FFC394074003020F359062D9E0FE1209C1
:100E8700D475F002EF120349120910C083C0821211
:100E970009841209E2C083C0829062DAE0FBD08243
:100EA700D08312097512092E8005C333CE33CED8ED
:100EB700F912093FD082D083EEF0A3EFF07E0074E1
:100EC70001A803088005C333CE33CED8F9FF90625B
:100ED700DBE0FDEF5D604E9062D9E0FF1209D4C000
:100EE70083C0829062DAE0D082D08312097512093A
:100EF70010C083C082E0FCA3E0FDEF1209E2C083CB
:100F0700C0829062DAE0D082D08312097512092E6E
:100F17008005C333CE33CED8F912096DD082D08382
:0E0F2700EEF0A3EFF09062DAE004F0020E7339
:010F35002299
:061B7E009062BE12030C90
:101B8400E49062C2F09062C2E0FFC39406503CC38A
:101B940074059FFFC007E47B0AFAF9F89062BE124D
:101BA40002F412023BAF03AD07D007120E64906239
:101BB400BE1202F4E47B0AFAF9F812023B9062BE08
:0B1BC40012030C9062C2E004F080BA33
:011BCF0022F3
:101A2E009062C312030C906233E0547FF0E054BF17
:101A3E00F0A3E054FDF0A3E0547FF0906237E05441
:101A4E00FEF07F011222219062C31202F4121B7E5D
:101A5E009062C7E0600E906233120A39906233E0F2
:101A6E004440800F906234E04402F0A3120A39A37E
:081A7E00E04401F0A3E0F022B6
:10224100AD07906239E054F7F0E054EFF0ED600D26
:0E2251001209BC906239E04410F0A3E0F022C4
:05167D009062E4EFF0B3
:10168200E4A3F09062E5E0FF120A6B12090EC08338
:10169200C08212097B2482F582E4346012092C8014
:1016A20005C333CE33CED8F912093FD082D083128C
:1016B2000A41E0B410CDE49062E5F09062E4E0FF0C
:1016C200A3E0FEC39F502FEE120A6B12090EC083D5
:1016D200C08212098425E02482F582E43460120972
:1016E2002C8005C333CE33CED8F912096DD082D007
:0616F20083120A4180C5CD
:0116F80022CF
:10191900906000120938906002E0FF70221209A05D
:10192900404DE4F0A3F0906003E004F0E0940C4033
:101939003E9060027401F0E4906000F0A3F022EFA1
:10194900B40110C3906001E094C81209A7402012A5
:1019590009F022906002E0B402151209A04010E4D7
:0F196900F0A3F0906003E0D394004003E014F08B
:01197800224C
:10185000906004120938906006E0FB701D1209F9CF
:101860004053E4F0A3F0906007E004F0E0FF941030
:1018700040409060067401F08038EBB40113C390CF
:101880006005E09490906004E0940140281209F013
:1018900022906006E0B4021D1209F94018E4F0A39A
:1018A000F0906007E0D394004003E014F0906007EC
:0518B000E0FF12167DAF
:0118B5002210
:1017740090600812093890600AE0FA7028120A078B
:101784004047E4F0A3F09062E8F01217CE40FB90DB
:10179400600BE004F0E0C3940A402E7409F09060FA
:1017A4000A7401F022EA6401701F120A07401AE465
:1017B400F0A3F090600BE0D394004003E014F0E455
:0917C4009062E8F01217CE40FB20
:1017CD00229062E8E0FF90600BE0FD120E649062E3
:0917DD00E8E004F0E0C3940622E8
:1019D40090600C12093890600EE0FF701C1209AE82
:1019E4004047E4F0A3F090600FE094055004E00455
:1019F400F02290600E7401F022EFB40110C39060E5
:101A04000DE094901209B540201209F02290600E66
:101A1400E0B402151209AE4010E4F0A3F090600F98
:091A2400E0D394004003E014F04B
:011A2D002296
:10241C00906022E0B401089060A1120938D2052224
:072505009060227401F02236
:1023C300C39060A4E094FF9060A3E094FF500312D5
:0323D300093822A4
:1016F900C39060A4E094DB9060A3E09401406BE4A4
:10170900F0A3F0906282E0601890622DE013A3E0EC
:101719001330E006E054FDF0800790622EE04402A9
:10172900F0906283E06025906231E01313543F30FA
:10173900E00AE054FBF0E054F7F08010906231E0E9
:101749004404F0A3E0F09062311209BC906284E095
:101759006018906231E0C4131313540130E005E0BE
:0B176900547FF022906231120A3922F6
:10215100906010120938C3906011E094F4906010FF
:10216100E09401401012099970047F0180027F0000
:05217100906012EFF088
:012176002246
:10207F00906013120938C3906014E094F4906013C9
:10208F00E094014015120999FF121402906015E0B7
:0A209F0004F0E0C394224002E4F0D4
:0120A9002214
:1020AA00906016120938C3906017E094F490601695
:1020BA00E094014015120999FF121482906018E009
:0A20CA0004F0E0C394194002E4F0B2
:0120D40022E9
:1020D500906019120938C390601AE094F490601961
:1020E500E094014015120999FF12150190601BE05B
:0A20F50004F0E0C3940E4002E4F092
:0120FF0022BE
:101EE70090601C120938C390601DE094F490601C48
:101EF700E094014023120999FB7009FF12244A124A
:101F0700126B8006EB14FF12231190601EE004F0A1
:081F1700E0C394084002E4F06D
:011F1F00229F
:1021000090601F120938C3906020E094C890601F4F
:10211000E094004015120999FF120B95906021E0A0
:0A21200004F0E0C394C84002E4F0AC
:01212A002292
:01250D0022AB
:10074E005362450A00000000033241000000000021
:0E075E0001FF24F5000045625801010203046A
:0F245900EC75F005A42458F582E43462F5832273
:0D24C50078C0E24420F278C3E254F3F22222
:0924F5002085037F01227FFF22F4
:101CAE00E4FEFCFBEDB401030B8016EDB403047BE4
:101CBE0002800EEDB404047B038006EDB405027BB6
:101CCE0004ECC39401501B122459E0B507111224E1
:101CDE0059E5822BF582E43583F583E0FE80030C13
:041CEE0080DFAF06DE
:011CF20022CF
:101CF300906256E0603CE0FFA3E0FD121CAEE4906E
:101D03006256F0A3F0EF24FE601504702590627A0A
:101D1300E06004E4F0801890627A7401F08010901F
:101D2300627AE0700D9062761203180000000012D0
:021D3300227B11
:011D3500228B
:1011560002219CE493A3F8E493A34003F68001F2F2
:1011660008DFF48029E493A3F85407240CC8C3339A
:10117600C4540F4420C8834004F456800146F6DF69
:10118600E4800B010204081020408090042BE47ECA
:10119600019360BCA3FF543F30E509541FFEE4935E
:1011A600A360010ECF54C025E060A840B8E493A325
:1011B600FAE493A3F8E493A3C8C582C8CAC583CA50
:1011C600F0A3C8C582C8CAC583CADFE9DEE780BE08
:01076C00008C
:10004500BB010689828A83E0225002E722BBFE02B9
:09005500E32289828A83E49322EC
:10005E00BB010CE58229F582E5833AF583E0225057
:10006E0006E92582F8E622BBFE06E92582F8E222A1
:0D007E00E58229F582E5833AF583E49322BB
:10008B00BB010FF8E58229F582E5833AF583E02879
:10009B00F0225009C58229F8E58226F622BBFE091B
:1000AB00C58229F8E22582F222F8EA2583F583E955
:0300BB0093282265
:1000BE00BB010689828A83F0225002F722BBFE0121
:0200CE00F3221B
:1000D000F8BB010DE58229F582E5833AF583E8F066
:1000E000225006E92582C8F622BBFE05E92582C812
:0200F000F222FA
:1000F200BC000BBE0029EF8DF084FFADF022E4CCF2
:10010200F875F008EF2FFFEE33FEEC33FCEE9DECBA
:10011200984005FCEE9DFE0FD5F0E9E4CEFD22ED00
:10012200F8F5F0EE8420D21CFEADF075F008EF2F4A
:10013200FFED33FD4007985006D5F0F222C398FD3B
:050142000FD5F0EA22D8
:10014700C5F0F8A3E028F0C5F0F8E5821582700243
:060157001583E038F022E0
:10015D00BB0110E58229F582E5833AF583E0F5F0E0
:10016D00A3E0225009E92582F886F008E622BBFEBD
:10017D000AE92582F8E2F5F008E222E5832AF58303
:08018D00E993F5F0A3E99322C8
:0D019500EF2BFFEE3AFEED39FDEC38FC22B9
:0E01A200C3EF9BFFEE9AFEED99FDEC98FC2258
:1001B000E88FF0A4CC8BF0A42CFCE98EF0A42CFCEE
:1001C0008AF0EDA42CFCEA8EF0A4CDA8F08BF0A46C
:1001D0002DCC3825F0FDE98FF0A42CCD35F0FCEBCB
:1001E0008EF0A4FEA9F0EB8FF0A4CFC5F02ECD3990
:0F01F000FEE43CFCEAA42DCE35F0FDE43CFC22FD
:1001FF0075F008758200EF2FFFEE33FECD33CDCCB7
:10020F0033CCC58233C5829BED9AEC99E582984039
:10021F000CF582EE9BFEED9AFDEC99FC0FD5F0D616
:10022F00E4CEFBE4CDFAE4CCF9A88222B800C1B940
:10023F000059BA002DEC8BF084CFCECDFCE5F0CB7E
:10024F00F97818EF2FFFEE33FEED33FDEC33FCEBB7
:10025F0033FB10D703994004EB99FB0FD8E5E4F972
:10026F00FA227818EF2FFFEE33FEED33FDEC33FC5F
:10027F00C933C910D7059BE99A4007EC9BFCE99A53
:10028F00F90FD8E0E4C9FAE4CCFB2275F010EF2F98
:10029F00FFEE33FEED33FDCC33CCC833C810D70798
:1002AF009BEC9AE899400AED9BFDEC9AFCE899F8D3
:0E02BF000FD5F0DAE4CDFBE4CCFAE4C8F92266
:1002CD00EB9FF5F0EA9E42F0E99D42F0EC6480C8A8
:0602DD0064809845F02248
:1002E300EB9FF5F0EA9E42F0E99D42F0E89C45F071
:0102F30022E8
:0C02F400E0FCA3E0FDA3E0FEA3E0FF227D
:0C030000E0F8A3E0F9A3E0FAA3E0FB2280
:0C030C00ECF0A3EDF0A3EEF0A3EFF02264
:10031800A8828583F0D083D08212032F12032F1274
:10032800032F12032FE473E493A3C583C5F0C58399
:10033800C8C582C8F0A3C583C5F0C583C8C582C82F
:010348002292
:0C034900A42582F582E5F03583F58322BF
:09035500E0FBA3E0FAA3E0F922A9
:10035E00F8E0FBA3A3E0F925F0F0E5821582700228
:07036E001583E0FA38F022CC
:09037500EBF0A3EAF0A3E9F02289
:10037E00BB010DE58229F582E5833AF5830203552B
:10038E005007E92582F802040DBBFE07E92582F825
:10039E00020416E58229F582E5833AF58302041FED
:0603AE008A838982E473DA
:1003B400EC8EF0A4CCC5F0CCCDF8EFA4CEC5F02DD6
:1003C400FDE43CFCE8A42EC8C5F03DFDE43CFCEF94
:0D03D400A4FFE5F028FEE43DFDE43CFC2222
:1003E100EF4E6012EF60010EEDBB010B89828A8333
:1003F100F0A3DFFCDEFA2289F05007F709DFFCA940
:0C040100F022BBFEFCF309DFFCA9F02296
:09040D00E6FB08E6FA08E6F92214
:09041600E2FB08E2FA08E2F92217
:0C041F00E493FB740193FA740293F92239
:00000001FF
