:030000000211A941
:1011A900787FE4F6D8FD9060007F007E07E4F0A325
:0A11B900DFFCDEFA7581200211FE52
:0C000300000000000000000000000000F1
:0B219500EF1FAC0670011E4C70F6221C
:10002700AB07AA06EB1BAE0270011A4E600C7FAA43
:0B0037007E0512219575D9AA80EA22EF
:100C7300907120E04480F07F057E00122195E4FF0F
:100C8300FE12002775A75575AC5C9071327450F055
:100C93009071307403F0907136742FF090715C741E
:100CA30003F090715BE054FCF07F18EF2466FDE4E1
:100CB30034718D82F583E4F00FEFB433EE9040117D
:100CC300E4935407FF90711CE054F84FF0904017E1
:100CD300E493547FFF90711DE054804FF0904010D7
:100CE300E493FF5401C43333335480FE907123E003
:100CF300547F4EF0EFC313543F4440FFA3E05480AE
:100D03004FF0904012E493FF540FFE907146E0546D
:100D1300F04EF0EFC4540FFF90714FE054F04FF0DA
:100D2300904013E493543FFF907140E054C04FF060
:100D3300904014E493907126F0904015E4939071E1
:0B0D430028F0904016E49390712AF015
:010D4E002282
:101B8B00E5B154CF42B153A8BFD2AF75D102789C07
:101B9B00E254E3F2E2441CF2E254FCF2E24401F2BE
:101BAB0008E2547FF2E24420F278A17401F2187437
:101BBB0076F2789CE2541FF2E244C0F243A8402232
:030021000212CCFC
:1012CC00C0E0C0F0C083C082C0D075D000C000C0E8
:1012DC0001C002C003C004C005C006C007789DE26F
:1012EC0030E744E24480F29061E2E0FEA3E0FFE4E8
:1012FC00FCFD7BFF7AFFF9F8D31202CD400A906116
:10130C00E2E475F00112014790618CE0C394FF5048
:10131C0003E004F012203E1220559061E4E475F0D5
:10132C0001120147122027D007D006D005D004D0D7
:10133C0003D002D001D000D0D0D082D083D0F0D056
:02134C00E0328D
:101D9D00E5B254FC42B253A9FED2AF75D104907195
:101DAD00057409F0907104745FF0907101E0547F37
:101DBD00F0E04420F0907100E0E4F0E044C1F04325
:031DCD00A9012247
:03002400021FDFD9
:101FDF00C0E0C083C082907101E030E704E044802C
:081FEF00F0D082D083D0E03273
:0404510041621D00E7
:10208300907123E054D8F0E04459F0227869E24497
:0620930001F290621D2223
:101E560078C3E24403F218E2440CF2786AE2447969
:101E6600F27591FF9071227407F0439E704399407A
:061E760043AA04D2AF22D2
:101EE3005399E0EF24FE600B04700E122083439994
:101EF3000480061220834399017869E24448F22260
:101CC00090621DE014601914601D146026146004F5
:101CD000240470257F01121EE390621D7401F0221E
:101CE00012208F7402F0227F02121EE390621D7494
:0A1CF00003F02212208F7404F0228A
:0300420002134E58
:10134E00C0E0C0F0C083C082C0D075D000C000C065
:0D135E0001C002C003C004C005C006C007E6
:10136B00786BE230E142E24402F2AF93EF75F0109A
:10137B00A4FFE594C4540FFDEF4DFF9061DAE5F047
:10138B00F0A3EFF090621DE024FC601124027018B2
:10139B009061DAE0FEA3E0FF121E03800B9061DA8E
:0813AB00E0FEA3E0FF121EC2E8
:1013B300D007D006D005D004D003D002D001D0008E
:0B13C300D0D0D082D083D0F0D0E03238
:101EA100906227F090621402035590000612005EC2
:101EB100FE90000802005E9000091200D090000C14
:011EC10022FE
:1006A600E4906227F07FFFA374FFF09062141203B8
:1006B6007590000112005EFE120045FDEEC39D50CE
:1006C60003020838121EA5900001E41200D0900023
:1006D6000E12037E1203D4EFF460089062137423A3
:1006E600F08009906213E06003E014F0121EA590FA
:1006F600000312005E6F601590000512005E600D2B
:10070600900004E41200D090000302083490000523
:1007160012005EFE90000412005EC39E500B121E75
:10072600A5900004740102008B121EA5900002120F
:10073600005E6F6048EFF4701C121EABC39E400A49
:100746007405121EA19000028061121EA590000A77
:10075600740102082B121EA59000087401121EBB1C
:1007660012005E6F906214600C1203557401121E23
:10077600B8EF02082B120355900009803DEFF47084
:1007860041121EA590000912005ED3940050030288
:10079600082E90000B12005EFE90000A12005ED337
:1007A6009E40117401121EA190000C12005E906210
:1007B60028F08054121EA590000A740112008B02C4
:1007C600082E121EA5121EB2C394FF5008900008F0
:1007D600740112008B121EABB506089062277403D3
:1007E600F08020121EA5900007121EAE6E70399082
:1007F60062277404121EA490000612005E90000880
:100806001200D0906228EFF0121EA5E4121EB874F2
:10081600FF1200D0906228E09000111200D0906282
:1008260027E09000121200D0121EA5900002EF12CF
:0208360000D0F0
:01083800229D
:10000F0075AF3F8FAF75AEB975A402E5A530E1FBB3
:01001F0022BE
:101D32009061D612037575AF3F8FAF9061D9E0C342
:101D420094014022E5A530E0FB9061D6E475F001F4
:101D520012035E120045F5A675AEB975A401906135
:071D6200D9E014F080D52246
:101D69009061D61203759061D9E06027AE070FEE36
:101D79002400FDE4343F8D82F583E493FE9061D61F
:101D8900E475F00112035EEE1200BE9061D9E01411
:041D9900F080D322E1
:05045500426189000076
:0721A9007B017A61797322CA
:10202700C390618AE094FF906189E094FF5007E4D0
:0720370075F00112014722C0
:101DD000E49061CFF0A3F0EE30E703D38001C3922B
:101DE00092D291EF25E0FFEE33FEC2919061CFE4F5
:101DF00075F0011201479061CFE07004A3E0641018
:021E000070D59B
:011E020022BD
:061B49009061CB12037550
:101B4F00C291C283E49061CEF09061CEE0C39D500C
:101B5F00249061CB1203559061CEE075F002A4F58D
:101B6F008285F08312015DFFAEF0121DD09061CE21
:0B1B7F00E004F080D4D283C283C29245
:011B8A002238
:101F4100C390618AE09432906189E09400400CE48E
:0C1F5100F0A3F01221A97D0B121B492205
:10185C007E007F167D001221A912040778D2E25473
:10186C00F3F2E24404F2907187E4F0E254CFF2E236
:10187C004410F2A3E4F078C2E2543FF2E24440F2A6
:10188C00907181E4F0E254FCF2E24401F290717E3A
:10189C00E4F0C292C291C283C2801221A97D0B02D4
:0218AC001B49D6
:1020AE001219EF12185C121B8B121D9D7F017E0000
:0320BE00020027F6
:101F7900120C7375D95590715EE054FEF075D9BB9A
:0B1F89001220AE75D9AA121F4180F88B
:0D21220078E0E24401F278E2E254FCF2229F
:0100200022BD
:10045A00C10144610D000000004461110000000068
:10046A004461150000000044611900000000416168
:10047A001D006028611E000000000000000000004E
:10048A000000000000000000000000000000000062
:10049A0000000000000000000000000000004161B0
:1004AA004600C100426108000041610A0041610B37
:0104BA000041
:101952009061EEE0FF241EF582E43461F58322906B
:1019620061E6FEFDFC0203009061C6E0FF90610BA0
:10197200E0221202F4EF2401FFE43EFEE43DFDE426
:101982003CFC22906111020300E4FAF9F802023BE6
:101992009F906220F0E0FFC3940A22E4FDFC020360
:0119A2000044
:10209900E4FE741E2E121959EFF00EEEB428F3E483
:0420A900906146F00C
:0120AD002210
:101FF700906146E0121957EFF0906146E004F0E077
:08200700C394284002E4F0221A
:10105B009061EF12031800000000E49061F3F0A31D
:10106B0074FFF0E49061EEF09061EF120300906179
:10107B00EEE0121957E0FFE4FCFDFE1201959061C2
:10108B00EF12030C121952E0FE9061F3E0C39E5075
:10109B000B741E2F121959E09061F3F0121952E0E4
:1010AB00FE9061F4E0D39E400B741E2F121959E091
:1010BB009061F4F09061EEE004F0E0642870A99088
:1010CB0061EF1202F4C006C0079061F4E0FF90617B
:1010DB00F3E02FFFE433AB07FA3395E0F9F8D007D1
:1010EB00D0061201A29061EF12030CE47B26FAF9F1
:0A10FB00F89061EF1202F402023BCC
:0D212F0078D3E254F3F278D0E24420F2229B
:101C84009061151202F412198512019590611512D2
:101C9400030C9061111203180000000090611912E6
:101CA40002F490610D120300120195906119120360
:0C1CB4000C90610D1203180000000022CB
:10174A00906108E475F001120147C3906109E094C1
:10175A0014906108E09400402FE4F0A3F090611126
:10176A0012197490611112030CE47F587E02FDFC79
:10177A00121985C31202E3400F20010C9061111265
:10178A00031800000000D20130951520000F906167
:10179A000D12197490610D12030C121C84D20022CE
:0217AA00C2007B
:0117AC00221A
:100A95009061E6120318000000009061EA12031845
:100AA500000000007FF47E0190611512199DC312AC
:100AB50002E35006200103020B8C7F2E7E04906119
:100AC5001912199D1201B07B0312198B9061EA125C
:100AD500030C300123E4FF906119121964C312025B
:100AE500E39061E6600912031800000001802C12F2
:100AF5000318000000008023E47F24FEFDFC9061C4
:100B0500EA1203001201B07B0A12198B90611512CB
:100B1500030012023B9061E612030C9061DE1202A3
:100B2500F49061EA1203001201959061DE12030C44
:100B35009061191203180000000090611512031846
:100B450000000000C201E4FF121961D31202E34064
:100B550015E47F661219611201B0E47B6412198CE9
:100B65009061E612030CE47FC7121961D31202E308
:100B7500400A9061E6120318000000C79061E61272
:070B850002F49061C6EFF0DD
:010B8C002246
:0D213C0090611DE0C394FF5003E004F02209
:1009750090610AE0701A04F09061C6E090610BF096
:100985009061C6E090610CF09061C6E0FF1220997D
:1009950090611DE0C3944B5003020A94E4F01219D0
:1009A5006AD39F403B12196A1219925003020A3208
:1009B500EF9432400890621F7414F08011EFC394D5
:1009C5001490621F4005740AF080037405F090616D
:1009D5000BE0FF90621FE0FEC3EF9E90610B803B32
:1009E50012196AC39F5046E0FF9061C6E0C3121911
:1009F50092403AEF9432400890621F7414F08011CF
:100A0500EFC3941490621F4005740AF080037405C7
:100A1500F090621FE0FF90610BE02FF09061C6E05F
:100A2500FF1220999061C6E090610CF0229061C69A
:100A3500E0FF121FF712105B90621EEFF0E0C39407
:100A45000A5007E090610CF0802590610CE075F08C
:100A550003A4FDACF090621EE075F007A42DFFE540
:100A6500F03CFE7C007D0A1200F290610CEFF090E4
:100A7500610CE090621EF012196DD39F4004E014E2
:0F0A8500F02290621E12196DC39F5003E004F01F
:010A9400223F
:1004BB004261B400004261B60000C1024161A30079
:0804CB004161A4004161A5009C
:0D2156009061B0020300E475F00102014742
:0D21490078C2E254CFF278C0E24404F222E2
:101BCB009061AC1202F49061A61203001201959081
:101BDB0061AC12030C9061A61203180000000012F6
:101BEB0021569061AAE0FEA3E0FFE4FCFD120195F3
:0E1BFB009061B012030CE49061AAF0A3F022F6
:101808009061A3E004F0E0C394144020E4F09061F8
:10181800AA12215DC39061ABE094589061AAE0944C
:10182800024009200306E4F0A3F0D203308222200C
:10183800021C9061A61202F4EF2401FFE43EFEE4CC
:101848003DFDE43CFC9061A612030C121BCBD202B6
:0318580022C202A7
:01185B00226A
:10144D00E47FF47E01FDFC122156C31202E350032A
:10145D0030036A30030EC2039062171203180000A6
:10146D000000801CE47F607EEAFDFC9061AC1203FD
:10147D00001201B012215612023B90621712030C9A
:10148D009061AC120318000000009061B0120318B7
:10149D0000000000E47FFF7EFFFDFC906217120349
:1014AD0000C31202E3400A9062171203180000FFF6
:0D14BD00FF9062171202F49061C212030C3E
:0114CA0022FF
:101E7C00C39061B5E094FF9061B4E094FF500312FD
:101E8C00215CC39061B7E094FF9061B6E094FF5081
:051E9C000312215C228D
:101F9400E47BE87A03F9F89061C21202F412023B7E
:081FA400EFD3940C40027F0C06
:011FAC002212
:1015AC00E490622BF09061A5E0700A04F0121F9495
:1015BC009061A4EFF0C39061B5E094C89061B4E081
:1015CC0094004045E4F0A3F0121F9490622BEFF0CE
:1015DC009061A4E0FEC39F5005E004F08016906279
:1015EC002BE0FFEED39F400C9061A4E0D39400401D
:1015FC0003E014F09061A4E0C3940840079061C824
:09160C007401F022E49061C8F0C1
:0116150022B2
:0804D3004161DD004161DC0024
:10200F001202F4EF2401FFE43EFEE43DFDE43CFC4C
:08201F0022120300C30202E3D8
:100FA300C39061E3E094E89061E2E09403400F3082
:100FB300040C121F5DC204E49061E2F0A3F0E47F2D
:100FC300E87E03FDFC9061DE12202040657F187EE1
:100FD300C67D9A7C3B9061B8122020500C9061B87A
:100FE30012200F9061B812030C7F9C7EE07DF57C8C
:100FF300059061BC122020500C9061BC12200F9010
:1010030061BC12030C9061DE1202F4C3EF94E8FF9B
:10101300EE9403FEED9400FDEC9400FC9061DE126F
:02102300030CBC
:101025009061DCE004F0E0C3940A4004E4F0D204EB
:101035009061DDE0600FC39061E5E094E89061E4C4
:10104500E094034010E49061E4F0A3F09061DD04C6
:05105500F09061C0E015
:01105A002273
:1004DB004260B200004260B40000602860B60000C9
:1004EB000000000000000000000000000000000001
:1004FB0000000000000000000000000000000000F1
:10050B000000000000004160DE004160AF00602889
:10051B0060DF000000000000000000000000000091
:10052B0000000000000000000000000000000000C0
:10053B000000000000000000000041610700416066
:06054B00B0004160B100A8
:101C470025E024B6F582E43460F583EEF0A3EFF0E7
:101C57002225E024DFF582E4346022F583E0FEA349
:101C6700E0FFE4FCFD020195121A3690622CEFF0BA
:0D1C77009060B122E47B14FAF9F80202F447
:0B217D00E4FDED121C470DEDB414F75B
:012188002234
:101EC2009060AFE0700504F002217D9060DEE012C8
:101ED2001C479060DEE004F0E0C394144002E4F09A
:011EE20022DD
:101C09009061F612031800000000E49061F5F0906D
:101C190061F61203009061F5E025E024B6F582E44F
:101C29003460121C629061F612030C9061F5E004B5
:0E1C3900F0E0B414DA9061F6121C7B02023B5C
:10203E00C39060B3E094FF9060B2E094FF5007E469
:07204E0075F00112014722A9
:10205500C39060B5E094FF9060B4E094FF5007E44E
:0720650075F0011201472292
:0E20F500E4FDED121C58121C500DEDB414F455
:0121030022B9
:101FAD00906107E0121C58121C50906107E004F07C
:091FBD00E0C394144002E4F02298
:101CFA009061FB12031800000000E49061FAF09072
:101D0A0061FB1203009061FAE0121C58121C6290E7
:101D1A0061FB12030C9061FAE004F0E0B414E09065
:081D2A0061FB121C7B02023B6D
:101A3600E4FDC3EF94AAEE940540028036C3EF940A
:101A4600B4EE940440047D018029C3EF94BEEE9465
:101A56000340047D02801CC3EF94C8EE9402400448
:101A66007D03800FC3EF94D2EE940140047D048081
:051A7600027D05AF0533
:011A7B002248
:10110500E490622CF0C39060B3E094C89060B2E0C4
:10111500940050030211A8E4F0A3F0121C097C0707
:101125007DD01203DAE4FB7A10F9F812023BAB0723
:10113500AA069060B0E0701C04F01220F5121C6F36
:10114500F0700A9061CAE0701204F0800EE49061BC
:10115500CAF08007AE02AF03121FADC39060B5E0C1
:1011650094889060B4E094134039E4F0A3F0121C25
:10117500FA121C6FE0FEC39F5005E004F08010904A
:10118500622CE0FFEED39F40069060B1E014F09032
:1011950060B1E070099061CAE0700804F022E49043
:0311A50061CAF02C
:0111A8002224
:100551006028614A00000000000000000000000067
:10056100000000000000000000000000000000008A
:100571000000000000000000000000004161720066
:04058100416147008D
:0C21890025E0244AF582E43461F583224D
:1020D400E4FDED122189EEF0A3EFF00DEDB414F25E
:0120E40022D9
:101E0300906147E0700A1220D49061477401F02278
:101E1300906172E0122189EEF0A3EFF0906172E01D
:0A1E230004F0E0C394144002E4F060
:011E2D002292
:1018AE0090620012031800000000E49061FFF090B7
:1018BE0062001203009061FFE0122189E0FEA3E0B6
:1018CE00FFE4FCFD12019590620012030C9061FF83
:1018DE00E004F0E0B414D89062001202F4E47B1439
:1018EE00FAF9F812023B90620012030C90620002A9
:0218FE0002F4F2
:10206C00C3906149E094FF906148E094FF5007E40D
:07207C0075F001120147227B
:1017AD00C3906149E094C8906148E09400404BE4D7
:1017BD00F0A3F01218AEE4FCFD7B607A617902F8BB
:1017CD001201B0E47B0AFAF9F812023BE4FB7A103D
:1017DD00F9F812023BEF2464FFE43EFEC3EF943CA4
:1017ED00EE94284006E49061C9F022C3EF9410EE08
:0A17FD00942750069061C97401F0B2
:0118070022BE
:100585005361B800000000000000000000000000FA
:0605950000000000000060
:1019EF007B017A6179CB9061D9740AF0E4FF121D03
:1019FF00699061D4E0B4C5219061CB1202F490617B
:101A0F00B812030C9061CF1202F49061BC12030C58
:101A1F009061D3E09061C0F0229061C07401F0A397
:061A2F0074C5F0121F5DFA
:011A3500228E
:101F5D009061C174C5F0E4FF12000F7B017A6179C5
:0C1F6D00B89061D9740AF0E4FF021D3244
:10059B004A60113F065B4F666D7D077F6F6054604D
:1005AB001B030D030C020D03080309030B030A03C2
:1005BB0000030203050307030603030304040E04ED
:1005CB000C04090408040A040D040B0401050F04B0
:1005DB00040406040704000402050B050A040304C3
:1005EB0005050D050E050C0503050205040507059C
:1005FB0009050605055C606F070F070E070107026B
:10060B000700070D070C06020601060F0207060E70
:10061B000600060D6020608B070707060705070419
:10062B0007080709070A070B060306040605060653
:10063B00060706080609060A416010004260AB0077
:10064B0000C1054260AD0000426000000041600245
:10065B0000416003004260040000416006004160FD
:10066B000700426008000041600A0041600B004235
:0C067B00600C000041600E0041600F00A8
:10083900E0FE75F00EA4246FF582E43460F583754B
:10084900F002EF120349E025E02473F582E43461F4
:10085900F5832275F002120349E0FF7E007401A8B6
:10086900070822E04402F0A3E04480F0A3E0F0226C
:10087900E0FCA3E0FDEE75F00EA42470F582E434EB
:1008890060F58322E04404F0A3E0F0906177E0444E
:1008990008F0A3E0F022E475F001020147906177C6
:1008A900E04401F0A3E0F022F4FFEEF45CFEED5F1A
:1008B900FF22AD07E054FBF0E054F7F022C390604B
:1008C90001E09496906000E0940022C390600DE0EE
:1008D900942C90600CE0940122EFF074112DF582B4
:1008E900E43460F583E02275F00EA4241CF582E45B
:1008F9003460F58322E4F0A3F0A37402F022C390DC
:100909006005E09464906004E0940022C39060095B
:10091900E094C8906008E0940022E04440F0A3E02D
:10092900F02275F00EA4241BF582E4346022FFEC5A
:100939004EFEED4FFF2225E0248BF582E43460F56D
:10094900832225E0248CF582E43460F58322EEF0DD
:10095900A3EFF090622AE004F022E0547FF0E05423
:0C096900BFF0A3E022E0FCA3E0FDEF22C1
:101E2E00906173120871906176E04401F0E0441005
:101E3E00F09061751208A9906175E04410F0A3E06E
:081E4E00F09061751208712289
:0F210400906174E054FDF0EF6004E04402F022BB
:100EEA009061761208BBE054DFF0E054BFF0E054A2
:100EFA007FF0906175E054FDF01208BDE054DFF018
:100F0A00E054BFF0906173E054FEF0E054FDF0ED60
:100F1A001203AE0F9B010F94020F8D030F86040F6D
:100F2A007F050F75060F6B070F65080F5B090F55D5
:100F3A000A0F4F0B0F450C00000FA2906173E0449B
:100F4A0002F0A3E0F09061731208A990617512098A
:100F5A0023906175E04420F0A3E0F09061751208D7
:100F6A0097906175E04404F0A3E0F0906175E04465
:100F7A0002F0A3E0F0906176E04480F0906176E0C0
:100F8A004440F0906176E04420F0906176E04408B5
:090F9A00F0906176E04404F022BD
:0D2163009061771208BBED600312088D2219
:101FC600AD07906178E054EFF0E054DFF0ED600883
:091FD600E04410F0E04420F02288
:101A7C00AD0790617712096354FEF0E054FDF0E07D
:101A8C0054FBF0ED14602714601E14601414600AEB
:101A9C00147021906178E04404F0906178E0440285
:101AAC00F0906178E04401F0906177120923906125
:051ABC00771208712201
:101F0300E490617DF0A3E05401F0E490617DF0A3DF
:101F1300E05402F0EF6008E04401F0E04402F022F4
:030E2300906221B9
:100E26001208E2906223F0E4906222F0906222E0DF
:100E3600FFC394074003020EE9906221E0FE120907
:100E46002B120846C083C082E0FCA3E0FDEE120828
:100E5600F0C083C082906222E0FBD082D083120869
:100E66005C8005C333CE33CED8F91208B1D082D018
:100E760083EEF0A3EFF07E007401A803088005C39B
:100E860033CE33CED8F9FF906223E0FDEF5D604AA2
:100E9600906221E0FF12092BF583C083C082906225
:100EA60022E0D082D08375F00212084CC083C08243
:100EB60012096E1208F0C083C082906222E0D082CE
:100EC600D08312085C8005C333CE33CED8F912091D
:100ED60037D082D083EEF0A3EFF0906222E004F0E8
:030EE600020E32C7
:010EE90022E6
:0619000090620412030CCA
:10190600E4906208F0906208E0FFC39406503CC37E
:1019160074059FFFC007E47B0AFAF9F89062041287
:1019260002F412023BAF03AD07D007120E239062FA
:10193600041202F4E47B0AFAF9F812023B906204FC
:0B19460012030C906208E004F080BA6D
:011951002273
:1019A30090620912030C90617912096354FDF0A34C
:1019B300E0547FF090617DE054FEF07F01121F033D
:1019C3009062091202F412190090620DE0600E9009
:1019D3006179120871906179E04440800A90617ADC
:0C19E30012086CA3E04401F0A3E0F02225
:101F2300AD0790617FE054F7F0E054EFF0ED600D02
:0E1F330012089790617FE04410F0A3E0F022C6
:030D4F009062248B
:100D52001208E2906226F0E4906225F0906225E0AB
:100D6200FFC39407503A906224120839C083C082AC
:100D7200120879C083C082906225E0D082D08312AB
:100D8200085C8005C333CE33CED8F91208B1D082C5
:100D9200D083EEF0A3EFF0906225E004F0020D5E46
:100DA200E4906225F0906225E0FFC394075071122F
:100DB20008648005C333CE33CED8F9FF906226E0B3
:100DC200FDEF5D6052906224E0FF75F00EA4246F87
:100DD200F582E43460F583C083C082906225E0D05E
:100DE20082D08375F00212084CC083C08212096E51
:100DF20012087FC083C082906225E0D082D0831225
:100E0200085C8005C333CE33CED8F9120937D082BD
:100E1200D083EEF0A3EFF0906225E004F0020DA77C
:010E220022AD
:050B8D0090620EEFF084
:100B9200E4906211F0A3F0906177E054FEF090616E
:100BA20082E054F7F07F01121F23E490620FF0E419
:100BB200906210F0906210E0FFC39407503A906286
:100BC2000F120839C083C082120879C083C0829094
:100BD2006210E0D082D08312085C8005C333CE332A
:100BE200CED8F91208B1D082D083EEF0A3EFF09004
:100BF2006210E004F0020BB690620FE004F0E064D1
:100C02000270AC90620EE0906212F0906211E00409
:100C1200F0A3E075F00A84F070F190620EE0C394E4
:100C220064400A1208A6906182E04408F0E49062EF
:100C32000FF090620FE0FFC394025034906211E013
:100C4200B40105EF6401602090620FE0FFC37401FC
:100C52009FFF90620EE075F00A84ADF0120D4F9086
:100C6200620EE075F00A84F090620FE004F080C238
:010C7200225F
:0514CB00906229EFF022
:1014D000E4A3F090622AE0FF12093F12084FC08394
:1014E000C08212096E12094B1208628005C333CE06
:1014F00033CED8F91208B1D082D083120957E0B4A4
:1015000010D1E490622AF0906229E0FFA3E0FEC3CC
:101510009F502CEE12093F12084FC083C082E0FC9E
:10152000A3E0FDEE12094B1208628005C333CE33EF
:0F153000CED8F9120937D082D08312095780C85C
:01153F002289
:1016160090600012089F906002E0FE70241208C6D7
:101626004057E4F0A3F0906003E004F0E0FF940C70
:1016360040449060027401F0E4906000F0A3F080F2
:1016460035EEB40110C3906001E094C81208CD4095
:10165600281208FE22906002E0B4021D1208C6405D
:1016660018E4F0A3F0906003E0D394004003E01484
:09167600F0906003E0FF120EEA9F
:01167F002248
:1016800090600412089F906006E0FB701D1209072D
:101690004053E4F0A3F0906007E004F0E0FF941002
:1016A00040409060067401F08038EBB40113C390A1
:1016B0006005E09490906004E0940140281208FED8
:1016C00022906006E0B4021D1209074018E4F0A35E
:1016D000F0906007E0D394004003E014F0906007BE
:0516E000E0FF1214CB35
:0116E50022E2
:1012430090600812089F90600AE0FA70271209154F
:101253004044E4F0A3F012129A1212B440FB9060DF
:101263000BE004F0E0C3940A402C7409F090600A88
:101273007401F022EA6401701D1209154018E4F0AC
:10128300A3F090600BE0D394004003E014F012123B
:061293009A1212B440FBA8
:101299002290600BE0FDE4FF120D4F90600BE0FD22
:1012A9007F01120D4FE490622DF02290622DE0FF34
:1012B90090600BE0FD120E2390622DE004F0E0C374
:0312C90094062266
:1016E60090600C12089F90600EE0FE701E1208D4E7
:1016F6004051E4F0A3F090600FE094055005E0043B
:10170600F0803890600E7401F08030EEB40110C3A2
:1017160090600DE094901208DB40281208FE22909B
:10172600600EE0B4021D1208D44018E4F0A3F09055
:10173600600FE0D394004003E014F090600FE0FFE8
:03174600121A7CF8
:01174900227D
:1020E500906010E0B401089060AB12089FD2052201
:1013CE009060107401F0121E2E7F01122104121F64
:1013DE0003121F239061791208719061791209230B
:1013EE0012086CA31208A97F01122163121FC612E4
:1013FE0008A6906182E04408F0906010E0603F75AE
:10140E00D9AA3005F4C2051216161216801212430E
:10141E001216E6C39060ACE094A09060ABE0940F1F
:10142E004017E4906010F0FF120EEA122104122110
:0F143E0063121FC67F101214CB121F4180BB22F6
:1020C100C39060AEE094FF9060ADE094FF500312C6
:0320D100089F2243
:10154000C39060AEE094DB9060ADE09401405CE459
:10155000F0A3F09061C8E06018906173E013A3E01D
:101560001330E006E054FDF08007906174E044021F
:10157000F09061C9E06016906177E01313543F303A
:10158000E0051208BD800690617712088D9061CA4F
:10159000E06018906177E0C4131313540130E00544
:0C15A000E0547FF0229061771208712265
:0121B000220C
:1006870053618B0A000000000332410000000000A4
:0E06970001FF21A0000045619E010102030445
:0F211300EC75F005A4249EF582E43461F5832277
:0D21700078C0E24420F278C3E254F3F2227A
:0921A0002085037F01227FFF224C
:101AC100E4FEFCFBEDB401030B8016EDB403047BD3
:101AD10002800EEDB404047B038006EDB405027BA5
:101AE10004ECC39401501B122113E0B5071112211C
:101AF10013E5822BF582E43583F583E0FE80030C48
:041B010080DFAF06CC
:011B050022BD
:101B060090619CE0603CE0FFA3E0FD121AC1E49006
:101B1600619CF0A3F0EF24FE60150470259061C06F
:101B2600E06004E4F080189061C07401F0801090C9
:101B360061C0E0700D9061BC120318000000001235
:021B46001F5D21
:011B4800227A
:1011C300021F79E493A3F8E493A34003F68001F2AA
:1011D30008DFF48029E493A3F85407240CC8C3332D
:1011E300C4540F4420C8834004F456800146F6DFFC
:1011F300E4800B0102040810204080900451E47E37
:10120300019360BCA3FF543F30E509541FFEE493F0
:10121300A360010ECF54C025E060A840B8E493A3B7
:10122300FAE493A3F8E493A3C8C582C8CAC583CAE2
:10123300F0A3C8C582C8CAC583CADFE9DEE780BE9A
:0106A5000054
:10004500BB010689828A83E0225002E722BBFE02B9
:09005500E32289828A83E49322EC
:10005E00BB010CE58229F582E5833AF583E0225057
:10006E0006E92582F8E622BBFE06E92582F8E222A1
:0D007E00E58229F582E5833AF583E49322BB
:10008B00BB010FF8E58229F582E5833AF583E02879
:10009B00F0225009C58229F8E58226F622BBFE091B
:1000AB00C58229F8E22582F222F8EA2583F583E955
:0300BB0093282265
:1000BE00BB010689828A83F0225002F722BBFE0121
:0200CE00F3221B
:1000D000F8BB010DE58229F582E5833AF583E8F066
:1000E000225006E92582C8F622BBFE05E92582C812
:0200F000F222FA
:1000F200BC000BBE0029EF8DF084FFADF022E4CCF2
:10010200F875F008EF2FFFEE33FEEC33FCEE9DECBA
:10011200984005FCEE9DFE0FD5F0E9E4CEFD22ED00
:10012200F8F5F0EE8420D21CFEADF075F008EF2F4A
:10013200FFED33FD4007985006D5F0F222C398FD3B
:050142000FD5F0EA22D8
:10014700C5F0F8A3E028F0C5F0F8E5821582700243
:060157001583E038F022E0
:10015D00BB0110E58229F582E5833AF583E0F5F0E0
:10016D00A3E0225009E92582F886F008E622BBFEBD
:10017D000AE92582F8E2F5F008E222E5832AF58303
:08018D00E993F5F0A3E99322C8
:0D019500EF2BFFEE3AFEED39FDEC38FC22B9
:0E01A200C3EF9BFFEE9AFEED99FDEC98FC2258
:1001B000E88FF0A4CC8BF0A42CFCE98EF0A42CFCEE
:1001C0008AF0EDA42CFCEA8EF0A4CDA8F08BF0A46C
:1001D0002DCC3825F0FDE98FF0A42CCD35F0FCEBCB
:1001E0008EF0A4FEA9F0EB8FF0A4CFC5F02ECD3990
:0F01F000FEE43CFCEAA42DCE35F0FDE43CFC22FD
:1001FF0075F008758200EF2FFFEE33FECD33CDCCB7
:10020F0033CCC58233C5829BED9AEC99E582984039
:10021F000CF582EE9BFEED9AFDEC99FC0FD5F0D616
:10022F00E4CEFBE4CDFAE4CCF9A88222B800C1B940
:10023F000059BA002DEC8BF084CFCECDFCE5F0CB7E
:10024F00F97818EF2FFFEE33FEED33FDEC33FCEBB7
:10025F0033FB10D703994004EB99FB0FD8E5E4F972
:10026F00FA227818EF2FFFEE33FEED33FDEC33FC5F
:10027F00C933C910D7059BE99A4007EC9BFCE99A53
:10028F00F90FD8E0E4C9FAE4CCFB2275F010EF2F98
:10029F00FFEE33FEED33FDCC33CCC833C810D70798
:1002AF009BEC9AE899400AED9BFDEC9AFCE899F8D3
:0E02BF000FD5F0DAE4CDFBE4CCFAE4C8F92266
:1002CD00EB9FF5F0EA9E42F0E99D42F0EC6480C8A8
:0602DD0064809845F02248
:1002E300EB9FF5F0EA9E42F0E99D42F0E89C45F071
:0102F30022E8
:0C02F400E0FCA3E0FDA3E0FEA3E0FF227D
:0C030000E0F8A3E0F9A3E0FAA3E0FB2280
:0C030C00ECF0A3EDF0A3EEF0A3EFF02264
:10031800A8828583F0D083D08212032F12032F1274
:10032800032F12032FE473E493A3C583C5F0C58399
:10033800C8C582C8F0A3C583C5F0C583C8C582C82F
:010348002292
:0C034900A42582F582E5F03583F58322BF
:09035500E0FBA3E0FAA3E0F922A9
:10035E00F8E0FBA3A3E0F925F0F0E5821582700228
:07036E001583E0FA38F022CC
:09037500EBF0A3EAF0A3E9F02289
:10037E00BB010DE58229F582E5833AF5830203552B
:10038E005007E92582F8020433BBFE07E92582F8FF
:10039E0002043CE58229F582E5833AF583020445A1
:1003AE00D083D082F8E4937012740193700DA3A3DE
:1003BE0093F8740193F5828883E4737402936860F2
:0603CE00EFA3A3A380DFF2
:0603D4008A838982E473B4
:1003DA00EC8EF0A4CCC5F0CCCDF8EFA4CEC5F02DB0
:1003EA00FDE43CFCE8A42EC8C5F03DFDE43CFCEF6E
:0D03FA00A4FFE5F028FEE43DFDE43CFC22FC
:10040700EF4E6012EF60010EEDBB010B89828A830C
:10041700F0A3DFFCDEFA2289F05007F709DFFCA919
:0C042700F022BBFEFCF309DFFCA9F02270
:09043300E6FB08E6FA08E6F922EE
:09043C00E2FB08E2FA08E2F922F1
:0C044500E493FB740193FA740293F92213
:00000001FF
