:030000000217558F
:10175500787FE4F6D8FD9060007F007E07E4F0A373
:0A176500DFFCDEFA7581200217AAEE
:0C000300000000000000000000000000F1
:0B2D6300EF1FAC0670011E4C70F62242
:10002700AB07AA06EB1BAE0270011A4E600C7FAA43
:0B0037007E05122D6375D9AA80EA2215
:10124500907120E04480F07F057E00122D63E4FF5D
:10125500FE12002775A75575AC5C9071327450F07D
:101265009071307403F0907136742FF090715C7446
:1012750003F090715BE054FCF07F18EF2466FDE409
:1012850034718D82F583E4F00FEFB433EE904011A5
:10129500E4935407FF90711CE054F84FF090401709
:1012A500E493547FFF90711DE054804FF0904010FF
:1012B500E493FF5401C43333335480FE907123E02B
:1012C500547F4EF0EFC313543F4440FFA3E05480D6
:1012D5004FF0904012E493FF540FFE907146E05496
:1012E500F04EF0EFC4540FFF90714FE054F04FF003
:1012F500904013E493543FFF907140E054C04FF089
:10130500904014E493907126F0904015E493907109
:0B13150028F0904016E49390712AF03D
:0113200022AA
:10000F00E0FEA3E0FFE4FCFD7BFF7AFFF9F8D302EB
:02001F0003C319
:1024D600E5B154CF42B153A8BFD2AF75D102789CB3
:1024E600E254E3F2E2441CF2E254FCF2E24401F26A
:1024F60008E2547FF2E24420F278A17401F21874E3
:1025060076F2789CE2541FF2E244C0F243A84022DD
:03002100021ACBF5
:101ACB00C0E0C0F0C083C082C0D075D000C000C0E1
:101ADB0001C002C003C004C005C006C007789DE268
:101AEB0030E749E24480F212299A90628D12000F7E
:101AFB00400A90628DE475F00112023D90628F12E4
:101B0B00000F400A90628FE475F00112023D906263
:101B1B0033E0C394FF5003E004F0122B84122B9B91
:101B2B00122B3F12264C12237F122BC7D007D00645
:101B3B00D005D004D003D002D001D000D0D0D082B9
:071B4B00D083D0F0D0E0329E
:10279700E5B254FC42B253A9FED2AF75D104907191
:1027A700057409F0907104745FF0907101E0547F33
:1027B700F0E04420F0907100E0E4F0E044C1F04321
:0327C700A9012243
:030024000223367E
:10233600C0E0C0F0C083C082C0D075D000C000C06D
:1023460001C002C003C004C005C006C007907101E9
:10235600E030E70AE04480F01221EF12208FD00728
:10236600D006D005D004D003D002D001D000D0D002
:09237600D082D083D0F0D0E03217
:0405470041629E006F
:0A2D6E007869E24401F290629E22AF
:1028E00078C2E2440CF278D3E24430F2786AE244EF
:1028F00079F27591FF9071227407F0439E704399AD
:072900004043AA04D2AF22FC
:10282E005399E0EF24FE601304701E907123E05460
:10283E00D8F0E04459F0439901800E907123E05492
:10284E00D8F0E0445BF043990E7869E24448F222F6
:10264C0090629EE014601914601D146026146004DE
:10265C00240470257F0112282E90629E7401F022B2
:10266C00122D6E7402F0227F0212282E90629E743C
:0A267C0003F022122D6E7404F02208
:03004200021C5B42
:101C5B00C0E0C0F0C083C082C0D075D000C000C04F
:0D1C6B0001C002C003C004C005C006C007D0
:101C7800786BE230E142E24402F2AF93EF75F01084
:101C8800A4FFE594C4540FFDEF4DFF906285E5F085
:101C9800F0A3EFF090629EE024FC6011240270181B
:101CA800906285E0FEA3E0FF1229DD800B9062853B
:081CB800E0FEA3E0FF12290782
:101CC000D007D006D005D004D003D002D001D00078
:0B1CD000D0D0D082D083D0F0D0E03222
:1029BC00906274F090629902044B900006120154DC
:1029CC00FE9000080201549000091201C690000C00
:0129DC0022D8
:100C6A00E4906274F07FFFA374FFF090629912041B
:100C7A006B900001120154FE12013BFDEEC39D5020
:100C8A0003020DFC1229C0900001E41201C6900073
:100C9A000E1204741204CAEFF46008906298742366
:100CAA00F08009906298E06003E014F01229C09085
:100CBA0000031201546F6015900005120154600D73
:100CCA00900004E41201C6900003020DF89000059A
:100CDA00120154FE900004120154C39E500B1229B3
:100CEA00C090000474010201811229C0900002120E
:100CFA0001546F6048EFF4701C1229C6C39E400A63
:100D0A0074051229BC90000280611229C090000A61
:100D1A007401020DEF1229C090000874011229D63D
:100D2A001201546F906299600C12044B74011229DB
:100D3A00D3EF020DEF12044B900009803DEFF470DF
:100D4A00411229C0900009120154D39400500302A1
:100D5A000DF290000B120154FE90000A120154D3B6
:100D6A009E401174011229BC90000C120154906229
:100D7A0075F080541229C090000A74011201810290
:100D8A000DF21229C01229CDC394FF500890000811
:100D9A0074011201811229C6B5060890627474039F
:100DAA00F080201229C09000071229C96E7039906C
:100DBA00627474041229BF9000061201549000084C
:100DCA001201C6906275EFF01229C0E41229D37499
:100DDA00FF1201C6906275E09000111201C690627E
:100DEA0074E09000121201C61229C0900002EF129C
:020DFA0001C630
:010DFC0022D4
:102C5C0075AF3F8FAF75AEB975A402E5A530E1FB3A
:012C6C002245
:1026F70090628112046B75AF3F8FAF906284E0C325
:1027070094014022E5A530E0FB906281E475F00179
:1027170012045412013BF5A675AEB975A401906277
:0727270084E014F080D522CC
:1027630090628112046B906284E06027AE070FEEE3
:102773002400FDE4343F8D82F583E493FE9062816F
:10278300E475F001120454EE1201B4906284E01473
:04279300F080D322DD
:05054B004262300000D7
:072D89007B017A62791A2236
:102B2800C3906231E094FF906230E094FF5007E474
:072B380075F00112023D22BD
:1027CA00E4906278F0A3F0EE30E703D38001C3927D
:1027DA0092D291EF25E0FFEE33FEC291906278E447
:1027EA0075F00112023D906278E07004A3E0641073
:0227FA0070D598
:0127FC0022BA
:0624940090627412046B5B
:10249A00C291C283E4906277F0906277E0C39D5064
:1024AA002490627412044B906277E075F002A4F5EE
:1024BA008285F083120253FFAEF01227CA90627728
:0B24CA00E004F080D4D283C283C292F1
:0124D50022E4
:102A3C00C3906231E09419906230E09400400CE451
:0C2A4C00F0A3F0122D897D0B12249422BF
:101BD7007E007F167D00122D891204FD78D2E25413
:101BE700F3F2E24404F2907187E4F0E254CFF2E2B8
:101BF7004410F2A3E4F078C2E2543FF2E24440F228
:101C0700907181E4F0E254FCF2E24401F290717EBB
:101C1700740AF07856E4F2782774BBF218747FF2EE
:101C27007833E4F218F27819F218E24401F27811E5
:101C3700E24401F27817E24401F27812E24401F239
:101C47007814E24401F2C292C291C283122D897DB7
:041C57000B022494C4
:1027FD00C374649FFFE49400FE3395E0FDFCE47B1D
:10280D007F7ABBF9F81202A6E47B64FAF9F8120399
:10281D0031AC06EC7833F218EFF27817E24401F29E
:01282D002288
:0805500041629F004162A0001E
:102C140078E3E254FCF2E24401F2907192E4F0C2EF
:022C2400A422E8
:0F2C8E00E49062A0F090629FEFF0A37401F02237
:10299A009062A0E0601490629FE06006E014F0D2BA
:1029AA00A422C2A4E49062A0F022C2A4E490629F8E
:0229BA00F02209
:100558004261EF0000602861F10000000000000027
:100568000000000000000000000000000000000083
:100578000000000000000000000000000000000073
:0905880000416219004161EE001E
:0C2D4B0025E024F1F582E43461F58322D8
:102C6D00E4FDED122D4BEEF0A3EFF00DEDB414F2EB
:012C7D002234
:102907009061EEE0700504F0022C6D906219E01200
:102917002D4BEEF0A3EFF0906219E004F0E0C394C2
:05292700144002E4F081
:01292C002288
:10214500E4906277F0A312040E00000000E49062B0
:1021550077F09062781203F6906277E0122D4BE0EB
:10216500FEA3E0FFE4FCFD12028B906278120402EC
:10217500906277E004F0E0B414D89062781203EA34
:10218500E47B14FAF9F81203319062781204029094
:0521950062780203EA7C
:102B3F00C39061F0E094FF9061EFE094FF5007E4E1
:072B4F0075F00112023D22A6
:10188800E4FFFE906274F0A3F01221457C0B7DB852
:101898001204D0E4FB7A10F9F8120331906274EE66
:1018A800F0A3EFF0C39420EE9403403C906274E000
:1018B800FEA3E0FFD394D0EE9407502CEF24E0FF72
:1018C800EE34FCFEE434FFFDE434FFFCE47B08FA6C
:1018D800F9F81202A6E47B78FAF9F8120331C37416
:1018E800649F906276F08025906274E0FEA3E0FF2A
:1018F800C394D0EE94074006A37414F0800FD3EF7E
:101908009420EE940350069062767464F0906276A8
:05191800E0FF0227FDC5
:102B5600C39061F0E094D09061EFE094074007E401
:072B6600F0A3F01218882211
:032D960002188898
:10285E00122C14121F3B122D3E122D24122D31124A
:10286E0028E0122450121BD71224D61227977F75F8
:0D287E00122C8E7F0A7E00120027022D967C
:1025160012124575D95590715EE054FEF075D9BB1F
:1025260012285E121A3E122D8175D9AA1217EF7B58
:10253600017A627932120C6A1214B2121059121907
:0F2546001D121CDB120F4C122B5612132180DAC0
:101F3B0078E0E24440F278E3E254CFF278C0E24436
:101F4B0040F278C3E254CFF278C0E24480F278C317
:101F5B00E2543FF278D0E24401F278D2E254FCF240
:101F6B0078D0E24408F278D2E2543FF278D0E244DF
:101F7B0010F278D3E254FCF278F0E24401F278F2FA
:101F8B00E254FCF278E0E24480F278E3E2543FF270
:101F9B0018E2543FF2E254F3F208E254F3F218E27F
:041FAB0054CFF222FB
:1017EF00208607E4906273F080452087089062732B
:1017FF007401F0803A2090089062737402F0802F89
:10180F002093089062737403F080242094089062F0
:10181F00737404F0801920B0089062737405F0801F
:10182F000E90627320A7057406F0800374FFF0908A
:10183F006273E0FF122A747F01122BDB20A6047F54
:10184F00018002E4FF122C2630A5047F018002E400
:10185F00FF122CAC30A2047F018002E4FF122CBBDC
:10186F0030A3047F018002E4FF122C3830A1047FE3
:09187F00018002E4FF122C4A2250
:10059100C1014461B4000000004461B800000000E2
:1005A1004461BC000000004461C0000000004161E2
:1005B100C400602861C500000000000000000000C8
:1005C100000000000000000000000000000000002A
:1005D1000000000000000000000000000000416178
:0D05E100ED00C1004261B000004161B200B8
:10219A00906277E0FF24C5F582E43461F5832290EA
:1021AA006274FEFDFC0203F61203EAEF2401FFE467
:1021BA003EFEE43DFDE43CFC2290626FE0FFA3E0BA
:1021CA0022E4FDFC1203F6C30203D99F906276F063
:1021DA00E0FFC3940A221203F602028B1203319023
:0521EA00627402040212
:102BB200E4FE74C52E1221A1EFF00EEEB428F3E468
:042BC2009061EDF041
:012BC60022EC
:102B10009061EDE012219FEFF09061EDE004F0E0B4
:082B2000C394284002E4F022F6
:1015680090627812040E00000000E490627CF0A300
:1015780074FFF0E4906277F09062781203F690625C
:1015880077E012219FE0FFE4FCFDFE12028B9062DF
:101598007812040212219AE0FE90627CE0C39E5009
:1015A8000B74C52F1221A1E090627CF012219AE001
:1015B800FE90627DE0D39E400B74C52F1221A1E0FE
:1015C80090627DF0906277E004F0E0642870A99062
:1015D80062781203EAC006C00790627DE0FF90625D
:1015E8007CE02FFFE433AB07FA3395E0F9F8D00736
:1015F800D006120298906278120402E47B26FAF967
:0A160800F89062781203EA02033141
:0D2D240078D3E254F3F278D0E24420F2229A
:102686009061BC1203EA9061B81221E09061BC121D
:1026960004029061B812040E000000009061C0129E
:1026A60003EA9061B41221E09061C01204029061C5
:0926B600B412040E000000002221
:10208F009061B0E475F00112023DC39061B1E0942C
:10209F00149061B0E09400402BE4F0A3F09061B88D
:1020AF001221B29061B81204027F587E029061B87B
:1020BF001221CB400F20010C9061B812040E0000CA
:1020CF000000D20130951520000F9061B41221B29B
:0E20DF009061B4120402122686D20022C200C2
:0120ED0022D0
:1010590090627412040E0000000090627812040E6F
:10106900000000007FF47E019061BC1221CB500684
:10107900200103021158906269E0FFE4FCFDFE9033
:1010890061C01203F61202A6E47B107A27F9F8125E
:1010990002A6E47B7A7A06F9F81203319062781293
:1010A9000402300123E4FF9061C01221ACC3120392
:1010B900D9906274600912040E00000001802A129E
:1010C900040E000000008021E47F24FEFDFC9062F4
:1010D900781203F61202A6E47B0AFAF9F812033130
:1010E9009061BC1203F61221E69062891203EA901C
:1010F90062781221E09062891204029061C01204A0
:101109000E000000009061BC12040E00000000C235
:1011190001E4FF1221A9D31203D94012E47F661218
:1011290021A91202A6E47B64FAF9F81221E6E47F08
:10113900C71221A9D31203D9400A90627412040E6E
:0F114900000000C79062741203EA90626FEFF02B
:011158002274
:102A1E00906297E0600BE064016006E49061C4F0A0
:0E2A2E00229061C4E0C394FF5003E004F02244
:10272E00906277EFF0906268E07007906277E0FF5A
:10273E00801F906268E0B4011B906277E0FF7E001C
:10274E007C027D6D1204D0E47BE87A03F9F8120363
:05275E003112115922A7
:100DFD00906297E0600BE064016006E49061B2F0F0
:100E0D00229061B2E0702804F090626FE0A3F09040
:100E1D00626FE09061B3F0906270E0FF12272E9048
:100E2D00626FE0FF122BB2906268E0FF122ADE9033
:100E3D0061C4E0C3944B5003020F4BE4F01221C385
:100E4D00D39F403B1221C31221D55003020EDAEF7E
:100E5D00943240089062757414F08011EFC39414AD
:100E6D009062754005740AF080037405F09062700D
:100E7D00E0FF906275E0FEC3EF9E906270803B12C2
:100E8D0021C3C39F5047E0FF90626FE0C31221D58D
:100E9D00403BEF943240089062757414F08011EF6E
:100EAD00C394149062754005740AF080037405F0C4
:100EBD00906275E0FF906270E02FF090626FE0FF3E
:100ECD00122BB290626FE09061B3F0806990626F07
:100EDD00E0FF122B10121568906274EFF0E0C394CE
:100EED000A5007E09061B3F080259061B3E075F092
:100EFD0003A4FDACF0906274E075F007A42DFFE53E
:100F0D00F03CFE7C007D0A1201E89061B3EFF09099
:100F1D0061B3E0906274F0E0FF906270E0D39F40A7
:100F2D0005E014F08010906274E0FF906270E0C3F1
:0E0F3D009F5003E004F0906270E0FF12272E38
:010F4B002283
:1005EE0042625B000042625D0000C10241624A004D
:0805FE0041624B0041624C0018
:102B6D009062570203F6E475F00102023D90627423
:072B7D00E0FF90624BE02233
:0D2D310078C2E254CFF278C0E24404F222EE
:102555009062531203EA90624D1203F612028B90B9
:10256500625312040290624D12040E000000001224
:102575002B6D906251E0FEA3E0FFE4FCFD12028B9F
:0E258500906257120402E4906251F0A3F0221B
:1021EF0090624AE004F0E0C394144020E4F090625F
:1021FF0051122B74C3906252E09458906251E09444
:10220F00024009200306E4F0A3F0D203308222201B
:10221F00021C90624D1203EAEF2401FFE43EFEE43C
:10222F003DFDE43CFC90624D120402122555D20292
:03223F0022C202B6
:012242002279
:101CDB00E47FF47E01FDFC122B6DC31203D950037C
:101CEB0030036A30030EC20390627412040E0000BC
:101CFB000000801CE47FBC7EF7FDFC906253120356
:101D0B00F61202A6122B6D120331906274120402AA
:101D1B0090625312040E0000000090625712040EE2
:101D2B0000000000E47FFF7EFFFDFC906274120355
:101D3B00F6C31203D9400A90627412040E0000FF1E
:0D1D4B00FF9062741203EA90626B120402B2
:011D58002268
:10292D00C390625CE094FF90625BE094FF500312F1
:10293D002B73C390625EE094FF90625DE094FF5054
:05294D0003122B7322B0
:102AAC00E47BF47A01F9F890626B1203EA120331B9
:082ABC00EFD3941840027F18CB
:012AC40022EF
:1016B600E4906274F090624CE0701404F0122AAC6C
:1016C60090624BEFF07F0D121EC47F0112288B1221
:1016D6002AAC906274EFF07008A3F0A37432F08025
:1016E6002F90624BE0FF906274E0FED39F4005EEC0
:1016F6009FFF8006122B7AC39FFFEFD394017E00D3
:1017060050047F6480027F32906275EEF0A3EFF0A2
:10171600906275E0FEA3E0FFC390625CE09F90627A
:101726005BE09E4029E4F0A3F0122B7AFE9F500561
:10173600E004F08011EED39F400CEED394004006F7
:0E17460090624BE014F090624BE0FF121E4DDB
:011754002272
:08060600416287004162880097
:10295200FA906263F9F81203EA0203311203EAEF12
:102962002401FFE43EFEE43DFDE43CFC221203F6BA
:04297200C30203D9C0
:10229600906267E06023A3E070067BE87A03800C17
:1022A600906268E0640170377B4A7A0690625F123A
:1022B600295690627874018022906268E0700B7BE8
:1022C60064122952E49062788011906268E0B40149
:1022D6000EE47BA1122952E4906278F012202322A8
:10191D00C390628EE0948890628DE09413400F30F6
:10192D00040C122A58C204E490628DF0A3F0E47FF7
:10193D00E87E03FDFC90628912296F40657F187E59
:10194D00C67D9A7C3B90625F12296F500C90625F4E
:10195D0012295E90625F1204027F9C7EE07DF57C11
:10196D000590626312296F500C90626312295E908C
:10197D0062631204029062891203EAC3EF94E8FFD6
:10198D00EE9403FEED9400FDEC9400FC9062891240
:02199D00040242
:10199F00906287E004F0E0C394644004E4F0D20462
:0119AF002215
:1028B600906288E0700D04F0906268E0FF122AF7DB
:1028C600122296C3906290E094E890628FE094039F
:0928D6004007E4F0A3F012229681
:0128DF0022D6
:10060E0042615A000042615C00006028615E000099
:10061E0000000000000000000000000000000000CC
:10062E0000000000000000000000000000000000BC
:10063E000000000000004161860041615700602803
:10064E0061870000000000000000000000000000B4
:10065E00000000000000000000000000000000008C
:10066E00000000000000000000004161AF00416189
:06067E0058004161590023
:10240C0025E0245EF582E43461F583EEF0A3EFF071
:10241C002225E02487F582E4346122F583E0FEA3D3
:10242C00E0FFE4FCFD02028B906274E0FEA3E0FF8F
:10243C0022E47B14FAF9F80203EA906276E0FF904A
:04244C006159E022D0
:0B2D5700E4FDED12240C0DEDB414F7A8
:012D6200224E
:1029DD00906157E0700504F0022D57906186E0126A
:1029ED00240C906186E004F0E0C394144002E4F0FE
:0129FD0022B7
:1025930090627912040E00000000E4906278F090DB
:1025A30062791203F6906278E025E0245EF582E416
:1025B3003461122427906279120402906278E00455
:0E25C300F0E0B414DA90627912243D02033184
:102B8400C390615BE094FF90615AE094FF5007E4C6
:072B940075F00112023D2261
:102B9B00C390615DE094FF90615CE094FF5007E4AB
:072BAB0075F00112023D224A
:0E2C9D00E4FDED12241D1224150DEDB414F407
:012CAB002206
:102AC5009061AFE012241D1224159061AFE004F06F
:092AD500E0C394144002E4F02275
:1026BF0090627912040E00000000E4906278F090AE
:1026CF0062791203F6906278E012241D122427908B
:1026DF006279120402906278E004F0E0B414E090A2
:0826EF00627912243D0203315F
:10224300E4FDC3EF94AAEE940540028043C3EF94E8
:10225300DDEE940440047D018036C3EF9410EE94C8
:102263000440047D028029C3EF9443EE94034004A9
:102273007D03801CC3EF9476EE940240047D0480BA
:102283000FC3EF94A9EE940140047D0580027D06FF
:02229300AF0595
:012295002226
:100F4C00E4906276F0A3F0C390615BE094C890618A
:100F5C005AE09400500302103FE4F0A3F0122593E2
:100F6C007C077DD01204D0E4FB7A10F9F81203311F
:100F7C00906274EEF0A3EFF0906158E0702704F0EB
:100F8C00122434122C9D122434122243A3EFF0901D
:100F9C006159F0700B906272E0701012104E800B61
:100FAC001210408006122434122AC51226BF1222B7
:100FBC0043906276EFF0906159E0FE6F601890629A
:100FCC0076E0FFD39E4006EF9EA3F08009122446E4
:100FDC00C39F906277F0906277E0FFC39402400E5B
:100FEC0090615DE0948890615CE094134045EFB4AF
:100FFC00010FC390615DE0942090615CE0944E40E1
:10100C0032E490615CF0A3F0122446FEC39F5005BD
:10101C00E004F0800BEED39F4006906159E014F091
:10102C00906159E0700A906272E0700712104E22C3
:03103C001210404F
:10103F0022E4906272F0906159E0FF121FAF22FF1D
:0A104F00121FAF9062727401F022CC
:1006840055625F0000000000000000000000000050
:0806940000000000000000005E
:102450007B017A627974906284740CF0E4FF122735
:102460006390627FE0B4C513785F7C627D017B017D
:102470007A6279747E007F0C0201159062677401A4
:10248000F090626A74C5F0E4906268F0A37469F039
:03249000122A58B5
:012493002226
:102A580090626A74C5F0E4FF122C5C7B017A62799B
:0C2A68005F906284740CF0E4FF0226F71B
:10069C004A60273F065B4F666D7D077F6F45602282
:1006AC0000000000004260310000604260330A0527
:1006BC000A02090209040907090A090908020804BF
:1006CC00080708060809080A080C080D060A060996
:1006DC00060D060F000500030002010D010C0103BD
:1006EC000102010102040207020602080209020AC1
:1006FC00603060750A070A060A040A030A010A0038
:10070C00090009030905090B090808010803080574
:10071C000808080B080E060406050606060C060E4D
:10072C00000600045A60A505090706070707080913
:10073C0001090C090D0800080F0607060200070145
:10074C000B4E60BF02020203020C020E020F0200EB
:10075C000201602A60CD0000090E090F00000000A4
:10076C00000000000603070F070C0709070B070E14
:10077C00070D060107030704070507010700070219
:10078C00605460F705020503050E050C050D050404
:10079C00050F040C040B05050507050605010500EE
:1007AC00040F040E040604080409040D040A0400D2
:1007BC00040104040407040504020403030F030EDC
:1007CC00030C0309030A030D030B030003020305C7
:1007DC0003070306030103034C614B0A0F0A0E0ABD
:1007EC000C0A0B0A0A0A09416000324160010041FF
:1007FC0060020041600300416004004160051E413D
:10080C0060060042600700004160090041600A0078
:10081C0042600B001E42600D000041600F00426000
:10082C001000C842601200004160140042601500C4
:10083C001E42601700004160190042601A005A42C3
:10084C00601C000041601E0041601F0042602000DF
:01085C00009B
:100ACE00E0FE75F00EA424CDF582E43460F5837556
:100ADE00F002EF12043FE025E0241AF582E43462BE
:100AEE00F5832275F00212043FE0FF7E007401A828
:100AFE00070822E0FCA3E0FDEF75F00EA424CEF56E
:100B0E0082E43460F58322F4FFEEF45CFEED5FFFC9
:100B1E0022906000E0FDA4FBAAF0ED75F012A4C3D4
:100B2E009BFFE5F09AFEC3906025E09F906024E065
:100B3E009E22E475F00102023D90627DE0FF75F0A9
:100B4E000EA424CDF582E43460F58322E0FCA3E00C
:100B5E00FDEF25E022FFEC4EFEED4FFF22E0FCA361
:100B6E00E0FDEE22E014FFA3E0FED39F22EFF0742F
:100B7E00272DF582E43460F583E022906275E0FF64
:100B8E0025E024BFF582E43460F58322E04401F0D1
:100B9E00A3E0F02275F00EA424F8F582E43460F59B
:100BAE008322E0FFA3E0A3CFF0A3EFF07F0122E0CA
:100BBE00FEA3E0FFC32225E02433F582E43460F582
:100BCE008322EEF0A3EFF0906275E004F02225E0B0
:100BDE002475F582E43460F58322EEF0A3EFF090F5
:100BEE006278E004F02225E024A5F582E43460F575
:100BFE008322EEF0A3EFF0906278E004F022E0445E
:100C0E0020F0A3E0F02275F00EA424F7F582E43470
:100C1E00602225E0244BF582E43461F58322EEF068
:100C2E00A3EFF0906279E004F0222434F582E434EC
:100C3E0060F583222476F582E43460F5832224A6BF
:100C4E00F582E43460F5832224C0F582E43460F545
:0C0C5E008322244CF582E43461F58322EB
:0F2CAC00EF9062266004120B9A22E054FEF02291
:0F2CBB0090621DE054FEF0EF6004E04401F0224F
:102C2600906226E054F7F0EF6007E04408F0A3E076
:022C3600F0228A
:102C380090621AE054EFF0EF6007E04410F0A3E070
:022C4800F02278
:102C4A0090621CE054BFF0EF6007E04440F0A3E05C
:022C5A00F02266
:051DD500906274EFF0C4
:101DDA00E4A3F0F0906275E0FF120BC4120AE4C0AB
:101DEA0083C082120B5A120C38120AF78005C333C9
:101DFA00CE33CED8F9120B15D082D083120BD0E095
:101E0A00B421D1906274E0D394004036E4A3F090F8
:101E1A006274120B72502BEE120BC4120AE4C083C6
:101E2A00C082120B6B25E0120C38120AF78005C328
:101E3A0033CE33CED8F9120B63D082D083120BD0B3
:021E4A0080CD49
:011E4C002273
:051E4D00906277EFF048
:101E5200E4A3F0906278E0FF120BDC120AE4C08384
:101E6200C082120B5A120C42120AF78005C333CEFB
:101E720033CED8F9120B15D082D083120BE8E0B41E
:101E820018D1906277E0D394004036E4A3F09062D8
:101E920077120B72502BEE120BDC120AE4C083C0D5
:101EA20082120B6B25E0120C42120AF78005C33333
:101EB200CE33CED8F9120B63D082D083120BE880D6
:011EC200CD52
:011EC30022FC
:10288B00AD0790621DE054DFF0E054BFF090621C86
:10289B00E054FBF0ED6013A3E04420F0E04440F083
:0B28AB0090621CE04404F0A3E0F02267
:051EC400906277EFF0D1
:101EC900E4A3F0906278E0FF120BF4120AE4C083F5
:101ED900C082120B5A120C4C120AF78005C333CE7A
:101EE90033CED8F9120B15D082D083120C00E0B48E
:101EF9000DD1906277E0D394004036E4A3F090626C
:101F090077120B72502BEE120BF4120AE4C083C045
:101F190082120B6B25E0120C4C120AF78005C333B1
:101F2900CE33CED8F9120B63D082D083120C008045
:011F3900CDDA
:011F3A002284
:102BDB00EF90621E6008E04408F0A3E0F022E0549E
:032BEB00F7F022DE
:0F2CCA0090621FE054DFF0EF6004E04420F0223E
:05161200906274EFF08E
:10161700E4A3F0120B89120AE4C083C082120B5AAA
:10162700120C56120AF78005C333CE33CED8F912FF
:101637000B15D082D083EEF0A3EFF0906275E00433
:10164700F0E0B407CE906274E0FFD39400405F747B
:10165700272F120B80906276F0E4906275F090620B
:1016670075E0FFD394075046120AF98005C333CEBD
:1016770033CED8F9FF906276E0FDEF5D6028120B5C
:1016870089120AE4C083C082120B5A120C56120A3E
:10169700F78005C333CE33CED8F9120B63D082D08F
:0E16A70083EEF0A3EFF0906275E004F080B0E7
:0116B5002212
:102A7400AB07E4FF122CCA121612EBF4600DEB70D4
:0C2A8400057F01022CCAAF0312161222BB
:1019B00090627DEFF0A3EDF0EB603C120B47C0832B
:1019C000C08290627EE0D082D08375F002120AE17C
:1019D000C083C082120B01C083C08290627EE0D0BF
:1019E00082D083120AF18005C333CE33CED8F9FFFB
:1019F000EC4EFEED4F803C120B47C083C0829062DC
:101A00007EE0D082D08375F002120AE1C083C082EA
:101A1000120B01C083C08290627EE0D082D083121C
:101A20000AF18005C333CE33CED8F9F4FFEEF45C6F
:0E1A3000FEED5FFFD082D083EEF0A3EFF02238
:031D590090627D18
:101D5C00120B7B90627FF0E490627EF090627EE0EA
:101D6C00FFC394075062120AF98005C333CE33CEF9
:101D7C00D8F9FF90627FE0FDEF5D604390627D12C9
:101D8C000B4AC083C08290627EE0D082D08375F013
:101D9C0002120AE1C083C082120B01C083C0829080
:101DAC00627EE0D082D083120AF18005C333CE3339
:101DBC00CED8F9120B63D082D083EEF0A3EFF09063
:081DCC00627EE004F0021D68D4
:011DD40022EC
:0522E600906274EFF0AE
:1022EB00E4A3F0906275E0FFC39407503D906274D5
:1022FB00120ACEC083C082120B6B120B07C083C0B5
:10230B0082906275E0D082D083120AF18005C333CC
:10231B00CE33CED8F9120B15D082D083EEF0A3EFCB
:0A232B00F0906275E004F00222EE6B
:012335002285
:05115900906278EFF048
:10115E00E490627BF0A3F0FB7D01FF1219B0E47DF9
:10116E0002FF1219B09062797401F0E490627AF085
:10117E0090627AE0FFC39407503D906279120ACED6
:10118E00C083C082120B6B120B07C083C0829062A9
:10119E007AE0D082D083120AF18005C333CE33CEEB
:1011AE00D8F9120B15D082D083EEF0A3EFF0906237
:1011BE007AE004F002117E906279E004F0E06403BC
:1011CE0070A9906278E090627CF090627BE004F00F
:1011DE00A3E075F00A84F070F1906278E0C3946435
:1011EE0040107B017D01E4FF1219B07D02E4FF1275
:1011FE0019B09062797401F0906279E0FFC39403A4
:10120E00503490627BE0B40105EF6402602090627E
:10121E0079E0FFC374039FFF906278E075F00A8453
:10122E00ADF0121D59906278E075F00A84F090626C
:06123E0079E004F080C21B
:011244002287
:10297600EF700F906224E054FBF0ED6016E0440423
:10298600800D906224E054F7F0ED6007E04408F013
:04299600A3E0F022A8
:102ADE00EF700AFD7F011229760D1F8008E4FDFFBD
:092AEE001229760D0F122976223F
:1029FE00EF700F906221E054EFF0ED6012E04410A2
:102A0E00F02290621EE054DFF0ED6003120C0C22F7
:102AF700EF700AFD7F011229FE0D1F8008E4FDFF1C
:092B07001229FE0D0F1229FE2215
:0313EB0090627A93
:1013EE00120B7B90627CF0E490627BF090627BE06B
:1013FE00FFC3940740030214B190627AE0FE120C10
:10140E0014120ADBC083C082120B6B120BA2C083B4
:10141E00C08290627BE0FBD082D083120AF18005FD
:10142E00C333CE33CED8F9120B15D082D083EEF063
:10143E00A3EFF07E007401A803088005C333CE33FA
:10144E00CED8F9FF90627CE0FDEF5D604D90627A40
:10145E00E0FF120C14F583C083C08290627BE0D053
:10146E0082D08375F002120AE1C083C082E0FCA331
:10147E00E0FDEF120BA2C083C08290627BE0D082AF
:10148E00D083120AF18005C333CE33CED8F9120BB6
:10149E0063D082D083EEF0A3EFF090627BE004F095
:0314AE000213FA2C
:0114B1002218
:102BEE00EF90621C6008E04402F0A3E0F022E05493
:032BFE00FDF022C5
:0F2CD900EF90621C6004120B9A22E054FEF0226E
:0F2CE800EF9062206004120B9A22E054FEF0225B
:0620230090627412040239
:10202900E4906279F0906279E0FFC39406503CC372
:1020390074059FFFC007E47B0AFAF9F890627412ED
:1020490003EA120331AF03AD07D0071213EB906215
:10205900741203EAE47B0AFAF9F812033190627404
:10206900120402906279E004F080BA906278E0602C
:10207900087F01122BEE1F8006E4FF122BEE0F12D0
:052089002CD9122CE827
:01208E00222F
:0F2CF700EF90622E6004120C0C22E054DFF022EA
:102C7E00EF90622D6005E04440F022E054BFF02258
:0F2D0600EF90622E6004120B9A22E054FEF0222E
:051FAF00906278EFF0E4
:101FB400E4A3F0906279E0FF120C20120AE4C083DB
:101FC400C082120B5A120C60120AF78005C333CE7A
:101FD40033CED8F9120B15D082D083120C2CE0B476
:101FE40006D1906278E06036E4A3F0906278120B38
:101FF40072502BEE120C20120AE4C083C082120B22
:102004006B25E0120C60120AF78005C333CE33CE81
:0E201400D8F9120B63D082D083120C2C80CD31
:01202200229B
:102BC700906022E0B4010C906024120B40906023C7
:042BD7007401F02273
:101B5200906026E0706275F002120B1F40079060E1
:101B6200267401F02275F003120B1F4006121BBBF4
:101B72000219B0906004E0700804F0906000E0A3E5
:101B8200F0906001E004F0906000E0FFA3E0C39FEA
:101B92004026E4F0121BBB121BCFFD0B7F01121B70
:101BA200CFFD7F021219B0906002E0A3F0906002B4
:081BB20004F0E0B40602E4F0C7
:101BBA0022906003E0FDE4FB7F011219B0906003FC
:0D1BCA00E0FD7F02221219B0906002E022BF
:1020EE00906026E06401704E906005E0FD75F02270
:1020FE00A4FF906007E0FAA3E0FBC39FEA95F040CF
:10210E00069060267402F0906009E0700704F0906B
:10211E006006EBF0906006E004F0A3120B409060B6
:10212E0006E0C39D4010E4F090600AE0FF121DD55A
:06213E0090600AE004F0CD
:012144002278
:10087C00906026E064026003020ACD90601EE0C323
:10088C00940C40079060267403F02290601FE07077
:10089C001404F090600B120BB0122C7E90601012AE
:1008AC000BB0121EC490600D120B4090600B120B1B
:1008BC00BD90600EE09F90600DE09E403290600F06
:1008CC00E0FFD394065028E490600DF0A3F0121FC3
:1008DC00AF90600FE0B403057F01122CF790600F0E
:1008EC00E0B406057F01122D0690600FE004F09035
:1008FC006012120B40906010120BBD906013E09FC1
:10090C00906012E09E4049906014E0FFD394045034
:10091C003FE4906012F0A3F0EF146014146018140C
:10092C00601C146020240470217F01122CAC801AEE
:10093C007F01122C2680137F01122C38800C7F0132
:10094C00122C4A80057F01122CBB906014E004F03D
:10095C00906017120B40906015120BBD906018E060
:10096C009F906017E09E407A906019E0FFD3941836
:10097C005070E4906017F0A3F0121E4D906019E0D7
:10098C001204A409B70209BB0409BF0609C308096C
:10099C00C70A09CB0C09CF0E09D31009D71209DBF2
:1009AC001409DF1609E318000009E87F02802A7F8A
:1009BC000380267F0480227F05801E7F06801A7F9D
:1009CC000780167F0880127F09800E7F0A800A7FBD
:1009DC000B80067F0C80027F0D121EC4906019E004
:1009EC0004F090601C120B4090601A120BBD9060CA
:1009FC001DE09F90601CE09E5003020ACD90601E8B
:100A0C00E0FFD3940B4003020ACDE490601CF0A3EA
:100A1C00F0EF1204A40A49000A4F010A55020A5EBB
:100A2C00030A6E040A7C050A82060A93070A9908CF
:100A3C000AA7090AB00A0ABD0B00000AC77D01E427
:100A4C00FF800A7D087F0180047D087F02121D59FA
:100A5C0080697D01E4FF1229760F122976122CCAC7
:100A6C0080597D08E4FF1213EB7F01122BEE804BB3
:100A7C007D087F0180297D087F021213EB7F011214
:100A8C002CD912288B80347D087F0380127D087F3F
:100A9C00041213EB7F01122CE880207D087F0512D5
:100AAC0013EB80177D01E4FF1229FE0F1229FE8043
:100ABC000A7F081216127F01122BDB90601EE004D5
:010ACC00F039
:010ACD002206
:101A3E007E007F057D007B017A6079221204FD9085
:101A4E0060227401F0906022E0607175D9AAA3E063
:101A5E0060F3E4F0121B521220EE12087C90602606
:041A6E00E0B4031FBE
:101A7200906020120B40C3906021E094F4906020AB
:0F1A8200E09401400AE4F0A3F09060267404F0B1
:101A9100906026E06404702C906022F07F21121D7A
:101AA100D57F0D121EC47F0112288B122C7E122DA0
:101AB10006122BDB906268E0FF122ADE906268E07A
:0A1AC100FF122AF7122A3C80892246
:102C0100C3906032E094FF906031E094FF50031272
:032C11000B402253
:1025D100C3906032E094DB906031E09401402EE4DE
:1025E100F0A3F0906272E0602490622EE0C4135474
:1025F1000730E009E054DFF0E0547FF02290622ED2
:0E260100120C0C90622EE04480F0A3E0F02258
:10085D005362320A00000000033241000000000024
:0E086D0002FF2D7800004562450101020304E0
:0F2D1500EC75F005A42445F582E43462F58322C1
:0D2D3E0078C0E24420F278C3E254F3F222A0
:092D78002085037F01227FFF2268
:1023C700E4FEFCFBEDB401030B8016EDB403047BC4
:1023D70002800EEDB404047B038006EDB405027B96
:1023E70004ECC39401501B122D15E0B50711122DF3
:1023F70015E5822BF582E43583F583E0FE80030C37
:0424070080DFAF06BD
:01240B0022AE
:1014B200906243E07003021567E0FFA3E0FD122390
:1014C200C7E4906243F0A3F0EF24FE605804600387
:1014D2000215677F75122C8E906297E070169062EB
:1014E20067E070047F0180027F00906267EFF01274
:1014F2002A58806E906297E0B40111906268E070A1
:101502000404F0805DE4906268F08056906297E097
:10151200B40210906269E02405F0E0D394B4404232
:101522007432F0803D7F75122C8E906297E0701AB3
:10153200906267E0B401077F01122D9080249062CF
:101542006312040E000000008015906297E0B4015F
:10155200057402F08009906297E0B40205E4F0128B
:051562002A5812260FBB
:011567002261
:102A9000E4906291F0A3F0906295F0A3F022C390CD
:0C2AA0006292E09490906291E094012218
:082D8100E4906297F002260FB6
:10237F00122B28122A1E12292D122C01906297E07F
:10238F0064016004E0B4022CC3906292E094FF9069
:10239F006291E094FF5007E475F00112023DC39083
:1023AF006296E094FF906295E094FF500AE475F016
:0823BF000102023D122A9022E6
:062D9000906297EFF022B3
:10132100906297E024FE60690460030213BF122AF1
:101331009E50030213BFE4F0A3F0906268E07022B4
:10134100906224E01313543F30E00AE4FDFF1229B8
:1013510076E4FD800A7D01E4FF1229767D01E4FF38
:10136100802A906268E064017054906224E0131353
:1013710013541F30E00BE4FD7F01122976E4FD8058
:10138100097D017F011229767D017F011229FE80ED
:101391002D122A9E4028E4F0A3F0906226E013A3C8
:1013A100E01330E011E4FF1222E67F011222E67F12
:1013B100021222E68008906269E0FF121159C3907F
:1013C1006296E09480906295E09425400EE4F0A34B
:1013D100F0FF122D9012260F122A58120DFD12281D
:0A13E100B61216B61225D1022A3CFE
:10260F00122A90906297E024FE600E2402701290BE
:10261F006270E0FF12272E8008906269E0FF1211AE
:10262F0059122296906268E07008FF122ADEE4FFCA
:0D263F0080077F01122ADE7F01122AF72298
:10176F00022516E493A3F8E493A34003F68001F255
:10177F0008DFF48029E493A3F85407240CC8C3337B
:10178F00C4540F4420C8834004F456800146F6DF4A
:10179F00E4800B0102040810204080900547E47E8E
:1017AF00019360BCA3FF543F30E509541FFEE4933F
:1017BF00A360010ECF54C025E060A840B8E493A306
:1017CF00FAE493A3F8E493A3C8C582C8CAC583CA31
:1017DF00F0A3C8C582C8CAC583CADFE9DEE780BEE9
:01087B00007C
:10004500E709F608DFFA8046E709F208DFFA803E9D
:1000550088828C83E709F0A3DFFA8032E309F6088A
:10006500DFFA8078E309F208DFFA807088828C83F2
:10007500E309F0A3DFFA806489828A83E0A3F608A6
:10008500DFFA805889828A83E0A3F208DFFA804C80
:1000950080D280FA80C680D4806980F28033801057
:1000A50080A680EA809A80A880DA80E280CA8033C0
:1000B50089828A83ECFAE493A3C8C582C8CCC58338
:1000C500CCF0A3C8C582C8CCC583CCDFE9DEE78008
:1000D5000D89828A83E493A3F608DFF9ECFAA9F087
:1000E500EDFB2289828A83ECFAE0A3C8C582C8CCDD
:1000F500C583CCF0A3C8C582C8CCC583CCDFEADEF6
:10010500E880DB89828A83E493A3F208DFF980CC57
:1001150088F0EF60010E4E60C388F0ED2402B40450
:100125000050B9F582EB2402B4040050AF232345F7
:0601350082239000957387
:10013B00BB010689828A83E0225002E722BBFE02C2
:09014B00E32289828A83E49322F5
:10015400BB010CE58229F582E5833AF583E0225060
:1001640006E92582F8E622BBFE06E92582F8E222AA
:0D017400E58229F582E5833AF583E49322C4
:10018100BB010FF8E58229F582E5833AF583E02882
:10019100F0225009C58229F8E58226F622BBFE0924
:1001A100C58229F8E22582F222F8EA2583F583E95E
:0301B1009328226E
:1001B400BB010689828A83F0225002F722BBFE012A
:0201C400F32224
:1001C600F8BB010DE58229F582E5833AF583E8F06F
:1001D600225006E92582C8F622BBFE05E92582C81B
:0201E600F22203
:1001E800BC000BBE0029EF8DF084FFADF022E4CCFB
:1001F800F875F008EF2FFFEE33FEEC33FCEE9DECC4
:10020800984005FCEE9DFE0FD5F0E9E4CEFD22ED09
:10021800F8F5F0EE8420D21CFEADF075F008EF2F53
:10022800FFED33FD4007985006D5F0F222C398FD44
:050238000FD5F0EA22E1
:10023D00C5F0F8A3E028F0C5F0F8E582158270024C
:06024D001583E038F022E9
:10025300BB0110E58229F582E5833AF583E0F5F0E9
:10026300A3E0225009E92582F886F008E622BBFEC6
:100273000AE92582F8E2F5F008E222E5832AF5830C
:08028300E993F5F0A3E99322D1
:0D028B00EF2BFFEE3AFEED39FDEC38FC22C2
:0E029800C3EF9BFFEE9AFEED99FDEC98FC2261
:1002A600E88FF0A4CC8BF0A42CFCE98EF0A42CFCF7
:1002B6008AF0EDA42CFCEA8EF0A4CDA8F08BF0A475
:1002C6002DCC3825F0FDE98FF0A42CCD35F0FCEBD4
:1002D6008EF0A4FEA9F0EB8FF0A4CFC5F02ECD3999
:0F02E600FEE43CFCEAA42DCE35F0FDE43CFC2206
:1002F50075F008758200EF2FFFEE33FECD33CDCCC0
:1003050033CCC58233C5829BED9AEC99E582984042
:100315000CF582EE9BFEED9AFDEC99FC0FD5F0D61F
:10032500E4CEFBE4CDFAE4CCF9A88222B800C1B949
:100335000059BA002DEC8BF084CFCECDFCE5F0CB87
:10034500F97818EF2FFFEE33FEED33FDEC33FCEBC0
:1003550033FB10D703994004EB99FB0FD8E5E4F97B
:10036500FA227818EF2FFFEE33FEED33FDEC33FC68
:10037500C933C910D7059BE99A4007EC9BFCE99A5C
:10038500F90FD8E0E4C9FAE4CCFB2275F010EF2FA1
:10039500FFEE33FEED33FDCC33CCC833C810D707A1
:1003A5009BEC9AE899400AED9BFDEC9AFCE899F8DC
:0E03B5000FD5F0DAE4CDFBE4CCFAE4C8F9226F
:1003C300EB9FF5F0EA9E42F0E99D42F0EC6480C8B1
:0603D30064809845F02251
:1003D900EB9FF5F0EA9E42F0E99D42F0E89C45F07A
:0103E90022F1
:0C03EA00E0FCA3E0FDA3E0FEA3E0FF2286
:0C03F600E0F8A3E0F9A3E0FAA3E0FB228A
:0C040200ECF0A3EDF0A3EEF0A3EFF0226D
:10040E00A8828583F0D083D082120425120425128F
:10041E000425120425E473E493A3C583C5F0C583B4
:10042E00C8C582C8F0A3C583C5F0C583C8C582C838
:01043E00229B
:0C043F00A42582F582E5F03583F58322C8
:09044B00E0FBA3E0FAA3E0F922B2
:10045400F8E0FBA3A3E0F925F0F0E5821582700231
:070464001583E0FA38F022D5
:09046B00EBF0A3EAF0A3E9F02292
:10047400BB010DE58229F582E5833AF58302044B3D
:100484005007E92582F8020529BBFE07E92582F811
:10049400020532E58229F582E5833AF58302053BBC
:1004A400D083D082F8E4937012740193700DA3A3E7
:1004B40093F8740193F5828883E4737402936860FB
:0604C400EFA3A3A380DFFB
:0604CA008A838982E473BD
:1004D000EC8EF0A4CCC5F0CCCDF8EFA4CEC5F02DB9
:1004E000FDE43CFCE8A42EC8C5F03DFDE43CFCEF77
:0D04F000A4FFE5F028FEE43DFDE43CFC2205
:1004FD00EF4E6012EF60010EEDBB010B89828A8316
:10050D00F0A3DFFCDEFA2289F05007F709DFFCA922
:0C051D00F022BBFEFCF309DFFCA9F02279
:09052900E6FB08E6FA08E6F922F7
:09053200E2FB08E2FA08E2F922FA
:0C053B00E493FB740193FA740293F9221C
:00000001FF
