:0300000002197171
:10197100787FE4F6D8FD9060007F007E07E4F0A355
:0A198100DFFCDEFA7581210219C6B1
:0C000300000000000000000000000000F1
:0B2FB300EF1FAC0670011E4C70F622F0
:10002700AB07AA06EB1BAE0270011A4E600C7FAA43
:0B0037007E05122FB375D9AA80EA22C3
:1014EF00907120E04480F07F057E00122FB3E4FF5F
:1014FF00FE12002775A75575AC5C9071327450F0D1
:10150F009071307403F0907136742FF090715C7499
:10151F0003F090715BE054FCF07F18EF2466FDE45C
:10152F0034718D82F583E4F00FEFB433EE904011F8
:10153F00E4935407FF90711CE054F84FF09040175C
:10154F00E493547FFF90711DE054804FF090401052
:10155F00E493FF5401C43333335480FE907123E07E
:10156F00547F4EF0EFC313543F4440FFA3E0548029
:10157F004FF0904012E493FF540FFE907146E054E9
:10158F00F04EF0EFC4540FFF90714FE054F04FF056
:10159F00904013E493543FFF907140E054C04FF0DC
:1015AF00904014E493907126F0904015E49390715D
:0B15BF0028F0904016E49390712AF091
:0115CA0022FE
:1026D800E5B154CF42B153A8BFD2AF75D102789CAF
:1026E800E254E3F2E2441CF2E254FCF2E24401F266
:1026F80008E2547FF2E24420F278A17401F21874DF
:1027080076F2789CE2541FF2E244C0F243A84022D9
:03002100021BCBF4
:101BCB00C0E0C0F0C083C082C0D075D000C000C0E0
:101BDB0001C002C003C004C005C006C007789DE267
:101BEB0030E747E24480F29062F1E0FEA3E0FFE4CD
:101BFB00FCFD7BFF7AFFF9F8D31203D5400A906204
:101C0B00F1E475F00112024F9062AAE0C394FF5009
:101C1B0003E004F0122D83122D9A9062F3E475F019
:101C2B000112024F122D6C122E07D007D006D005D1
:101C3B00D004D003D002D001D000D0D0D082D0833A
:051C4B00D0F0D0E032F2
:10292300E5B254FC42B253A9FED2AF75D104907103
:10293300057409F0907104745FF0907101E0547FA5
:10294300F0E04420F0907100E0E4F0E044C1F04393
:03295300A90122B5
:03002400022D2486
:102D2400C0E0C083C082907101E030E704E04480D9
:082D3400F0D082D083D0E03220
:0E2F310090623EEFF0122FD290623EE0FF223F
:102CA50078E2E254FCF2E24401F290718EE04404D1
:0B2CB500F075D60175D59F75D2102276
:082FD200E5D430E4FB8FD722A7
:0405590041631900E1
:102DC800907123E054D8F0E04459F0227869E24445
:062DD80001F290631922D4
:102B120078C3E24403F218E2440CF2786AE24479A0
:102B2200F27591FF9071227407F0439E70439940B1
:062B320043AA04D2AF2209
:102C31005399E0EF24FE600B04700E122DC84399E6
:102C4100048006122DC84399017869E24448F222B2
:10280D00906319E014601914601D1460261460049F
:10281D00240470257F01122C319063197401F0226C
:10282D00122DD47402F0227F02122C319063197490
:0A283D0003F022122DD47404F022DF
:03004200021C504D
:101C5000C0E0C0F0C083C082C0D075D000C000C05A
:0D1C600001C002C003C004C005C006C007DB
:101C6D00786BE230E142E24402F2AF93EF75F0108F
:101C7D00A4FFE594C4540FFDEF4DFF90623FE5F0D6
:101C8D00F0A3EFF0906319E024FC601124027018AA
:101C9D0090623FE0FEA3E0FF1229E8800B90623FC7
:081CAD00E0FEA3E0FF122C1081
:101CB500D007D006D005D004D003D002D001D00083
:0B1CC500D0D0D082D083D0F0D0E0322D
:102BEF00906213F090631002045D9000061201547E
:102BFF00FE9000080201549000091201C690000CCB
:012C0F0022A2
:100EA900E4906213F07FFFA374FFF09063101204C3
:100EB9007D900001120154FE12013BFDEEC39D50CD
:100EC9000302103B122BF3900001E41201C69000BB
:100ED9000E1204861204DCEFF4600890630F742389
:100EE900F0800990630FE06003E014F0122BF39097
:100EF90000031201546F6015900005120154600D32
:100F0900900004E41201C690000302103790000516
:100F1900120154FE900004120154C39E500B122B6F
:100F2900F39000047401020181122BF39000021264
:100F390001546F6048EFF4701C122BF9C39E400AEC
:100F49007405122BEF9000028061122BF390000AB6
:100F5900740102102E122BF39000087401122C094F
:100F69001201546F906310600C12045D7401122C0D
:100F790006EF02102E12045D900009803DEFF47017
:100F890041122BF3900009120154D394005003022B
:100F9900103190000B120154FE90000A120154D333
:100FA9009E40117401122BEF90000C1201549062B3
:100FB90014F08054122BF390000A7401120181027B
:100FC9001031122BF3122C00C394FF500890000823
:100FD9007401120181122BF9B5060890621374038A
:100FE900F08020122BF3900007122BFC6E703990C1
:100FF90062137404122BF290000612015490000837
:101009001201C6906214EFF0122BF3E4122C06744D
:10101900FF1201C6906214E09000111201C690629D
:1010290013E09000121201C6122BF3900002EF1286
:0210390001C6EE
:01103B002292
:102E780075AF3F8FAF75AEB975A402E5A530E1FB1C
:012E88002227
:1028B80090621F12047D75AF3F8FAF906222E0C314
:1028C80094014022E5A530E0FB90621FE475F00119
:1028D80012046612013BF5A675AEB975A4019062A3
:0728E80022E014F080D5226C
:1028EF0090621F12047D906222E06027AE070FEE08
:1028FF002400FDE4343F8D82F583E493FE90621F44
:10290F00E475F001120466EE1201B4906222E01435
:04291F00F080D3224F
:05055D004262A700004E
:072FDA007B017A627991226C
:102D6C00C39062A8E094FF9062A7E094FF5007E440
:072D7C0075F00112024F2265
:10295600E4906217F0A3F0EE30E703D38001C39250
:1029660092D291EF25E0FFEE33FEC291906217E41A
:1029760075F00112024F906217E07004A3E0641034
:0229860070D50A
:01298800222C
:0626960090621312047DA6
:10269C00C291C283E4906216F0906216E0C39D5022
:1026AC002490621312045D906216E075F002A4F59A
:1026BC008285F083120265FFAEF0122956906216E5
:0B26CC00E004F080D4D283C283C292ED
:0126D70022E0
:102C5100C39062A8E094199062A7E09400400CE44C
:0C2C6100F0A3F0122FDA7D0B1226962251
:102485007E007F167D00122FDA12050F78D2E254F6
:10249500F3F2E24404F2907187E4F0E254CFF2E201
:1024A5004410F2A3E4F078C2E2543FF2E24440F271
:1024B500907181E4F0E254FCF2E24401F290717E05
:1024C500E4F0C292C291C283C280122FDA7D0B0260
:0224D500269649
:0B2FBE007379732072657365740A005C
:10000F0078C3E254FCF2E24401F2907182E4F0C250
:02001F00842239
:102AEA0012000F122CA57BFF7A2F79BE12095912F8
:102AFA002046122F8112257A1224851226D81229ED
:082B0A00237F017E0002002779
:102989001214EF75D95590715EE054FEF075D9BBFC
:10299900122AEA75D9AA121A0B7B017A6279A9124D
:1029A9000EA91229B91213F71211B8122C5180E38A
:1020460078E0E24440F278E3E254CFF278C0E2442A
:1020560040F278C3E254CFF278C0E24480F278C30B
:10206600E2543FF278D0E24401F278D2E254FCF234
:1020760078D0E24408F278D2E2543FF278D0E244D3
:1020860010F278D3E254FCF278F0E24401F278F2EE
:10209600E254FCF278E0E24480F278E3E2543FF264
:1020A60018E2543FF2E254F3F208E254F3F218E273
:0420B60054CFF222EF
:101A0B00208607E49062EAF080452087089062EA1E
:101A1B007401F0803A2090089062EA7402F0802FF3
:101A2B002093089062EA7403F0802420940890625B
:101A3B00EA7404F0801920B0089062EA7405F08013
:101A4B000E9062EA20A7057406F0800374FFF090F5
:101A5B0062EAE0FF122C897F01122ED720A6047FA9
:101A6B00018002E4FF122F3F30A5047F018002E4C6
:101A7B00FF122EB930A2047F018002E4FF122EC8A0
:101A8B0030A3047F018002E4FF122E5430A1047FA7
:091A9B00018002E4FF122E662214
:102DF30073706565645F6F665F6C6167203D3D203E
:042E030025750A0027
:10056200C10A4461D9000000004461DD00000000BE
:100572004461E1000000004461E5000000004161C7
:10058200E900602861EA00000000000000000000AD
:100592000000000000000000000000000000000059
:1005A20000000000000000000000000000004162A6
:1005B2001200C1094261D400004161D6004161D7F5
:0105C2000038
:10252900906216E0FF24EAF582E43461F583229093
:102539006213FEFDFC0204089062E5E0FF9061D79A
:10254900E0221203FCEF2401FFE43EFEE43DFDE43A
:102559003CFC229061DD020408E4FAF9F802034325
:102569009F906215F0E0FFC3940A22E4FDFC020487
:012579000859
:102DDE00E4FE74EA2E122530EFF00EEEB428F3E482
:042DEE00906212F0ED
:012DF20022BE
:102D3C00906212E012252EEFF0906212E004F0E0A7
:082D4C00C394284002E4F022C8
:1018230090621712042000000000E490621BF0A3F2
:1018330074FFF0E4906216F090621712040890624D
:1018430016E012252EE0FFE4FCFDFE12029D9062DD
:1018530017120414122529E0FE90621BE0C39E5068
:101863000B74EA2F122530E090621BF0122529E059
:10187300FE90621CE0D39E400B74EA2F122530E0E9
:1018830090621CF0906216E004F0E0642870A99066
:1018930062171203FCC006C00790621CE0FF90624F
:1018A3001BE02FFFE433AB07FA3395E0F9F8D007D9
:1018B300D0061202AA906217120414E47B26FAF9E6
:0A18C300F89062171203FC020343C1
:0D2F4D0078D3E254F3F278D0E24420F2226F
:1027D1009061E11203FC12255C12029D9061E112ED
:1027E10004149061DD120420000000009061E512E4
:1027F10003FC9061D912040812029D9061E5120454
:0C280100149061D9120420000000002295
:10225B009061D4E475F00112024FC39061D5E09404
:10226B00149061D4E09400402FE4F0A3F09061DD72
:10227B0012254B9061DD120414E47F587E02FDFCA5
:10228B0012255CC31203EB400F200A0C9061DD1288
:10229B00042000000000D20A30951520090F906130
:1022AB00D912254B9061D91204141227D1D20922CD
:0222BB00C20956
:0122BD0022FE
:1013F700906213120420000000009062171204206C
:10140700000000007FF47E019061E1122574C31291
:1014170003EB5006200A030214EE7F2E7E04906130
:10142700E51225741202B87B031225629062171227
:101437000414300A23E4FF9061E512253BC312032D
:10144700EB906213600912042000000001802C1247
:101457000420000000008023E47F24FEFDFC90624E
:10146700171204081202B87B0A1225629061E11272
:1014770004081203439062131204149062ED1203DE
:10148700FC90621712040812029D9062ED12041478
:101497009061E5120420000000009061E112042031
:1014A70000000000C20AE4FF122538D31203EB4004
:1014B70015E47F661225381202B8E47B64122563AF
:1014C700906213120414E47FC7122538D31203EB7A
:1014D700400A906213120420000000C790621312A2
:0714E70003FC9062E5EFF049
:0114EE0022DB
:0D2F5A009061E9E0C394FF5003E004F02211
:1011B8009061D6E0701A04F09062E5E09061D7F093
:1011C8009062E5E09061D8F09062E5E0FF122DDED4
:1011D8009061E9E0C3944B50030212EDE4F012254C
:1011E80041D39F403B122541122569500302127ECC
:1011F800EF943240089062147414F08011EFC39495
:10120800149062144005740AF080037405F090612C
:10121800D7E0FF906214E0FEC3EF9E9061D7803B59
:10122800122541C39F504FE0FF9062E5E0C31225AD
:10123800694043EF943240089062147414F08011AE
:10124800EFC394149062144005740AF08003740587
:10125800F0906214E0FF9061D7E02FF07BFF7A2DC9
:1012680079F31212EE9062E5E0FF122DDE9062E54E
:10127800E09061D8F0229062E5E0FF122D3C121850
:1012880023906213EFF0E0C3940A5007E09061D80E
:10129800F080259061D8E075F003A4FDACF0906271
:1012A80013E075F007A42DFFE5F03CFE7C007D0AF5
:1012B8001201FA9061D8EFF09061D8E0906213F0D3
:1012C800122544D39F4005E014F0800D906213125C
:1012D8002544C39F5003E004F07BFF7A2D79F390F7
:0512E80061D71212EEB7
:0F12ED0022E0FF906219E4F0A3EFF012095922FA
:1005C3004262D200004262D40000C10B4162C1000A
:0805D3004162C2004162C30055
:0D2F74009062CE020408E475F00102024FE5
:0D2F670078C2E254CFF278C0E24404F222B6
:102718009062CA1203FC9062C412040812029D90CF
:1027280062CA1204149062C412042000000000124D
:102738002F749062C8E0FEA3E0FFE4FCFD12029D46
:0E2748009062CE120414E49062C8F0A3F02256
:102431009062C1E004F0E0C394144020E4F09062A3
:10244100C8122F7BC39062C9E094589062C8E0948F
:10245100024009200C06E4F0A3F0D20C30822220C5
:102461000B1C9062C41203FCEF2401FFE43EFEE466
:102471003DFDE43CFC9062C4120414122718D20BF7
:0324810022C20B69
:012484002235
:101F4C00E47FF47E01FDFC122F74C31203EB5003EB
:101F5C00300C6A300C0EC20C90631312042000007B
:101F6C000000801CE47F607EEAFDFC9062CA1204D3
:101F7C00081202B8122F7412034390631312041444
:101F8C009062CA120420000000009062CE1204205D
:101F9C0000000000E47FFF7EFFFDFC906313120441
:101FAC0008C31203EB400A9063131204200000FFD5
:0D1FBC00FF9063131203FC9062E112041405
:011FC90022F5
:102B5E00C39062D3E094FF9062D2E094FF500312D0
:102B6E002F7AC39062D5E094FF9062D4E094FF5028
:052B7E0003122F7A2272
:102CC000E47BE87A03F9F89062E11203FC12034313
:082CD000EFD3940C40027F0CCD
:012CD80022D9
:10212600E490632BF09062C3E0700A04F0122CC0B6
:102136009062C2EFF0C39062D3E094C89062D2E09E
:1021460094004045E4F0A3F0122CC090632BEFF00E
:102156009062C2E0FEC39F5005E004F080169063D3
:102166002BE0FFEED39F400C9062C2E0D394004078
:1021760003E014F09062C2E0C3940840079062E75F
:092186007401F022E49062E7F01C
:01218F00222D
:0805DB004162EC004162EB00FB
:102D54001203FCEF2401FFE43EFEE43DFDE43CFCF1
:082D640022120408C30203EB74
:10176B00C39062F2E094E89062F1E09403400F3092
:10177B000D0C122C6DC20DE49062F1F0A3F0E47F1E
:10178B00E87E03FDFC9062ED122D6540657F187EAF
:10179B00C67D9A7C3B9062D6122D65500C9062D61A
:1017AB00122D549062D61204147F9C7EE07DF57C42
:1017BB00059062DA122D65500C9062DA122D54905E
:1017CB0062DA1204149062ED1203FCC3EF94E8FF8B
:1017DB00EE9403FEED9400FDEC9400FC9062ED1290
:0217EB000414E4
:1017ED009062EBE004F0E0C3940A4004E4F0D20D03
:1017FD009062ECE0600FC39062F4E094E89062F3C5
:10180D00E094034010E49062F3F0A3F09062EC04D6
:05181D00F09062DEE026
:0118220022A3
:1005E30042617E0000426180000060286182000059
:1005F30000000000000000000000000000000000F8
:1006030000000000000000000000000000000000E7
:100613000000000000004161AA0041617B006028E6
:1006230061AB0000000000000000000000000000BB
:1006330000000000000000000000000000000000B7
:10064300000000000000000000004161D300416190
:060653007C0041617D0006
:1027940025E02482F582E43461F583EEF0A3EFF0C2
:1027A4002225E024ABF582E4346122F583E0FEA324
:1027B400E0FFE4FCFD02029D12260B90632CEFF077
:0D27C40090617D22E47B14FAF9F80203FC19
:0B2F9B00E4FDED1227940DEDB414F7D7
:012FA6002208
:102C100090617BE0700504F0022F9B9061AAE012A6
:102C200027949061AAE004F0E0C394144002E4F019
:012C30002281
:102756009062FC12042000000000E49062FBF090FE
:1027660062FC1204089062FBE025E02482F582E414
:1027760034611227AF9062FC1204149062FBE004ED
:0E278600F0E0B414DA9062FC1227C80203439C
:102D8300C390617FE094FF90617EE094FF5007E47D
:072D930075F00112024F224E
:102D9A00C3906181E094FF906180E094FF5007E462
:072DAA0075F00112024F2237
:0E2EAA00E4FDED1227A512279D0DEDB414F4E2
:012EB80022F7
:102CD9009061D3E01227A512279D9061D3E004F0FB
:092CE900E0C394144002E4F0225F
:1028800090630112042000000000E4906300F090C7
:102890006301120408906300E01227A51227AF908D
:1028A0006301120414906300E004F0E0B414E090BB
:0828B00063011227C802034373
:10260B00E4FDC3EF94AAEE940540028036C3EF9429
:10261B00B4EE940440047D018029C3EF94BEEE9484
:10262B000340047D02801CC3EF94C8EE9402400467
:10263B007D03800FC3EF94D2EE940140047D0480A0
:05264B00027D05AF0552
:012650002267
:1018CD00E490632CF0C390617FE094C890617EE05A
:1018DD0094005003021970E4F0A3F01227567C0710
:1018ED007DD01204E2E4FB7A10F9F8120343AB0742
:1018FD00AA0690617CE0701C04F0122EAA1227BC7F
:10190D00F0700A9062E9E0701204F0800EE49062CB
:10191D00E9F08007AE02AF03122CD9C3906181E0CC
:10192D009488906180E094134039E4F0A3F012287C
:10193D00801227BCE0FEC39F5005E004F08010909C
:10194D00632CE0FFEED39F400690617DE014F09094
:10195D00617DE070099062E9E0700804F022E49086
:03196D0062E9F03C
:011970002254
:100659006028624400000000000000000000000063
:100669000000000000000000000000000000000081
:1006790000000000000000000000000041626C0062
:040689004162410089
:0C2FA70025E02444F582E43462F5832226
:102E8900E4FDED122FA7EEF0A3EFF00DEDB414F26F
:012E99002216
:1029E800906241E0700A122E899062417401F022CF
:1029F80090626CE0122FA7EEF0A3EFF090626CE00B
:0A2A080004F0E0C394144002E4F06F
:012A120022A1
:1024D70090630612042000000000E4906305F0906A
:1024E7006306120408906305E0122FA7E0FEA3E03D
:1024F700FFE4FCFD12029D9063061204149063052D
:10250700E004F0E0B414D89063061203FCE47B14F3
:10251700FAF9F81203439063061204149063060253
:0225270003FCB3
:102DB100C3906243E094FF906242E094FF5007E4C5
:072DC10075F00112024F2220
:10237D00C3906243E094C8906242E09400404BE405
:10238D00F0A3F01224D7E4FCFD7B607A617902F8AA
:10239D001202B8E47B0AFAF9F8120343E4FB7A104F
:1023AD00F9F8120343EF2464FFE43EFEC3EF943CBF
:1023BD00EE94284006E49062E8F022C3EF9410EE0C
:0A23CD00942750069062E87401F0B6
:0123D70022E3
:10068D005562D600000000000000000000000000D0
:08069D00000000000000000055
:10257A007B017A627913906222740BF0E4FF1228CD
:10258A00EF90621DE0B4C5219062131203FC9062C1
:10259A00D61204149062171203FC9062DA12041421
:1025AA0090621BE09062DEF0229062DE7401F0908D
:0825BA0062E074C5F0122C6D03
:0125C20022F6
:102C6D009062E074C5F0E4FF122E787B017A6279F0
:0C2C7D00D6906222740BF0E4FF0228B82D
:102BCB000001B2070003640E000516150006C81CB1
:102BDB0000087A23000A2C2A000BDE31000D9038F6
:042BEB00000F423F56
:1006A5004A604B3F065B4F666D7D077F6F45604631
:1006B50000000000004260550000604260570A05D6
:1006C5000A02090209040907090A090908020804B6
:1006D500080708060809080A080C080D060A06098D
:1006E500060D060F000500030002010D010C0103B4
:1006F5000102010102040207020602080209020AB8
:10070500603060990A070A060A040A030A010A000A
:10071500090009030905090B09080801080308056B
:100725000808080B080E060406050606060C060E44
:10073500000600045A60C9050907060707070809E6
:1007450001090C090D0800080F060706020007013C
:100755000B4E60E302020203020C020E020F0200BE
:100765000201602A60F10000090E090F0000000077
:10077500000000000603070F070C0709070B070E0B
:10078500070D060107030704070507010700070210
:100795006054611B05020503050E050C050D0504D6
:1007A500050F040C040B05050507050605010500E5
:1007B500040F040E040604080409040D040A0400C9
:1007C500040104040407040504020403030F030ED3
:1007D500030C0309030A030D030B030003020305BE
:1007E50003070306030103034C616F0A0F0A0E0A90
:1007F5000C0A0B0A0A0A0942600000004160020067
:10080500416003004260040000416006004160074A
:1008150000426008003242600A000041600C00415D
:10082500600D0041600E0042600F001E4260110025
:1008350000426013000041601500416016004260EF
:1008450017001E426019000041601B0042601C0039
:10085500C842601E000041602000426021001E4227
:100865006023000041602500426026005A4260284E
:10087500000041602A0041602B0042602C000041CD
:10088500602E0042602F000041603100426032005E
:10089500004160340042603500004160370042602D
:1008A50038000041603A0042603B000041603D0075
:1008B50042603E00004160400041604100426042AC
:0A08C500000041604400416045005E
:10103C00906214E0FF25E024E3F582E43460F5834C
:10104C00E025E02491F582E43462F58322E0FCA3F0
:10105C00E0FDEF25E024E4F582E43460F583E0FF65
:10106C007E007401A8070822E475F00102024FF417
:10107C00FFEEF45CFEED5FFF22E0FCA3E0FDEF75FC
:10108C00F00EA424F2F582E43460F58322E0FF75BF
:10109C00F00EA424F1F582E43460F58322FFEC4ECB
:1010AC00FEED4FFF2275F002020451E4F0A3F0A311
:1010BC00E022E0FCA3E0FDEF25E022E014FFA3E03A
:1010CC00FED39F22E0FCA3E0FDEE22EFF0744B2D4B
:1010DC00F582E43460F583E022E0FFA3E0A3CFF0D7
:1010EC00A3EFF022C3906001E09496906000E0942E
:1010FC000022C3906005E0942C906004E0940122DF
:10110C00E04401F0A3E0F022E0FEA3E0FFC322EDF7
:10111C0075F00202045175F00EA4241BF582E43420
:10112C0061F5832275F00EA4241CF582E43461F57C
:10113C008322E0FAA3E0FB7C00FFAE020201E8FE92
:10114C00C3906049E09F906048E09E22E04408F024
:10115C00A3E0F022EEF0A3EFF0906324E004F02281
:10116C00EEF0A3EFF0906326E004F022EEF0A3EF94
:10117C00F0906328E004F022EEF0A3EFF090632AE5
:10118C00E004F02225E02457F582E434602225E0C7
:10119C002499F582E434602225E024C9F582E434F4
:0C11AC00602225E0246FF582E43461220B
:0F2EB900EF90629D600412110C22E054FEF02293
:0F2EC800906294E054FEF0EF6004E04401F022C9
:0E2F3F0090629DE054F7F0EF600312115822EB
:102E5400906291E054EFF0EF6007E04410F0A3E0DB
:022E6400F0225A
:102E6600906293E054BFF0EF6007E04440F0A3E0C7
:022E7600F02248
:051CD000906323EFF01A
:101CD500E4A3F0F0906324E0FF12119012104AC0C3
:101CE50083C0821210BE2458F582E4346012106855
:101CF5008005C333CE33CED8F912107BD082D08382
:101D0500121160E0B421CD906323E0D39400403AF2
:101D1500E4A3F09063231210C7502FEE1211901216
:101D2500104AC083C0821210D025E02458F582E401
:101D350034601210688005C333CE33CED8F9121043
:0A1D4500A9D082D08312116080C97A
:011D4F002271
:051D5000906325EFF097
:101D5500E4A3F0906326E0FF12119A12104AC083A3
:101D6500C0821210BE249AF582E434601210688095
:101D750005C333CE33CED8F912107BD082D083126F
:101D8500116CE0B418CD906325E0D39400403AE49B
:101D9500A3F09063251210C7502FEE12119A12105E
:101DA5004AC083C0821210D025E0249AF582E4341B
:101DB500601210688005C333CE33CED8F91210A94E
:091DC500D082D08312116C80C998
:011DCE0022F2
:102A1300AD07906294E054DFF0E054BFF09062930E
:102A2300E054FBF0ED6013A3E04420F0E04440F0F9
:0B2A3300906293E04404F0A3E0F02266
:051DCF00906327EFF016
:101DD400E4A3F0906328E0FF1211A412104AC08318
:101DE400C0821210BE24CAF582E4346012106880E6
:101DF40005C333CE33CED8F912107BD082D08312F0
:101E04001178E0B40DCD906327E0D39400403AE418
:101E1400A3F09063271210C7502FEE1211A41210D2
:101E24004AC083C0821210D025E024CAF582E4346B
:101E3400601210688005C333CE33CED8F91210A9CE
:091E4400D082D08312117880C90C
:011E4D002272
:0F2ED700EF906295600412115822E054F7F02238
:0F2EE600906296E054DFF0EF6004E04420F022A9
:051B3900906213EFF0C3
:101B3E00E4A3F012103CC083C0821210598005C37A
:101B4E0033CE33CED8F912107BD082D083EEF0A3F1
:101B5E00EFF0906214E004F0E0B407D7906213E067
:101B6E00FFD394004056744B2F1210DC906215F088
:101B7E00E4906214F0906214E0FFD39407503D128B
:101B8E00106C8005C333CE33CED8F9FF906215E0CA
:101B9E00FDEF5D601F12103CC083C0821210598091
:101BAE0005C333CE33CED8F91210A9D082D083EE2E
:0C1BBE00F0A3EFF0906214E004F080B996
:011BCA0022F8
:102C8900AB07E4FF122EE6121B39EBF4600DEB7073
:0C2C9900057F01022EE6AF03121B39225A
:101AA40090631CEBF090631AEFF0A3EDF0EF1210CB
:101AB4009B12111B12104CC083C082E0FAA3E0FBFE
:101AC40090631AE012108B12111B12106A8005C366
:101AD40033CE33CED8F9F4FFEEF45AFEEB5FFFD0E9
:101AE40082D083EEF0A3EFF090631CE06046906335
:101AF4001A121099C083C08290631BE0D082D083F5
:101B04001210B112104CC083C082121085C083C061
:101B14008290631BE0D082D0831210B112106A80CD
:101B240005C333CE33CED8F91210A9D082D083EEB8
:051B3400F0A3EFF02218
:031E4E0090631D81
:101E51001210D790631FF0E490631EF090631EE0B0
:101E6100FFC39407506512106C8005C333CE33CE87
:101E7100D8F9FF90631FE0FDEF5D604690631D128E
:101E81001099C083C08290631EE0D082D08312106B
:101E9100B112104CC083C082121085C083C08290E1
:101EA100631EE0D082D0831210B112106A8005C384
:101EB10033CE33CED8F91210A9D082D083EEF0A35D
:0B1EC100EFF090631EE004F0021E5DD5
:011ECC0022F3
:0512FC0090630AEFF011
:10130100E490630DF0A3F0FB7D01FF121AA4E4FB4E
:101311007D02FF121AA490630B7401F0E490630C38
:10132100F090630CE0FFC39407504990630BE0FE1B
:1013310012109BEF12111C12104CC083C0821210AC
:10134100D012108BC083C08290630CE0D082D08316
:101351001210B112106A8005C333CE33CED8F91200
:10136100107BD082D083EEF0A3EFF090630CE00409
:10137100F002132290630BE004F0E06403709D908F
:10138100630AE090630EF090630DE004F0A3E07552
:10139100F00A84F070F190630AE0C3946440127B18
:1013A100017D01E4FF121AA47B017D02E4FF121A00
:1013B100A490630B7401F090630BE0FFC39403509E
:1013C1003490630DE0B40105EF6402602090630B7B
:1013D100E0FFC374039FFF90630AE075F00A84ADD8
:1013E100F0121E4E90630AE075F00A84F090630BD0
:0513F100E004F080C2E1
:0113F60022D4
:102B8300EF700F90629BE054FBF0ED6016E044049D
:102B9300800D90629BE054F7F0ED6007E04408F08D
:042BA300A3E0F02299
:102CF200EF700AFD7F01122B830D1F8008E4FDFF98
:092D0200122B830D0F122B83220A
:102BA700EF700F906298E054EFF0ED6016E044107C
:102BB700F022906295E054DFF0ED6007E04420F0EA
:042BC700A3E0F02275
:102D0B00EF700AFD7F01122BA70D1F8008E4FDFF5A
:092D1B00122BA70D0F122BA722A9
:0315CB009063200A
:1015CE001210D7906322F0E4906321F0906321E033
:1015DE00FFC39407400302169C906320E0FE121195
:1015EE002275F002EF12045112104CC083C0821209
:1015FE0010D0121130C083C082906321E0FBD082E4
:10160E00D0831210B112106A8005C333CE33CED8F8
:10161E00F912107BD082D083EEF0A3EFF07E00742F
:10162E0001A803088005C333CE33CED8F9FF9063EB
:10163E0022E0FDEF5D604E906320E0FF121122C0AC
:10164E0083C082906321E0D082D0831210B1121039
:10165E004CC083C082E0FCA3E0FDEF121130C083CA
:10166E00C082906321E0D082D0831210B112106A32
:10167E008005C333CE33CED8F91210A9D082D083D1
:0E168E00EEF0A3EFF0906321E004F00215DA15
:01169C00222B
:102E1B00EF9062936008E04402F0A3E0F022E054EC
:032E2B00FDF02295
:0F2EF500EF906293600412110C22E054FEF02261
:0F2F0400EF906297600412110C22E054FEF0224D
:0620BA009062F51204140F
:1020C000E49062FAF09062FAE0FFC39406503CC3D9
:1020D00074059FFFC007E47B0AFAF9F89062F512D5
:1020E00003FC120343AF03AD07D0071215CB906278
:1020F000F51203FCE47B0AFAF9F81203439062F547
:102100001204149062FAE004F080BA9062F9E06080
:10211000087F01122E1B1F8006E4FF122E1B0F12D8
:052120002EF5122F0452
:012125002297
:102E2E00EF9062A56008E04420F0A3E0F022E054A9
:032E3E00DFF022A0
:102E9A00EF9062A46005E04440F022E054BFF022C3
:0F2F1300EF9062A5600412110C22E054FEF02230
:051FCA00906329EFF017
:101FCF00E4A3F090632AE0FF1211AE12104AC0830F
:101FDF00C0821210BE2470F582E434611210688042
:101FEF0005C333CE33CED8F912107BD082D08312F3
:101FFF001184E0B406CD906329E0603AE4A3F09039
:10200F0063291210C7502FEE1211AE12104AC0835F
:10201F00C0821210D025E02470F582E434611210D2
:10202F00688005C333CE33CED8F91210A9D082D031
:06203F008312118480C928
:012045002278
:1021F600906000121074906002E0FF70221210F0DE
:102206004052E4F0A3F0906003E004F0E0940C4048
:10221600439060027401F0E4906000F0A3F022EFB6
:10222600B40115C3906001E094C81210F74025E48C
:10223600F0A3F0A37402F022906002E0B40215123B
:1022460010F04010E4F0A3F0906003E0D394004057
:0422560003E014F09D
:01225A002261
:012FE10022CD
:10231E00906004121074906006E0FF701C1210FEA4
:10232E00404CE4F0A3F0906007E094055004E00404
:10233E00F0229060067401F022EFB40115C3906094
:10234E0005E094901211054025E4F0A3F0A3740269
:10235E00F022906006E0B402151210FE4010E4F078
:0E236E00A3F0906007E0D394004003E014F069
:01237C00223E
:102E0700906046E0B4010C906048121074906047DF
:042E17007401F02230
:10169D0090604AE0600302174B9060087D121211B2
:1016AD003EAC06AD07EB25E0FFEA33FEC3ED9FFF31
:1016BD00EC9E12114B400790604A7401F02290602D
:1016CD0008E0FEA3E0FF7C007D031201E8AA06AB53
:1016DD0007906008E0FEA3E0FF7D121201E8C3EF62
:1016ED009BFFEE9A12114B400812174C7F02021A03
:1016FD00A490600EE0700804F09060081210E59060
:10170D00600A12107490600812111490600BE09F23
:10171D0090600AE09E4027E4F0A3F012174C7F0280
:10172D00121AA490600CE07F011217607F0212174D
:0E173D0060A3F090600C04F0E0B40602E4F04B
:10174B002290600DE0FDE4FB7F01121AA490600D66
:10175B00E0FDE4FB22FD7B01121AA490600CE02259
:1022BE0090604AE06401705790600F7D2212113ECB
:1022CE00906013E0FCA3E0FDC39FEC9E400690607F
:1022DE004A7402F0906015E0700A04F0906011EC00
:1022EE00F0A3EDF090601112107490601312107440
:1022FE00C3906012E09B906011E09A4012E4F0A34C
:0F230E00F0906016E0FF121CD0906016E004F013
:01231D00229D
:100C530090604AE064026003020EA890602AE0C339
:100C6300940C400790604A7403F02290602BE0706C
:100C73001804F09060171210E57F01122E9A90600D
:100C83001C1210E57F01121DCF9060191210749091
:100C9300601712111490601AE09F906019E09E4053
:100CA3003290601BE0FFD394065028E4906019F063
:100CB300A3F0121FCA90601BE0B403057F01122E3C
:100CC3002E90601BE0B406057F01122F1390601B6A
:100CD300E004F090601E12107490601C12111490C6
:100CE300601FE09F90601EE09E4049906020E0FFFF
:100CF300D39404503FE490601EF0A3F0EF1460140B
:100D030014601814601C146020240470217F0112E5
:100D13002EB9801A7F01122F3F80137F01122E54A8
:100D2300800C7F01122E6680057F01122EC8906011
:100D330020E004F0906023121074906021121114CB
:100D4300906024E09F906023E09E407A906025E0CD
:100D5300FFD394185070E4906023F0A3F0121D5059
:100D6300906025E01204B60D92020D96040D9A06CA
:100D73000D9E080DA20A0DA60C0DAA0E0DAE100DA8
:100D8300B2120DB6140DBA160DBE1800000DC37FB6
:100D930002802A7F0380267F0480227F05801E7FB6
:100DA30006801A7F0780167F0880127F09800E7FD6
:100DB3000A800A7F0B80067F0C80027F0D121DCFF5
:100DC300906025E004F09060281210749060261261
:100DD3001114906029E09F906028E09E5003020E5A
:100DE300A890602AE0FFD3940B4003020EA8E4907E
:100DF3006028F0A3F0EF1204B60E24000E2A010EB1
:100E030030020E39030E49040E57050E5D060E6EB1
:100E1300070E74080E82090E8B0A0E980B00000E43
:100E2300A27D01E4FF800A7D087F0180047D087FA5
:100E330002121E4E80697D01E4FF122B830F122BD9
:100E430083122EE680597D08E4FF1215CB7F011231
:100E53002E1B804B7D087F0180297D087F021215A0
:100E6300CB7F01122EF5122A1380347D087F038075
:100E7300127D087F041215CB7F01122F0480207D81
:100E8300087F051215CB80177D01E4FF122BA70FF6
:100E9300122BA7800A7F08121B397F01122ED790CD
:050EA300602AE004F0EC
:010EA8002227
:1025C3009060467401F0906046E0603B75D9AAA321
:1025D300E060F3E4F012169D1222BE120C539060D9
:1025E3004AE0B4031DE4906046F07F21121CD07FC3
:1025F3000D121DCF7F01122A13122E9A122F1312BE
:082603002ED7122C5180BF22DA
:102E4100C3906056E094FF906055E094FF500312E8
:032E5100107422D8
:101ECD00C3906056E094DB906055E09401406FE460
:101EDD00F0A3F09062E7E06018906291E013A3E048
:101EED001330E006E054FDF08007906292E044026A
:101EFD00F09062E8E06025906295E01313543F3056
:101F0D00E00AE054FBF0E054F7F08010906295E0A9
:101F1D004404F0A3E0F09062951211589062E9E04C
:101F2D00601C906295E0C4131313540130E005E07A
:0F1F3D00547FF022906295E04480F0A3E0F02200
:102B380090602C121074C390602DE094F490602C77
:102B4800E0940140101210B770047F0180027F00EA
:052B580090602EEFF07B
:012B5D002255
:102A3E0090602F121074C3906030E094F490602F69
:102A4E00E0940140151210B7FF121CD0906031E0D7
:0A2A5E0004F0E0C394224002E4F00B
:012A6800224B
:102A6900906032121074C3906033E094F490603235
:102A7900E0940140151210B7FF121D50906034E028
:0A2A890004F0E0C394194002E4F0E9
:012A93002220
:102A9400906035121074C3906036E094F490603501
:102AA400E0940140151210B7FF121DCF906037E07B
:0A2AB40004F0E0C3940E4002E4F0C9
:012ABE0022F5
:10284700906038121074C3906039E094F490603847
:10285700E0940140231210B7FB7009FF122EE61215
:102867001B398006EB14FF122C8990603AE004F0C4
:08287700E0C394084002E4F004
:01287F002236
:102ABF0090603B121074C390603CE094C890603BF0
:102ACF00E0940040151210B7FF1212FC90603DE029
:0A2ADF0004F0E0C394C84002E4F0E4
:012AE90022CA
:10219000786D7C627D017BFF7A2B79CB7E007F247A
:1021A00012011590603E121074C390603FE094C815
:1021B00090603EE09400403D1210B725E025E024F9
:1021C0006DF582E43462F5831203FC906041E09087
:1021D00062F9F01220BA906041E070047F01800241
:1021E0007F00906041EFF0906040E004F0E0C39425
:0521F000094002E4F0CB
:0121F50022C7
:1023D800906042121074C3906043E094F49060429D
:1023E800E094014043E4F0A3F0906045E0FF122E32
:1023F8002E906045E0FF122E9A906045E0FF122F64
:1024080013906044E0FF121FCA906044E004F0E0BB
:10241800D394064002E4F0906045E070047F0180A8
:08242800027F00906045EFF017
:012430002289
:012FE20022CC
:0D2F8E00636C69636B0A004C6F6E670A008C
:1008CF005362A90A0000000003324100000000003B
:0E08DF0002FF2FC900004562BC0101020304A4
:0F2F2200EC75F005A424BCF582E43462F583223B
:0D2F810078C0E24420F278C3E254F3F2225B
:092FC9002085037F01227FFF2215
:10265100E4FEFCFBEDB401030B8016EDB403047B37
:1026610002800EEDB404047B038006EDB405027B09
:1026710004ECC39401501B122F22E0B50711122F55
:1026810022E5822BF582E43583F583E0FE80030C9D
:0426910080DFAF0631
:012695002222
:1029B9009062BAE06028E0FFA3E0FD122651E4909E
:1029C90062BAF0A3F0EF24FE600B0470117BFF7A6A
:0E29D9002F798E80067BFF7A2F79951209598F
:0129E70022CD
:10198B00022989E493A3F8E493A34003F68001F2C0
:10199B0008DFF48029E493A3F85407240CC8C3335D
:1019AB00C4540F4420C8834004F456800146F6DF2C
:1019BB00E4800B0102040810204080900559E47E5E
:1019CB00019360BCA3FF543F30E509541FFEE49321
:1019DB00A360010ECF54C025E060A840B8E493A3E8
:1019EB00FAE493A3F8E493A3C8C582C8CAC583CA13
:1019FB00F0A3C8C582C8CAC583CADFE9DEE780BECB
:0108ED00000A
:10004500E709F608DFFA8046E709F208DFFA803E9D
:1000550088828C83E709F0A3DFFA8032E309F6088A
:10006500DFFA8078E309F208DFFA807088828C83F2
:10007500E309F0A3DFFA806489828A83E0A3F608A6
:10008500DFFA805889828A83E0A3F208DFFA804C80
:1000950080D280FA80C680D4806980F28033801057
:1000A50080A680EA809A80A880DA80E280CA8033C0
:1000B50089828A83ECFAE493A3C8C582C8CCC58338
:1000C500CCF0A3C8C582C8CCC583CCDFE9DEE78008
:1000D5000D89828A83E493A3F608DFF9ECFAA9F087
:1000E500EDFB2289828A83ECFAE0A3C8C582C8CCDD
:1000F500C583CCF0A3C8C582C8CCC583CCDFEADEF6
:10010500E880DB89828A83E493A3F208DFF980CC57
:1001150088F0EF60010E4E60C388F0ED2402B40450
:100125000050B9F582EB2402B4040050AF232345F7
:0601350082239000957387
:10013B00BB010689828A83E0225002E722BBFE02C2
:09014B00E32289828A83E49322F5
:10015400BB010CE58229F582E5833AF583E0225060
:1001640006E92582F8E622BBFE06E92582F8E222AA
:0D017400E58229F582E5833AF583E49322C4
:10018100BB010FF8E58229F582E5833AF583E02882
:10019100F0225009C58229F8E58226F622BBFE0924
:1001A100C58229F8E22582F222F8EA2583F583E95E
:0301B1009328226E
:1001B400BB010689828A83F0225002F722BBFE012A
:0201C400F32224
:1001C600F8BB010DE58229F582E5833AF583E8F06F
:1001D600225006E92582C8F622BBFE05E92582C81B
:0201E600F22203
:1001E800EF8DF0A4A8F0CF8CF0A428CE8DF0A42E2B
:0201F800FE22E5
:1001FA00BC000BBE0029EF8DF084FFADF022E4CCE9
:10020A00F875F008EF2FFFEE33FEEC33FCEE9DECB1
:10021A00984005FCEE9DFE0FD5F0E9E4CEFD22EDF7
:10022A00F8F5F0EE8420D21CFEADF075F008EF2F41
:10023A00FFED33FD4007985006D5F0F222C398FD32
:05024A000FD5F0EA22CF
:10024F00C5F0F8A3E028F0C5F0F8E582158270023A
:06025F001583E038F022D7
:10026500BB0110E58229F582E5833AF583E0F5F0D7
:10027500A3E0225009E92582F886F008E622BBFEB4
:100285000AE92582F8E2F5F008E222E5832AF583FA
:08029500E993F5F0A3E99322BF
:0D029D00EF2BFFEE3AFEED39FDEC38FC22B0
:0E02AA00C3EF9BFFEE9AFEED99FDEC98FC224F
:1002B800E88FF0A4CC8BF0A42CFCE98EF0A42CFCE5
:1002C8008AF0EDA42CFCEA8EF0A4CDA8F08BF0A463
:1002D8002DCC3825F0FDE98FF0A42CCD35F0FCEBC2
:1002E8008EF0A4FEA9F0EB8FF0A4CFC5F02ECD3987
:0F02F800FEE43CFCEAA42DCE35F0FDE43CFC22F4
:1003070075F008758200EF2FFFEE33FECD33CDCCAD
:1003170033CCC58233C5829BED9AEC99E582984030
:100327000CF582EE9BFEED9AFDEC99FC0FD5F0D60D
:10033700E4CEFBE4CDFAE4CCF9A88222B800C1B937
:100347000059BA002DEC8BF084CFCECDFCE5F0CB75
:10035700F97818EF2FFFEE33FEED33FDEC33FCEBAE
:1003670033FB10D703994004EB99FB0FD8E5E4F969
:10037700FA227818EF2FFFEE33FEED33FDEC33FC56
:10038700C933C910D7059BE99A4007EC9BFCE99A4A
:10039700F90FD8E0E4C9FAE4CCFB2275F010EF2F8F
:1003A700FFEE33FEED33FDCC33CCC833C810D7078F
:1003B7009BEC9AE899400AED9BFDEC9AFCE899F8CA
:0E03C7000FD5F0DAE4CDFBE4CCFAE4C8F9225D
:1003D500EB9FF5F0EA9E42F0E99D42F0EC6480C89F
:0603E50064809845F0223F
:1003EB00EB9FF5F0EA9E42F0E99D42F0E89C45F068
:0103FB0022DF
:0C03FC00E0FCA3E0FDA3E0FEA3E0FF2274
:0C040800E0F8A3E0F9A3E0FAA3E0FB2277
:0C041400ECF0A3EDF0A3EEF0A3EFF0225B
:10042000A8828583F0D083D0821204371204371259
:100430000437120437E473E493A3C583C5F0C5837E
:10044000C8C582C8F0A3C583C5F0C583C8C582C826
:010450002289
:0C045100A42582F582E5F03583F58322B6
:09045D00E0FBA3E0FAA3E0F922A0
:10046600F8E0FBA3A3E0F925F0F0E582158270021F
:070476001583E0FA38F022C3
:09047D00EBF0A3EAF0A3E9F02280
:10048600BB010DE58229F582E5833AF58302045D19
:100496005007E92582F802053BBBFE07E92582F8ED
:1004A600020544E58229F582E5833AF58302054D86
:1004B600D083D082F8E4937012740193700DA3A3D5
:1004C60093F8740193F5828883E4737402936860E9
:0604D600EFA3A3A380DFE9
:0604DC008A838982E473AB
:1004E200EC8EF0A4CCC5F0CCCDF8EFA4CEC5F02DA7
:1004F200FDE43CFCE8A42EC8C5F03DFDE43CFCEF65
:0D050200A4FFE5F028FEE43DFDE43CFC22F2
:1008EE00E5082419F582E43462F583E005082290C8
:1008FE006216300703906219E475F0011204660265
:10090E00013B2000E97F2ED2008018EF540F249077
:10091E00D43440D4FF30040BEF24BFB41A0050037C
:10092E002461FFE50960021509050CE50C7002054E
:10093E000B30070E906216E475F001120466EF029A
:10094E0001B4022F317403D2078003E4C207F50805
:10095E0090621612047DE4F509F50BF50CE50960BD
:10096E00077F2012093180F5750AFFC201C200C24D
:10097E0002C203C205C206C2081208FDFF700D3086
:10098E0007057F00120942AF0CAE0B22B4255FC2E1
:10099E00D5C2041208FDFF24D0B40A00501A75F017
:1009AE000A780930D50508B6FF0106C6A426F6203A
:1009BE00D5047002D20380D924CFB41A00EF5004AC
:1009CE00C2E5D204020B43D20180C6D20080C0D24F
:1009DE000280BCD2D580BAD20580B47F20120931F4
:1009EE002002077401B5090040F11208EEFF12094A
:1009FE003102096BD208D20680951208EEFB12085E
:100A0E00EEFA1208EEF94A4B700679147A0C7BFF57
:100A1E0020022EE509602A7E008E82758300120167
:100A2E005460060EEE650A70F0C2D5EBC0E0EAC067
:100A3E00E0E9C0E0EE120B8AD0E0F9D0E0FAD0E0A7
:100A4E00FB12013BFF60AAEBC0E0EAC0E0E9C0E0A8
:100A5E00120931D0E02401F9D0E03400FAD0E0FBE5
:100A6E00E50A0460DCD50AD980877BFF7A0B79868C
:100A7E00D202809C791080027908C206C2088008D2
:100A8E00D2D5790A8004790AC2D5E50A047002F536
:100A9E000AE4FAFDFEFF1208EEFC7B082001131299
:100AAE0008EEFD7B1030000A1208EEFE1208EEFF73
:100ABE007B20EC3382D592D55013C3E43000069FD1
:100ACE00FFE49EFEE42001039DFDE49CFCE4CBF8D4
:100ADE00C201EC700CCFCECDCCE824F8F870F380C8
:100AEE0017C3EF33FFEE33FEED33FDEC33FCEB3388
:100AFE00FB994002FB0FD8E9EB300105F8D0E0C4BA
:100B0E0048B201C0E00AEC4D4E4F78207B0070C217
:100B1E00EAB50A0040BCC0E0120B8CD0F0D0E02049
:100B2E000104C4C0E0C4B201C0F012091AD0F0D55D
:100B3E00F0EB02096B1204B60A08530A825809D95F
:100B4E004C09D5420A864F0A8E440A8E4909EE4355
:080B5E000A94550A78460A7852
:100B6600450A78470C345009DD2D09E12E0A042B7D
:100B760009E5230A02200C1D2A099D48000009FCEC
:100B86003F3F3F00790AA2D5200314300509B9106A
:100B9600020404B9080104A2D5200602500104206B
:100BA60002689202B509005034C0E07F2030031974
:100BB6007F30A20272067205500F120BE3C202C208
:100BC60006C205C2087F30800F300503E9C0E01277
:100BD6000931300503D0E0F9D0E0B509CC3005176E
:100BE6007F30B9100C1209317F583004077F7880A6
:100BF60003B908031209313002057F2D0209317F3E
:100C0600202008F87F2B2006F322920280CF286E40
:100C1600756C6C2900D2011208EE3001F8C2017819
:100C26000930D50108F602099D2D5043495812088E
:100C3600EE2403B405004001E4900C2F9312092220
:0D0C4600743A120922D203750904020A82D1
:10050F00EF4E6012EF60010EEDBB010B89828A8303
:10051F00F0A3DFFCDEFA2289F05007F709DFFCA910
:0C052F00F022BBFEFCF309DFFCA9F02267
:09053B00E6FB08E6FA08E6F922E5
:09054400E2FB08E2FA08E2F922E8
:0C054D00E493FB740193FA740293F9220A
:00000001FF
